:100000000C94F4040C9408050C9408050C94080551
:100010000C9408050C9408050C9408050C9408052C
:100020000C9408050C944C2B0C9408050C94FC3390
:100030000C9408050C9408050C9408050C9408050C
:100040000C9408050C9403180C9408050C940805EE
:100050000C9408050C9408050C9408050C94251ABA
:100060000C9408050C948D150C944B150C940805F4
:100070000C9408050C9408050C9408050C940805CC
:100080000C9408050C9408050C9408050C940805BC
:100090000C9408050C9408050C9408050C940805AC
:1000A0000C9408050C9408050C9408050C9408059C
:1000B0000C9408050C9408050C9408050C9408058C
:1000C0000C9408050C9408050C9408050C9408057C
:1000D0000C9408050C9408050C9408050C9408056C
:1000E0000C940805D30BC113C113DD0BEA0BF70BFE
:1000F000040CC113080CC113160CC113200C2A0CDC
:100100005B0CC113C113C113340C410C4E0C821291
:100110009312B2129312B612C912BC12C212E0129A
:10012000E612F5120C1330133A13461350132D2414
:100130003324362439243E2446245024BC24BC24B1
:10014000BC2458245B2464246D24BC24BC24BC241B
:10015000BC24BC24BC2475247F248B2493249624A3
:100160009F24A824AE244B2F4E2F532F562F592FA8
:100170005C2F5F2F622F652F682F6B2F772F772FC4
:10018000772F772F772F772F772F772F712F6E2F4E
:10019000742FC82FCB2FCE2FD12FD42FD72FDA2FBC
:1001A000DD2F084AD73B3BCE016E84BCBFFDC12F7B
:1001B0003D6C74319ABD56833DDA3D00C77F11BE58
:1001C000D9E4BB4C3E916BAAAABE000000803F055B
:1001D000A84CCDB2D44EB93836A9020C50B991868C
:1001E00088083CA6AAAA2ABE000000803F000C9402
:1001F0002D240C9464240C94DD0B0C94340C0C947E
:10020000D72F0C94C1130C946B2F0C94CE2F0C94FD
:100210005B240C9450130C945B0C0C94F70B0C9413
:1002200036240C94B6120C940C130C9475240C9474
:100230008B240C9446240C944B2F0C94C9120C94D0
:1002400039240C949F240C94CB2F0C9482120C9480
:10025000040C0C94742F0C9446130C9493120C946D
:100260004E2F0C94BC120C9493240C94622F0C947B
:100270003A130C94BC240C946E2F0C94772F0C948E
:1002800096240C94B2120C94DD2F0C94AE240C9492
:10029000200C0C947F240C94DA2F0C94D12F0C9406
:1002A000E6120C94D30B0C94592F0C946D240C94DF
:1002B000C2120C94A8240C9450240C9430130C9467
:1002C00058240C94F5120C94562F0C94E0120C94B4
:1002D000682F0C94C82F0C943E240C94712F0C940E
:1002E0005C2F0C9433240C94D42F0C94652F0C9415
:1002F000EA0B0C94410C0C94160C0C942A0C0C94E4
:10030000080C0C944E0C0C945F2F0C94532F3E0D44
:100310000A002C4C696D3A002C52583A002C427558
:10032000663A002C002C57506F733A002C002C4D6D
:10033000506F733A003C446F6F72003C43686563D2
:100340006B003C416C61726D003C486F6D65003C18
:10035000486F6C64003C52756E003C49646C6500EB
:100360005D0D0A005B302E396A2E32303136303363
:1003700031373A000D0A003D00244E005D0D0A00A1
:10038000205300204600205400204D3800204D39D5
:1003900000204D3500204D3400204D3300204D32DB
:1003A00000204D3100204D300020473934002047D7
:1003B0003933002047393100204739300020473297
:1003C0003000204732310020473139002047313892
:1003D0000020473137002047004733382E00473888
:1003E00030004733004732004731004730005B00A0
:1003F0005D0D0A005B544C4F3A005D0D0A002C0065
:100400005B4739323A005D0D0A002C003A00333068
:10041000003238005B47005D0D0A003A002C005B9B
:100420005052423A00290D0A00206D617820747202
:100430006176656C2C206D6D0020616363656C2CAA
:10044000206D6D2F7365635E3200206D61782072C0
:100450006174652C206D6D2F6D696E002C20737496
:1004600065702F6D6D007A00790078002028003DBE
:100470000024002028686F6D696E672070756C6CB1
:100480002D6F66662C206D6D290D0A002028686F7F
:100490006D696E67206465626F756E63652C206D93
:1004A000736563290D0A2432373D002028686F6D7B
:1004B000696E67207365656B2C206D6D2F6D696E9D
:1004C000290D0A2432363D002028686F6D696E6759
:1004D00020666565642C206D6D2F6D696E290D0A8F
:1004E0002432353D00290D0A2432343D002028688D
:1004F0006F6D696E672064697220696E76657274CB
:10050000206D61736B3A002028686F6D696E6720FB
:100510006379636C652C20626F6F6C290D0A24323D
:10052000333D00202868617264206C696D697473C2
:100530002C20626F6F6C290D0A2432323D00202876
:10054000736F6674206C696D6974732C20626F6FB1
:100550006C290D0A2432313D0020287265706F72BB
:100560007420696E636865732C20626F6F6C290D4F
:100570000A2432303D00202861726320746F6C655C
:1005800072616E63652C206D6D290D0A2431333D37
:100590000020286A756E6374696F6E2064657669E1
:1005A0006174696F6E2C206D6D290D0A2431323D06
:1005B00000290D0A2431313D0020287374617475BF
:1005C00073207265706F7274206D61736B3A0020D6
:1005D0002870726F62652070696E20696E76657230
:1005E000742C20626F6F6C290D0A2431303D00207D
:1005F000286C696D69742070696E7320696E766508
:1006000072742C20626F6F6C290D0A24363D002015
:10061000287374657020656E61626C6520696E7602
:100620006572742C20626F6F6C290D0A24353D00B1
:10063000290D0A24343D00202864697220706F72ED
:100640007420696E76657274206D61736B3A00294F
:100650000D0A24333D0020287374657020706F727A
:100660007420696E76657274206D61736B3A002038
:1006700028737465702069646C652064656C6179A9
:100680002C206D736563290D0A24323D00202873E8
:100690007465702070756C73652C207573656329A3
:1006A0000D0A24313D0024303D00242420287669A1
:1006B0006577204772626C2073657474696E677326
:1006C000290D0A242320287669657720232070616C
:1006D00072616D6574657273290D0A24472028764E
:1006E00069657720706172736572207374617465D7
:1006F000290D0A2449202876696577206275696C7E
:100700006420696E666F290D0A244E20287669657B
:1007100077207374617274757020626C6F636B7391
:10072000290D0A24783D76616C7565202873617601
:1007300065204772626C2073657474696E67290D59
:100740000A244E783D6C696E6520287361766520B9
:100750007374617274757020626C6F636B290D0A1B
:1007600024432028636865636B2067636F6465209A
:100770006D6F6465290D0A245820286B696C6C2004
:10078000616C61726D206C6F636B290D0A244820C7
:100790002872756E20686F6D696E67206379636C6F
:1007A00065290D0A7E20286379636C652073746166
:1007B0007274290D0A2120286665656420686F6CB3
:1007C00064290D0A3F202863757272656E74207368
:1007D0007461747573290D0A6374726C2D78202806
:1007E0007265736574204772626C290D0A000D0AE8
:1007F0004772626C20302E396A205B2724272066DE
:100800006F722068656C705D0D0A005D0D0A005204
:100810006573746F72696E672064656661756C7468
:10082000730050676D20456E6400436865636B20FC
:10083000446F6F720044697361626C656400456E59
:1008400061626C65640043617574696F6E3A20552E
:100850006E6C6F636B656400272448277C272458DF
:100860002720746F20756E6C6F636B005265736523
:100870007420746F20636F6E74696E7565005B0021
:100880000D0A00486F6D696E67206661696C0050E3
:10089000726F6265206661696C0041626F727420DC
:1008A000647572696E67206379636C6500536F6667
:1008B00074206C696D69740048617264206C696DA4
:1008C000697400414C41524D3A20000D0A00496EB6
:1008D00076616C69642067636F64652049443A00FF
:1008E000556E646566696E65642066656564207230
:1008F00061746500556E737570706F7274656420F5
:10090000636F6D6D616E64004D6F64616C20677222
:100910006F75702076696F6C6174696F6E004C69D9
:100920006E65206F766572666C6F7700486F6D69D3
:100930006E67206E6F7420656E61626C6564004145
:100940006C61726D206C6F636B004E6F7420696414
:100950006C6500454550524F4D20726561642066BC
:1009600061696C2E205573696E67206465666175D8
:100970006C74730056616C7565203C203320757370
:1009800065630053657474696E672064697361629E
:100990006C65640056616C7565203C203000496EC2
:1009A00076616C69642073746174656D656E740042
:1009B000426164206E756D62657220666F726D6152
:1009C0007400457870656374656420636F6D6D6154
:1009D0006E64206C6574746572006572726F723A31
:1009E00020006F6B0D0A000011241FBECFEFD1E273
:1009F000DEBFCDBF00E00CBF27E0A0E0B2E001C049
:100A00001D92AE3CB207E1F70E940A050C94C23A6F
:100A10000C9400000E9419150E94C8240E94A11A7B
:100A20000E94E7338EE1E7E2F6E0DF011D928A954E
:100A3000E9F781E08093270678949091BD0794FDB3
:100A4000809328060E94EF150E94BA090E9448145C
:100A50000E94E9140E94042B0E94FC2E0E943E2654
:100A60000E94751A0E94D4290E94CC091092270670
:100A700010924506109247061092290610922A06F7
:100A80000E942317DFCFEF92FF921F93CF93DF9344
:100A900000D01F92CDB7DEB77C01122F8091BD0729
:100AA00085FF0BC0C70149835A836B837C830E94F7
:100AB0005F2D7C816B815A8149818091280682302B
:100AC00031F149835A836B837C830E94F4158091B2
:100AD000270681111CC00E948D2649815A816B8195
:100AE0007C81882339F00E941A1749815A816B81D1
:100AF0007C81E7CF212FC7010F900F900F900F90AF
:100B0000DF91CF911F91FF90EF900C9495260F905D
:100B10000F900F900F90DF91CF911F91FF90EF906A
:100B200008952F923F924F925F926F927F928F9291
:100B30009F92AF92BF92CF92DF92EF92FF920F936C
:100B40001F93CF93DF93CDB7DEB7E3970FB6F8943B
:100B5000DEBF0FBECDBF988B8F871B013A0109877F
:100B60001A872B873C87C98ADA8AEB8AFC8AAF8A84
:100B70002A960FAD2A972B962FAD2B972D872C9663
:100B80003FAD2C973D8BA4E08A9EC00111249A832F
:100B90008983EF85F889E80FF91FF98FE88F840FB3
:100BA000951F9B8F8A8FDC018D909D90AD90BC909E
:100BB0002081318142815381C501B4010E941236E6
:100BC0006C8F7D8F8E8F9F8FB4E00B9F80011124DF
:100BD000EF85F889E00FF11FF9A3E8A39301200F37
:100BE000311F3BA32AA3D901CD90DD90ED90FC905D
:100BF0002081318142815381C701B6010E941236A2
:100C00006CA37DA38EA39FA32401350177FA709472
:100C100077F87094D701C601B0588D839E83AF8357
:100C2000B887E981FA81E20DF31D2C8D3D8D4E8D43
:100C30005F8D60817181828193810E9411366B0189
:100C40007C01F101E00FF11F2CA13DA14EA15FA19C
:100C500060817181828193810E9411364B015C0118
:100C6000A7019601C301B2010E94693969837A83A1
:100C70008B839C83A50194016D817E818F819885F2
:100C80000E9469399B01AC0169817A818B819C81C9
:100C90000E94123669837A838B839C83A501940119
:100CA000C301B2010E9469394B015C01A7019601A1
:100CB0006D817E818F8198850E9469399B01AC018D
:100CC000C501B4010E94113629813A814B815C81B2
:100CD0000E9491366B017C019D89992399F02DEB3F
:100CE00037E346E055EBC701B6010E94293987FD7D
:100CF0001DC02BED3FE049EC50E4C701B6010E9456
:100D0000113612C02DEB37E346E055E3C701B601BB
:100D10000E940737181654F02BED3FE049EC50E4E1
:100D2000C701B6010E9412366B017C018090B907A1
:100D30009090BA07A090BB07B090BC0729853A8570
:100D40004B855C85CA01B9010E941236A501940148
:100D50000E9411369B01AC01C501B4010E946939A2
:100D60000E94083A4B015C0120E030E040E05FE384
:100D7000C701B6010E94693929853A854B855C8592
:100D80000E9469399F77A50194010E9411370E9442
:100D9000F6370E948A377E8B6D8BDB01AB2B09F413
:100DA00077C14B01A12CB12CBF89BB2381F0C501B8
:100DB000B4010E94B9379B01AC0169897A898B899A
:100DC0009C890E946939698B7A8B8B8B9C8BC501BE
:100DD000B4010E94B9374B015C019B01AC01C70112
:100DE000B6010E94113769877A878B879C87FD85BA
:100DF000E4E0FE9FC00111242F853889280F391F98
:100E00003E872D87F101E80FF91FD9012D913D9102
:100E10004D915C9160817181828193810E94113634
:100E2000A50194010E94113768AB79AB8AAB9BABEB
:100E300029853A854B855C85CA01B9010E946939CB
:100E40009B01AC0160E070E080E090E40E9411360C
:100E50006B017C012BEA3AEA4AE25EE369857A8516
:100E60008B859C850E9469394B015C0120E030E054
:100E700040E850E4C701B6010E9412369B01AC0164
:100E8000C501B4010E94693968A779A78AA79BA701
:100E900020E030E040E05FE3C701B6010E9469391D
:100EA0006CA77DA78EA79FA7198201E010E0ED89AE
:100EB000FE890E171F0709F4EBC0B981BC3008F09A
:100EC00040C02CA53DA54EA55FA56D817E818F817B
:100ED00098850E9469396B017C0128A539A54AA52E
:100EE0005BA5C301B2010E946939A70196010E9466
:100EF00012366B017C012CA53DA54EA55FA5C30153
:100F0000B2010E9469394B015C0128A539A54AA5A7
:100F10005BA56D817E818F8198850E9469399B01D7
:100F2000AC01C501B4010E9411362B013C01E981DD
:100F3000EF5FE983C601D7018D839E83AF83B887B6
:100F400065C0B80180E090E00E94B93729853A85F4
:100F50004B855C850E9469396B017C010E940C37CE
:100F60006D837E838F839887C701B6010E94FA390B
:100F70004B015C01AA8DBB8DCD90DD90ED90FC9076
:100F8000F7FAF094F7F8F094AAA1BBA18D919D9186
:100F90000D90BC91A02D89839A83AB83BC832D8156
:100FA0003E814F815885C701B6010E9469392B01E6
:100FB0003C01A501940169817A818B819C810E9409
:100FC00069399B01AC01C301B2010E9412362B01A9
:100FD0003C01A5019401C701B6010E9469396B016A
:100FE0007C012D813E814F81588569817A818B8179
:100FF0009C810E9469399B01AC01C701B6010E9426
:1010000011366D837E838F8398871982A3019201A5
:101010006C8D7D8D8E8D9F8D0E941236E88DF98DA1
:1010200060837183828393832D813E814F815885B4
:101030006CA17DA18EA19FA10E941236A8A1B9A189
:101040006D937D938D939C93139728A939A94AA9F1
:101050005BA9ED85FE8560817181828193810E940B
:101060001236AD85BE856D937D938D939C931397BA
:101070002F8949895A896B897C898F8598890E9433
:10108000430580912706811123C00F5F1F4F0FCFAB
:101090002F8949895A896B897C89C101E3960FB6EA
:1010A000F894DEBF0FBECDBFDF91CF911F910F919E
:1010B000FF90EF90DF90CF90BF90AF909F908F9078
:1010C0007F906F905F904F903F902F900C944305CE
:1010D000E3960FB6F894DEBF0FBECDBFDF91CF9180
:1010E0001F910F91FF90EF90DF90CF90BF90AF9046
:1010F0009F908F907F906F905F904F903F902F9038
:1011000008958F929F92AF92BF92CF92DF92EF920B
:10111000FF9220912806223009F448C04B015C015F
:1011200020E030E040EA51E40E9469390E94F6373D
:101130000E948A376B017C010E94A71720E030E0F3
:101140004AE754E4C501B4010E9469394B015C01CE
:1011500022E32C9DC0012D9D900D1124BC0180E047
:1011600090E00E94B9379B01AC01C501B4010E9417
:1011700011360E94F6370E948A37CB010E94C82A96
:10118000C114D10499F00E94F41521E0C21AD108CB
:101190008091270681110AC08FEF90E722E08150ED
:1011A00090402040E1F700C00000EACFFF90EF90B0
:1011B000DF90CF90BF90AF909F908F9008950E9446
:1011C000F92A84E00E94842B83E00E94842B0E94F1
:1011D000F41580912706811104C00E94CC090C945B
:1011E000042B0895CF92DF92EF920F931F93CF932A
:1011F000DF9300D01F92CDB7DEB7FC0180912806A7
:10120000823009F480C0122F6F0149835A836B83A7
:101210007C830E94A71710924306802F0E94072FFD
:101220000E94182F49815A816B817C81882391F01B
:101230009FB7F894809147068061809347069FBFCF
:1012400049835A836B837C830E94F4157C816B8174
:101250005A81498180912706811155C0212FC601ED
:101260000E94430581E0809346069FB7F8948091E1
:1012700045068260809345069FBF0E94F4158091C9
:101280002706811140C0809128068111F6CF8091F8
:1012900046068130A9F4EE2051F08CE0EBE2F6E056
:1012A000A7E3B6E001900D928A95E1F70CC09FB7D5
:1012B000F894809147068061809347069FBF03C0E2
:1012C00081E080934306109246060E94F4158091B7
:1012D0002706811118C00E94751A0E943E260E949E
:1012E000D4296BE276E0C6010E94F6350F900F908C
:1012F0000F900F90DF91CF911F910F91EF90DF90A2
:10130000CF900C9452310F900F900F900F90DF916F
:10131000CF911F910F91EF90DF90CF900895809122
:10132000450684FD26C09FB7F894809145068061EC
:10133000809345069FBF0E943D140E94E314809154
:101340002806982F9C7021F490912906913089F4F9
:101350009FB7843029F4F89480914706806204C0D6
:10136000F894809147068860809347069FBF0C944D
:10137000D81708958FE3E8E4F6E0DF011D928A951F
:10138000E9F76BE676E080E00E948F23811103C0CD
:1013900087E00C94832F08956BE276E08FE596E06A
:1013A0000C94F6352F923F924F925F926F927F92FC
:1013B0008F929F92AF92BF92CF92DF92EF92FF9265
:1013C0000F931F93CF93DF93CDB7DEB7AA970FB6D6
:1013D000F894DEBF0FBECDBF6C0189E3E7E8F6E00D
:1013E000DF011D928A95E9F78AE0E8E4F6E0A8E8D3
:1013F000B6E001900D928A95E1F71D8E212C312CDB
:10140000812C912C18A2F12C1E8EAA24A394B12C0D
:10141000EE24E3948D8DF601E80FF11D0081002389
:1014200009F46CC29FEB900F9A3110F00C94B31337
:101430008F5F8D8FAE01475E5F4FBE01635E7F4F52
:10144000C6010E94082A882311F40C94B513498C14
:101450005A8C6B8C7C8CC301B2010E944C3A0E9466
:101460008A37162F70E080E090E00E94BB379B0126
:10147000AC01C301B2010E94113620E030E048EC1B
:1014800052E40E9469390E94D6390E948A37073493
:1014900021F00D3409F42FC173C1183209F400C1D1
:1014A000E8F4143160F4113108F0A5C0143009F4E7
:1014B0004AC008F45AC01A30D1F10C94C1131C313F
:1014C000B1F128F4163108F4C5C00C94C1131E31D3
:1014D00071F1163209F449C00C94C1131D3309F49B
:1014E000D9C0A0F41533E1F140F41B3209F4BBC0BC
:1014F000113309F4B8C00C94C1131C3310F00C94D0
:10150000C113165310938E0689E0CDC01C3540F4EC
:101510001A3508F07FC0103509F469C00C94C11366
:101520001C3529F01F3508F48CC00C94C1136115CB
:10153000710511F00C94D113BE8DBB2311F40C94E2
:10154000DE130C94B713E09287060DC01F3110F420
:101550000C94F413153311F00C940114B1E0BE8F08
:10156000E7E0E093870680E09EC08E8D81110C94A9
:10157000B71392E09E8F123089F028F4112359F0AE
:10158000113081F08FC0163281F0103581F11330A7
:1015900009F088C007C01092880684C0AE8DA09361
:1015A000880680C0109388067DC06E317105B1F049
:1015B00048F46431710511F00C94C113B4E0B09398
:1015C000880613C06832710569F06233710511F045
:1015D0000C94C11327E02093880607C0E5E0E09350
:1015E000880603C0F6E0F093880681E074C038E016
:1015F0003093880657C0123129F0133139F0109218
:101600008C0602C0E0928C0682E04DC082E080939E
:101610008C0649C06115710549F41A3519F4109208
:101620008B0602C0E0928B0683E055C06A307105DC
:1016300011F00C94C1131A3511F40C94C11384E009
:101640004AC01D3519F4E092890602C0109289063D
:1016500085E029C0143119F4E0928A0602C0109284
:101660008A0686E020C08E8D81110C94B713113349
:1016700031F410928D0688E093E09E8F2CC06A3082
:10168000710511F00C94C113E0928D0688E0A3E07F
:10169000AE8F21C0672B11F00C94C1138AE01BC0E0
:1016A00087E001C081E0672BB1F00C94DA131C31A4
:1016B00011F00C941B14F1E0FE8F6115710511F40B
:1016C0000C94FF136A30710511F00C94C11334E0CF
:1016D0003093870680E0F50102C0EE0FFF1F8A9568
:1016E000E2F7CF019F0128213921232B09F445C0BE
:1016F00085E10C942414672B11F00C94DA13163046
:1017000018F4133058F017C0183010F40C94C113AB
:101710001A3000F11E3159F00C94C113123039F017
:101720001E3129F0111120C0E0928F061DC082E009
:1017300080938F0619C0143029F0153039F0E092EB
:10174000910606C082E08093910602C01092910635
:101750008CE00BC0193021F082E08093900602C02B
:10176000109290068DE001C08BE0950102C0220F1F
:10177000331F8A95E2F7C901B6CF882A992A4ACE43
:10178000802F000F990BAA0BBB0BFC01E654F1094B
:10179000E531F10510F00C94C1138827EE58FF4F86
:1017A0008F4F0C94A03A409292065092930660920A
:1017B00094067092950680E07FC040929606509203
:1017C0009706609298067092990638A1316038A306
:1017D00081E072C040929A0650929B0660929C06ED
:1017E00070929D0688A1826088A382E065C04092C5
:1017F0009E0650929F066092A0067092A10698A144
:10180000946098A383E058C01093A20684E054C06B
:10181000C301B2010E9483376093A3067093A406AC
:101820008093A5069093A60685E046C04092A70641
:101830005092A8066092A9067092AA0686E03CC063
:101840004092AB065092AC066092AD067092AE0626
:1018500087E032C04092AF065092B0066092B10667
:101860007092B20688E028C04092B4065092B50645
:101870006092B6067092B706AF2DA160FA2E8AE08C
:101880001BC04092B8065092B9066092BA06709298
:10189000BB06BF2DB260FB2E8BE00EC04092BC0693
:1018A0005092BD066092BE067092BF06EF2DE460B6
:1018B000FE2E8CE001C089E08501082E02C0000FD9
:1018C000111F0A94E2F7980122213321232B09F0FA
:1018D00050C721E633E002C0359527958A95E2F797
:1018E00020FF09C020E030E0A901C301B2010E943D
:1018F000073787FD40C7202A312A8CCDFF2029F0E9
:101900003E8D311102C082E08E8F25FE0EC0809187
:10191000A3069091A406A091A506B091A6068038D2
:101920009649A849B1050CF028C7809189068130F5
:1019300031F4FE8DF230A1F520FE29C731C080912F
:10194000490681112DC020FE1BC080918A0681307E
:1019500039F523E333E34BEC51E460919206709147
:10196000930680919406909195060E946939609340
:10197000920670939306809394069093950610C0F8
:101980008091560690915706A0915806B09159063D
:101990008093920690939306A0939406B093950635
:1019A00030FC10C08091520690915306A0915406CD
:1019B000B09155068093AF069093B006A093B10600
:1019C000B093B20680918706813031F426FC02C0C4
:1019D0008CE13AC7E89426F880918C06882371F050
:1019E000813031F421E028A71FA232E03EA30BC0D2
:1019F00018A682E08FA391E09EA305C0A2E0A8A74D
:101A0000B1E0BFA31EA280918A06813021F0EE8D45
:101A1000E33091F52AC0E4EBCE2EE6E0DE2E00E0C6
:101A200010E0AF2CB12CC501002E02C09595879512
:101A30000A94E2F780FF10C023E333E34BEC51E458
:101A4000D6016D917D918D919C910E946939F6012D
:101A500060837183828393830F5F1F4FF4E0CF0E07
:101A6000D11C03301105F9F6D2CF80918D0681305B
:101A700019F424E0F21283C68CE0EBE6F6E0DE0116
:101A80001D9601900D928A95E1F791FC09C0309165
:101A900087063F8F3230B9F0383009F4AEC00EC13E
:101AA00080918E06873010F08DE1CEC690914E0663
:101AB000981769F3BE01635F7F4F0E948F238823CD
:101AC00009F46DC6E4CFF11002C08AE1BDC6C101C0
:101AD00080759927892B09F47BCF6091A7067091B7
:101AE000A8068091A9069091AA060E944C3A0E94ED
:101AF0008A376730C8F68091A206843129F0823097
:101B000009F03FC627FC3DC68FEA2822662319F05C
:101B100061506F8F03C090918E069F8FBE016F5FE3
:101B20007F4F8F8D0E948F23882309F438C6E09061
:101B3000A2064090830650908406609085067090BF
:101B400086068E010F5F1F4FA12CB12CC12CD12C0A
:101B50008F2C912CC4010C2C02C0959587950A946A
:101B6000E2F780FF3CC0D501A957B94FBDA3ACA394
:101B7000B4E1EB1229C0F501E85BF94F27A530A9C4
:101B800041A952A96789708D818D928D0E9411366D
:101B9000ECA1FDA125A536A547A550A90E941136A7
:101BA000D8016D937D938D939C931397B2E0CB16E0
:101BB000D104A9F4A30192010E941136F8016083B7
:101BC0007183828393830BC0ECA1FDA185A596A5AB
:101BD000A7A5B0A9F80180839183A283B383FFEF07
:101BE000CF1ADF0A0C5F1F4F24E0A20EB11C33E0B6
:101BF000C316D10409F0AECF12C1FF2009F465CF9E
:101C0000409083065090840660908506709086060A
:101C100004EB16E0A12CB12CC12CD12C8F2C912CD3
:101C2000F501E85BF94FC4010C2C02C0959587952E
:101C30000A94E2F780FF2BC0ADE0B0E0AC0FBD1F0F
:101C4000AA0DBB1D2D913D914D915C916789708DC1
:101C5000818D928D0E941136D8012D913D914D912B
:101C60005C910E941136F8016083718382839383B3
:101C7000F2E0CF16D104A1F4A30192010E94113623
:101C8000D8016D937D938D939C93139709C087A57D
:101C900090A9A1A9B2A9F80180839183A283B383FB
:101CA000FFEFCF1ADF0A0C5F1F4F24E0A20EB11C1A
:101CB00033E0C316D10409F0B3CFB0C08E8D8330AA
:101CC00059F49F8D953009F491C0973009F4A1C063
:101CD000933009F0A3C082C0FF2009F494C0E090C3
:101CE0008B06409083065090840660908506709025
:101CF00086067FE5A72E76E0B72E04EB16E04E01B0
:101D0000ADE08A0E911CC12CD12CEF2DF0E0FDA38B
:101D1000ECA38CA19DA10C2C02C0959587950A94EB
:101D2000E2F780FD0BC0F50180819181A281B38132
:101D3000F80180839183A283B3833FC0FF8DF73086
:101D4000E1F1E11029C0D50158962D913D914D91B9
:101D50005C915B97F40160817181828193810E9423
:101D60001236D8012D913D914D915C910E94123611
:101D7000F8016083718382839383F2E0CF16D104EC
:101D8000E1F4A30192010E941236D8016D937D9374
:101D90008D939C93139711C0F5012081318142816D
:101DA0005381D8016D917D918D919C910E94123645
:101DB000F8016083718382839383FFEFCF1ADF0A78
:101DC00024E0A20EB11C0C5F1F4F34E0830E911C67
:101DD00083E0C816D10409F09CCF73CFF11001C085
:101DE0001E8EBE016F5F7F4F86E007C0F11001C0FD
:101DF0001E8EBE016F5F7F4F87E00E948F23882376
:101E000009F4CDC40BC0AF8DA53091F3A73009F014
:101E100017C580918806823008F0B5C41F8E1091D6
:101E20008806183041F4FF2009F4B5C19E8D913029
:101E300009F0ABC48EC2AE8DA23009F0ACC1112343
:101E4000D9F020E030E0A9016091920670919306EC
:101E500080919406909195060E940737882309F493
:101E600096C4143028F4123058F4113029F071C29D
:101E7000183008F44FC16DC2FF2009F48FC169C248
:101E8000FF2009F422CEFEA1EF2FF0E0FDA3ECA38A
:101E90003FA1232F30E03AA729A781E090E08C01F1
:101EA0000FA002C0000F111F0A94E2F70EA002C09B
:101EB000880F991F0A94E2F7082B192B8F2D90E0B9
:101EC00080239123892B09F464C4CF01880F991FC3
:101ED000880F991FFC01E957F94FDC01A85BB94F46
:101EE00057962D913D914D915C915A9765A576A598
:101EF00087A590A90E9411366B017C0189A59AA53E
:101F0000880F991F880F991FFC01E957F94FDC01D1
:101F1000A85BB94F57962D913D914D915C915A9781
:101F200065A576A587A590A90E9411364B015C0195
:101F300027FE40C0E89427F82091B4063091B506FA
:101F40004091B6065091B70660915F0670916006A9
:101F500080916106909162060E940737811123C12A
:101F60002091B8063091B9064091BA065091BB064F
:101F70006091630670916406809165069091660693
:101F80000E94073781110FC12091BC063091BD0618
:101F90004091BE065091BF06609167067091680639
:101FA0008091690690916A060E9407378111FBC0F3
:101FB00081E24AC4F8A14F2E512C04211521012B96
:101FC00009F4E9C321EF222280918A06813009F4C5
:101FD0005AC009A51AA5000F111F000F111F0557A0
:101FE000194FD8011B962D913D914D915C911E97F3
:101FF000C501B4010E9411362B013C018CA19DA1A9
:10200000880F991F880F991FFC01E557F94F5F0151
:102010002385348545855685C701B6010E94113652
:10202000A30192010E94D32A6B017C01D8011B9667
:102030002D913D914D915C911E97F50163857485BD
:10204000858596850E94D32A4B015C016093AB067F
:102050007093AC068093AD069093AE069B01AC01E5
:10206000C701B6010E9411366B017C01E894F7F8B4
:102070002AE037ED43EA5BE3C701B6010E94293944
:1020800018165CF166C187E8682E86E0782E00E0BD
:1020900010E0C201002E02C0959587950A94E2F7E0
:1020A00080FF12C023E333E34BEC51E4D3011F96CE
:1020B0006D917D918D919C9152970E946939F301A8
:1020C0006787708B818B928B0F5F1F4FF4E06F0ED1
:1020D000711C03301105E9F67CCF20E030E040E0D0
:1020E0005FE3C701B6010E94293918160CF460CFCE
:1020F0002FE632E143E85AE3C501B4010E94693991
:102100009B01AC01C701B6010E94293918160CF4D5
:102110004FCF1FC1FF2009F4D8CC2091B4063091D5
:10212000B5064091B6065091B70660915F06709172
:10213000600680916106909162060E9407378111C6
:1021400008C12091B8063091B9064091BA06509165
:10215000BB0660916306709164068091650690915C
:1021600066060E9407378111F4C02091BC063091A9
:10217000BD064091BE065091BF0660916706709102
:1021800068068091690690916A060E940737882345
:1021900009F40ECFDEC02E8D2111DBC0C1018E7D72
:1021A0009C7F1E8ED9C080918A068130B1F423E3D2
:1021B00033E34BEC51E46091AB067091AC06809137
:1021C000AD069091AE060E9469396093AB0670939C
:1021D000AC068093AD069093AE064090AB0650904F
:1021E000AC066090AD067090AE0620E030E040E8AE
:1021F00050E4C301B2010E946939A30192010E9417
:1022000069392B013C01A7019601C701B6010E9463
:1022100069399B01AC01C301B2010E9411362B0147
:102220003C01A5019401C501B4010E9469399B01DB
:10223000AC01C301B2010E9411362B013C0120E028
:1022400030E0A9010E94073787FDB6C2C301B20181
:102250000E94083A2B013C01A5019401C701B60177
:102260000E94D32A9B01AC01C301B20190580E9485
:1022700011372B013C0180918806833021F477FAD5
:10228000709477F870948091AB069091AC06A09111
:10229000AD06B091AE0688A399A3AAA3BBA320E084
:1022A00030E0A901BC01CD010E94073787FF11C0B2
:1022B00077FA709477F8709488A199A1AAA1BBA12C
:1022C000B0588093AB069093AC06A093AD06B09344
:1022D000AE060CA11DA1000F111F000F111F055705
:1022E000194FA3019201C501B4010E9469399B01F4
:1022F000AC01C701B6010E94113620E030E040E099
:102300005FE30E946939D8011B966D937D938D938D
:102310009C931E9709A51AA5000F111F000F111FEE
:102320000557194FA3019201C701B6010E946939EF
:102330009B01AC01C501B4010E94123620E030E0DF
:1023400040E05FE30E946939F801638774878587FD
:102350009687C1018E7D907E892B09F01EC28091E7
:10236000A3069091A406A091A506B091A60680931D
:102370005B0690935C06A0935D06B0935E06809129
:102380008906809349068091920690919306A091C8
:102390009406B09195068093560690935706A093A5
:1023A0005806B0935906C090AF06D090B006E090A2
:1023B000B106F090B206A7019601609152067091A5
:1023C000530680915406909155060E940737882342
:1023D000C1F080915106882321F0B701A6010E9427
:1023E000BB148091AF069091B006A091B106B09158
:1023F000B2068093520690935306A0935406B0936E
:1024000055068091B30680935A068091910690916B
:102410005106981771F04091520650915306609101
:102420005406709155060E94BB14809191068093CA
:1024300051068091900690915006981731F00E94B5
:10244000FA1480919006809350068091870681301F
:1024500051F46091A7067091A8068091A906909109
:10246000AA060E94810880918C0680934C06809178
:102470008A0680934A063E8D3330F9F480918D06AA
:1024800080934D06813089F48091BC069091BD0601
:10249000A091BE06B091BF068093830690938406F8
:1024A000A0938506B093860608C01092830610920A
:1024B0008406109285061092860680918E06909171
:1024C0004E06981759F080934E068CE0FE013D961B
:1024D000ABE6B6E001900D928A95E1F780918B060C
:1024E00080934B06E09187068E2F90E0FC01329797
:1024F000E830F10508F04DC08827E957FF4F8F4FAE
:102500000C94A03ABE016F5F7F4F8F8D0E944322D3
:1025100080914E069F8D89133CC08CE0FE01319660
:10252000ABE6B6E01AC0AE8DAA2349F020E040E049
:1025300050E060E87FEB84EB96E00E94430520E0EA
:1025400040E050E060E87FEBCE0101960E94430539
:102550008CE0FE013196AFE5B6E001900D928A95D0
:10256000E1F717C06FE576E086E003C06FE576E03F
:1025700087E00E9443220DC08CE0E4EBF6E0A7E781
:10258000B6E0EBCF8CE0E7E7F6E0DF011D928A953D
:10259000E9F78091880680934806883009F49AC04C
:1025A000BE8DB23009F096C090E08830910508F0F9
:1025B00088C0FC018827E157FF4F8F4F0C94A03A49
:1025C00020E040E050E060E87FEB0AC04091560612
:1025D000509157066091580670915906209149060E
:1025E00084EB96E00E9443056CC0C0905606D090E4
:1025F0005706E0905806F09059060091AB061091EE
:10260000AC062091AD063091AE0681E08F93E8A52F
:10261000EF93FFA1FF9315C0C0905606D0905706C8
:10262000E0905806F09059060091AB061091AC0668
:102630002091AD063091AE061F9288A58F939FA181
:102640009F938EA0A090490646E956E064EB76E0A1
:102650008FE596E00E9491050F900F900F9031C08A
:102660004091560650915706609158067091590650
:10267000E12C0AC0409156065091570660915806C9
:1026800070915906EE24E39400E015C0409156067F
:10269000509157066091580670915906E12C0AC076
:1026A0004091560650915706609158067091590610
:1026B000EE24E39401E02091490684EB96E00E9429
:1026C000F2088CE0E4EBF6E0AFE5B6E001900D92A5
:1026D0008A95E1F780918F0680934F06882309F44D
:1026E000B3C00E94A71790914F06809128069130A1
:1026F00069F48230A1F19FB7F89480914506886013
:10270000809345069FBF0E94F41529C091E09093E5
:10271000480610924C0610924B06109249061092F1
:102720004E0610925106109250068230A9F0BE015A
:10273000635F7F4F80E00E948F23882381F18CE0CC
:10274000FE013D96ABE6B6E001900D928A95E1F769
:102750000E943D140E94E31487E00E94B52F10925E
:102760004F0680E071C081E06FC082E06DC088E1FB
:102770006BC089E169C084E067C08BE165C085E218
:1027800063C084E161C08EE15FC08FE15DC086E11E
:102790005BC080E259C083E257C084E255C087E045
:1027A00053C01E3189F0C8F51A3021F11C3111F4E3
:1027B0000C945D0B87E148C082E246C01E3111F0E7
:1027C0000C94A60A81E08E8F6115710541F06A3084
:1027D0007105B9F6A6E0A09387060C946A0B95E004
:1027E000909387060C946A0B1A3011F00C94570BD7
:1027F000E1E0EE8F82E0809387060C94B30A23E039
:1028000008C01C35C1F4F1E0FE8F6115710561F45B
:1028100028E0209387060C946A0B153311F40C946E
:10282000B00A1C3591F3C6CF6A30710509F0A9CF03
:1028300039E00C94680B80E0B1E0BE8F0C946B0B18
:10284000A33009F0EBCACCCAAA960FB6F894DEBF43
:102850000FBECDBFDF91CF911F910F91FF90EF90F1
:10286000DF90CF90BF90AF909F908F907F906F90B0
:102870005F904F903F902F900895E0EAF0E08081C4
:102880008F7D8083E2E0F1E08081877F80830895FF
:10289000E1E0F1E0808180618083808188608083D5
:1028A0006B9A0C943D14CF92DF92EF92FF926A01E3
:1028B0007B01811106C0FF90EF90DF90CF900C94C8
:1028C0003D14813011F4739801C0739A83E28093B0
:1028D000A0008091A100807E8A618093A1008FEF8B
:1028E0009FEF9093A9008093A80020E030E0A90119
:1028F000C701B6010E9407371816ECF620E030E059
:10290000A901C701B6010E94073787FD11C020E069
:1029100030E04AE754E4C701B6010E94293918168D
:1029200054F4C12CD12C8AE7E82E84E4F82E03C09D
:10293000C12CD12C76012CEE31E143E852E4C701E1
:10294000B6010E94693920E030E040E05FE30E9478
:1029500012360E94F6370E948A377093AB0060935C
:10296000AA0080910201886080930201FF90EF909D
:10297000DF90CF900895CF93DF9300D01F921F92E6
:10298000CDB7DEB7909128069230A9F04A835B83D9
:102990006C837D8389830E94A7174A815B816C8148
:1029A0007D8189810F900F900F900F900F90DF9194
:1029B000CF910C9453140F900F900F900F900F9095
:1029C000DF91CF910895E2E0F1E080818F7D8083F7
:1029D0000895E1E0F1E08081806280830C94E3144B
:1029E000823031F480910201806280930201089567
:1029F0000C94E314CF93DF931F92CDB7DEB7909181
:102A00002806923049F089830E94A71789810F9088
:102A1000DF91CF910C94F0140F90DF91CF91089536
:102A20009091020280910302891708F48058891B53
:102A30000895E0ECF0E08081826080831092C50010
:102A400080E18093C400E1ECF0E0808180618083CC
:102A50008081886080838081806880830895E09190
:102A6000010291E09E0F903431F490E004C0209177
:102A7000450624FD0FC0209100029217C1F3F0E03B
:102A8000E054F94F8083909301028091C1008062ED
:102A90008093C10008951F920F920FB60F921124D8
:102AA0000BB60F928F939F93EF93FF938091000249
:102AB000E82FF0E0E054F94F90819093C6008F5FCB
:102AC000803409F480E08093000290910102891320
:102AD00005C08091C1008F7D8093C100FF91EF916F
:102AE0009F918F910F900BBE0F900FBE0F901F9074
:102AF00018959091020280910302891761F0E92FE5
:102B0000F0E0E050F94F80819F5F903809F490E049
:102B10009093020208958FEF08951F920F920FB6BF
:102B20000F9211240BB60F922F933F934F935F9305
:102B30006F937F938F939F93AF93BF93EF93FF9385
:102B40008091C6008F33A9F050F4883109F18132A9
:102B500011F59FB7F89480914506886015C08034C0
:102B600071F08E37C1F49FB7F8948091450682606A
:102B70000BC09FB7F89480914506816005C09FB750
:102B8000F894809145068062809345069FBF14C0EB
:102B90000E948F0911C0E091030291E09E0F9038CE
:102BA00009F490E020910202921731F0F0E0E05039
:102BB000F94F808390930302FF91EF91BF91AF9102
:102BC0009F918F917F916F915F914F913F912F9145
:102BD0000F900BBE0F900FBE0F901F901895809115
:102BE0000302809302020895EF92FF920F931F93C6
:102BF000CF93DF93D1E008E080E2F82E10E190E47B
:102C0000E92EC0914706CC2389F1D0932806C1FF55
:102C100002C081E00FC0C2FF02C082E00BC0C3FF50
:102C200002C083E007C0C4FF02C084E003C0C5FF48
:102C300003C085E00E948B2FC0FD08C08FB7F894B9
:102C400090914706109247068FBF10C081E00E9406
:102C5000B52F9FB7F894809145068F7E80934506E7
:102C60009FBF8091450684FFFCCFE8CFC091450609
:102C7000CC2309F4C0C0C4FF04C081E080932706C0
:102C8000D2C0C0FF0AC00E94E8329FB7F89480917A
:102C900045068E7F809345069FBF8C2F887609F46A
:102CA0003CC080912806882349F0982F9C7769F1D1
:102CB000883021F40E94C31AD093290680912806F7
:102CC000811103C092E090932906C6FF09C08830A5
:102CD00011F4E092280680912906886080932906E5
:102CE000C3FF05C08091280685FF10932806C5FF05
:102CF0000CC086E00E94B52F8091290681FDC4603A
:102D0000846080932906F09228069FB7F8948091FA
:102D100045068779809345069FBFC1FF48C08C2F29
:102D20008876E9F580912806882331F08075B9F11D
:102D30008091290681FF33C08091290682FF1CC043
:102D400080915106882371F04091520650915306AC
:102D500060915406709155060E94531480EA9FE0DA
:102D60000E94C82A80915006882331F00E94F014F6
:102D700088EE93E00E94C82A0E946326892B59F0AE
:102D80008091290683FD07C0009328060E94E51A5A
:102D90000E94B81702C010922806109229069FB709
:102DA000F894809145068D7F809345069FBFC2FFB2
:102DB00022C080912806807391F080912A068111AB
:102DC0000EC08091290682FF04C00E943D140E941B
:102DD000E3148091290682608093290604C0109232
:102DE0002906109228069FB7F894809145068B7F9C
:102DF000809345069FBF809128068C7711F00E9432
:102E0000E51A80912806803251F48091290681FFCD
:102E100006C00E943934811102C0109328068091A7
:102E200029068111EECEDF91CF911F910F91FF9076
:102E3000EF9008959FB7F894809145068260809343
:102E400045069FBF0895CF93DF930E94E62F8091A0
:102E50002806813021F482E00E94B52F2FC00E9405
:102E60003934882341F0809145068062809345067D
:102E70000E94F41502C01092280684E092E00E949D
:102E80003B341CC08D3079F0DD2399F1893221F477
:102E9000D13009F04EC0D0E00E9479158F3F09F47F
:102EA0004AC08A3079F7EC2FF0E0EC5FFD4F1082DA
:102EB0000E94F41580912706882311F0C0E0EBCF23
:102EC00080910402811103C00E94832FF7CF8432C6
:102ED00029F484E092E00E945B34F6CF80912806CA
:102EE000813011F489E0F0CF84E092E00E94D209B1
:102EF000EBCF813288F28F3279F28832C1F08B3396
:102F0000C1F0CF3428F08BE00E94832FC0E0C4CF03
:102F10002C2F30E0E1E0EC0F9FE9980FD901AC5F76
:102F2000BD4F9A3108F480528C93CE2FB5CFD1E0AB
:102F3000B3CFD2E0B1CF0E941A170E94F41580914E
:102F40002706882309F4A8CFDF91CF9108950E9426
:102F50001A170E94F41580912706811108C00E945B
:102F60006326892BB1F780912806883091F3089564
:102F70008091BD0782FF02C02F9A01C02F988091D7
:102F800028068C70A1F08091840280939802809131
:102F90008502809397028091B007880F84508195B5
:102FA0008093960280916F00826080936F000895F5
:102FB00080916F008D7F80936F0080918100887F6A
:102FC000816080938100109283028091B3078F3FCC
:102FD00021F490914706992349F090912806943066
:102FE00029F090E00E94C82A81E001C080E0909121
:102FF000BD0792FF02C091E08927882311F02F9A24
:1030000008952F9808951F920F920FB60F921124D2
:103010000BB60F922F933F934F935F936F937F93D2
:103020008F939F93AF93BF93EF93FF93809183020E
:103030008111F8C188B190919802907E8F71892B8F
:1030400088B982B1837E90919702892B82B9809151
:10305000960286BD82E085BD81E0809383027894EC
:103060008091AA029091AB02892B09F0ADC08091AA
:10307000880290918702981709F49BC0E09188021A
:103080002E2F30E086E0E89FF0011124E455FD4F3B
:10309000F093AB02E093AA0283819481909389001C
:1030A00080938800808191819093A6028093A502ED
:1030B000E2818091A7028E1761F1E093A70281E17E
:1030C000E89FF0011124E053FD4FF093A902E09333
:1030D000A80285859685A785B089B695A795979509
:1030E00087958093910290939202A0939302B0935C
:1030F000940280938D0290938E02A0938F02B093DE
:1031000090028093890290938A02A0938B02B093DD
:103110008C02E091A802F091A90290918402808132
:1031200089278093980286E0829FD001839FB00D0B
:103130001124A455BD4F15962C9181819281A381B4
:10314000B481022E04C0B695A795979587950A94E9
:10315000D2F78093990290939A02A0939B02B09326
:103160009C0285819681A781B085022E04C0B69508
:10317000A795979587950A94D2F780939D0290938F
:103180009E02A0939F02B093A00281859285A385A1
:10319000B48504C0B695A795979587952A95D2F7DB
:1031A0008093A1029093A202A093A302B093A402E1
:1031B0000BC00E94D8179FB7F89480914506846091
:1031C000809345069FBF2EC10E941F2F1092970229
:1031D0004091990250919A0260919B0270919C02D9
:1031E0008091890290918A02A0918B02B0918C0209
:1031F000840F951FA61FB71F8093890290938A02A0
:10320000A0938B02B0938C02E091A802F091A902E6
:103210004585568567857089481759076A077B0772
:1032200068F524E020939702458556856785708967
:10323000841B950BA60BB70B8093890290938A028F
:10324000A0938B02B0938C02208180912B069091E9
:103250002C06A0912D06B0912E0627FF04C00197E1
:10326000A109B10903C00196A11DB11D80932B06D0
:1032700090932C06A0932D06B0932E0640919D02AC
:1032800050919E0260919F027091A00280918D02E8
:1032900090918E02A0918F02B0919002840F951FA1
:1032A000A61FB71F80938D0290938E02A0938F026A
:1032B000B0939002458556856785708948175907F0
:1032C0006A077B0778F52091970228602093970280
:1032D0004585568567857089841B950BA60BB70BB2
:1032E00080938D0290938E02A0938F02B0939002F0
:1032F000208180912F0690913006A0913106B091E7
:10330000320626FF04C00197A109B10903C0019646
:10331000A11DB11D80932F0690933006A093310616
:10332000B09332064091A1025091A2026091A30293
:103330007091A4028091910290919202A0919302C7
:10334000B0919402840F951FA61FB71F809391021E
:1033500090939202A0939302B09394024585568570
:1033600067857089481759076A077B0778F52091A8
:10337000970220612093970245855685678570895D
:10338000841B950BA60BB70B80939102909392022E
:10339000A0939302B0939402208180913306909180
:1033A0003406A0913506B091360625FF04C001977A
:1033B000A109B10903C00196A11DB11D8093330677
:1033C00090933406A0933506B09336068091280674
:1033D000843039F490914406809197028923809338
:1033E00097028091A5029091A60201979093A60260
:1033F0008093A502892B69F41092AB021092AA0265
:10340000809188028F5F80938802863011F4109239
:103410008802909185028091970289278093970274
:1034200010928302FF91EF91BF91AF919F918F9185
:103430007F916F915F914F913F912F910F900BBEB4
:103440000F900FBE0F901F9018951F920F920FB6FE
:103450000F9211248F939F9382B1909185029C715A
:10346000837E892B82B915BC9F918F910F900FBEDF
:103470000F901F9018950F931F93CF93DF93109287
:10348000850210928402C0E0D0E01C2F0C2F209106
:10349000B10730E08C2F0C2E02C0359527950A9489
:1034A000E2F720FF07C00E94D52490918502892B66
:1034B000809385022091B20730E002C035952795B0
:1034C0000A95E2F720FF08C0812F0E94DF24909127
:1034D0008402892B809384022196C330D105A9F6FA
:1034E000DF91CF911F910F9108950E94D8178BE221
:1034F000E4E5F2E0DF011D928A95E9F783E2E9E86D
:10350000F2E0DF011D928A95E9F710928202109293
:103510008102109288021092870281E080938602D5
:10352000109283020E943B1A82B1837E90918502A1
:10353000892B82B988B18F7190918402892B88B9C7
:10354000089581B18C6181B9279A87B1806E87B95E
:10355000E1E8F0E080818F7E8083808188608083D5
:10356000E0E8F0E080818C7F808380818F708083B1
:10357000EEE6F0E08081887F808314BC15BC8081FA
:10358000816080830895CF93DF93C0918102D091B1
:1035900082022097B9F081E08093550260916B021E
:1035A00070916C0280916D0290916E029B01AC0152
:1035B0000E946939698B7A8B8B8B9C8B109282026B
:1035C00010928102DF91CF9108952F923F924F92F6
:1035D0005F926F927F928F929F92AF92BF92CF92A3
:1035E000DF92EF92FF920F931F93CF93DF93CDB7AC
:1035F000DEB7E8970FB6F894DEBF0FBECDBF80915F
:103600002806807709F4FBC020E030E0A901609132
:103610006B0270916C0280916D0290916E020E941B
:1036200007378111ECC057C62FA138A549A55AA567
:10363000B80188AD9FA90E94293918160CF448C515
:103640003D8530936602832D922DA981BD818093A3
:103650006B0290936C02A0936D02B0936E02809106
:103660005A0290915B02A0915C02B0915D028D873D
:103670009E87AF87B88B980148AD5FA9BC01CD018B
:103680000E94693969837A838B839C830E94F03618
:103690006B017C0160915602709157028091580233
:1036A000909159020E94F0364B015C01A7019601EE
:1036B0000E9411360E948A376D837E838F8398879C
:1036C00026E0A985BA852A9FF0012B9FF00D1124D1
:1036D000E455FD4F4D815E8151834083CA01892BA2
:1036E00009F41AC52091620230916302409164028C
:1036F00050916502C301B2010E9412362B013C01B8
:1037000029813A814B815C81C501B4010E94113647
:103710009B01AC01C301B2010E9411374B015C0156
:1037200029813A814B815C81C701B6010E94113623
:10373000A50194010E94693960936202709363024B
:10374000809364029093650220EC31EE44E65EE4DF
:10375000C501B4010E9469390E94F0360E948A377F
:10376000603DB7E07B078105910508F0FDC446E0A8
:1037700029853A85429FF001439FF00D1124E455BD
:10378000FD4F158246E029853A85429FF001439F0F
:10379000F00D1124E455FD4F7483638380918602FC
:1037A000809387028F5F863009F437C58093860245
:1037B00020916702309168024091690250916A023B
:1037C000B80188AD9FA90E94293918160CF028C5A8
:1037D000E0918102F0918202C801A8ADBFA985A342
:1037E00096A3A7A3B0A729813A814B815C8120933E
:1037F00056023093570240935802509359029091C9
:10380000880280918602981709F465C5809181022B
:1038100090918202892B09F069C20E9463261C01E3
:103820009093820280938102892B09F454C5809180
:10383000550210912806882319F010925502CEC027
:10384000809154028F5F853019F08093540202C03A
:1038500010925402E091540221E12E9FF0011124B4
:10386000E053FD4FF0938002E0937F02D1018C91F1
:10387000808311964D915D916D917C911497DB0140
:10388000CA0123E0880F991FAA1FBB1F2A95D1F7F1
:1038900081839283A383B483D10115964D915D9169
:1038A0006D917C911897DB01CA0133E0880F991F55
:1038B000AA1FBB1F3A95D1F785839683A783B0874C
:1038C000D10119964D915D916D917C911C97DB0111
:1038D000CA0143E0880F991FAA1FBB1F4A95D1F761
:1038E00081879287A387B487D1011D964D915D9101
:1038F0006D917C915097DB01CA0153E0880F991FAD
:10390000AA1FBB1F5A95D1F785879687A787B08BCB
:10391000F10165857685878590890E94B937609326
:103920005602709357028093580290935902D10126
:1039300095962D913D914D915C9198970E941137EC
:103940009B01AC0160935A0270935B0280935C020E
:1039500090935D0260E070E080EA9FE30E9411377F
:1039600060935E0270935F028093600290936102A5
:103970001092620210926302109264021092650229
:10398000812F8077D1F060917302709174028091E1
:1039900075029091760260936B0270936C02809333
:1039A0006D0290936E029B01AC010E946939F10196
:1039B000618B728B838B948B11C0D10151966D9169
:1039C0007D918D919C9154970E94083A60936B026F
:1039D00070936C0280936D0290936E021092670256
:1039E000109268021092690210926A02F10181A09D
:1039F00092A0A3A0B4A0A501940160E070E080E0D3
:103A00009FE30E9411372B013C011077D10195965D
:103A1000CD90DD90ED90FC909897112309F44DC066
:103A2000B2E0B0936602D10151962D913D914D9136
:103A30005C91549729833A834B835C830E94693954
:103A40009B01AC01C701B6010E9411362B013C015C
:103A500020E030E0A9010E94073787FF1DC0A501C3
:103A60009401C501B4010E941236A70196010E947B
:103A700069399B01AC0169817A818B819C810E94AB
:103A800011360E94083A6093730270937402809317
:103A90007502909376022AC14092670250926802A2
:103AA0006092690270926A0210927302109274021C
:103AB000109275021092760219C110926602C0929D
:103AC0007702D0927802E0927902F0927A020E9414
:103AD00073264B015C0160937302709374028093B0
:103AE0007502909376029B01AC010E9469396D8347
:103AF0007E838F8398870091810210918202D80182
:103B000095962D913D914D915C91989729873A8793
:103B10004B875C8751962D913D914D915C915497C7
:103B200029833A834B835C839B01AC0169817A8151
:103B30008B819C810E9411369B01AC01C301B201B3
:103B40000E9469399B01AC0169857A858B859C85CA
:103B50000E94123620E030E040E05FE30E946939C5
:103B60006B017C0120E030E0A9010E942939181680
:103B70000CF0ACC029853A854B855C85C701B60140
:103B80000E94073787FF8EC0F801858C968CA78C22
:103B9000B0A02D813E814F815885C501B4010E949E
:103BA00011369B01AC01C301B2010E9469396093D7
:103BB0007B0270937C0280937D0290937E02A7012A
:103BC00096010E94073787FF3DC0C501B4010E94DE
:103BD000083A60936F027093700280937102909321
:103BE0007202A501940169817A818B819C810E9476
:103BF0000737811104C0F1E0F093660277C0298194
:103C00003A814B815C81C501B4010E9411369B0150
:103C1000AC01C301B2010E9469399B01AC01609102
:103C20007702709178028091790290917A020E94D5
:103C300011366093770270937802809379029093A3
:103C40007A0254C0C0927702D0927802E092790250
:103C5000F0927A02C0927B02D0927C02E0927D02C6
:103C6000F0927E02D80191966D917D918D919C91FB
:103C700094979B01AC010E941236A70196010E9405
:103C800069392D813E814F8158850E9412360E94EC
:103C9000083A60936F027093700280937102909360
:103CA000720224C0B2E0B093660280916B029091E0
:103CB0006C02A0916D02B0916E0280936F0290939E
:103CC0007002A0937102B093720210C0109277023A
:103CD000109278021092790210927A0280926F020A
:103CE00090927002A0927102B0927202809187024B
:103CF000E82FF0E0FA87E98746E09F01429FF00154
:103D0000439FF00D1124E455FD4F809154028283AE
:103D100080918102909182029A8B898BDC01959629
:103D2000BC91BBA7FC01F6A1FCA7DC019796BC9156
:103D3000BDA7FC01F0A5FEA720915E0230915F02B5
:103D400040916002509161026BA57CA58B2F9F2F43
:103D50000E9411366FA378A789A79AA720E030E0C8
:103D6000A9010E94073787FF04C01FA218A619A641
:103D70001AA6209177022F8B30917802388F4091CC
:103D80007902498F50917A025A8F80916F028B8FFE
:103D9000909170029C8FA0917102AD8FB0917202D0
:103DA000BE8FE0917B02EF8FF0917C02F8A320910F
:103DB0007D0229A330917E023AA3409166024D878D
:103DC00030906B0220906C0250916D02598380916B
:103DD0006E028D83909167029BA3A0916802ACA3B1
:103DE000B0916902BDA3E0916A02EEA32091730233
:103DF0003091740240917502509176022BAB3CAB2E
:103E00004DAB5EAB0BA51CA53DA538AF4EA54FAB8A
:103E10008EE3C82E83ECD82E8EE2E82E89E3F82EAE
:103E2000412C512C3201CB8ADC8AED8AFE8A9D8599
:103E3000992321F0913009F482C0B4C0A989BA89CC
:103E400091962D913D914D915C919497C701B6014A
:103E50000E9469394B015C0120E030E040E05FE303
:103E60000E9469399B01AC01632D722D89819D816E
:103E70000E9412369B01AC01C701B6010E9469394C
:103E80009B01AC01B80188AD9FA90E9411368B013E
:103E900088AF9FAB2F89388D498D5A8D0E94073787
:103EA00087FF40C02F89388D498D5A8D6BA57CA521
:103EB0008DA59EA50E9411369B01AC010E94123671
:103EC0006B017C012B8D3C8D4D8D5E8D632D722D94
:103ED00089819D810E9412369B01AC01C701B60108
:103EE0000E9411376B017C012F8D38A149A15AA185
:103EF0006F89788D898D9A8D0E940737811103C053
:103F0000B2E0BD8702C0E1E0ED873B8C2C8CFD8DDB
:103F1000F9832E8D2D830F89188D398D38AF4A8DF9
:103F20004FABBFC0A5019401632D722D89819D8186
:103F30000E941236362E272E89839D83B2C0A70198
:103F400096016B8D7C8D8D8D9E8D0E9469399B01B4
:103F5000AC01B80188AD9FA90E9411364B015C01EC
:103F60002F8D38A149A15AA10E94073787FF96C01B
:103F70002F8D38A149A15AA1B80188AD9FA90E94EF
:103F800011362B8D3C8D4D8D5E8D0E9411376B014E
:103F90007C010F8D18A159A158AF8AA18FAB92E077
:103FA0009D877FC0A989BA8991962D913D914D91A8
:103FB0005C919497C701B6010E9469394B015C017D
:103FC0009B01AC01632D722D89819D810E9429394D
:103FD0001816E4F520E030E040E05FE3C501B401ED
:103FE0000E9469399B01AC01632D722D89819D81ED
:103FF0000E9411369B01AC01C701B6010E946939CC
:104000009B01AC01B80188AD9FA90E9411366FA732
:1040100078AB89AB9AAB2BA13CA14DA15EA10E94CC
:10402000293918169CF4A5019401632D722D8981FC
:104030009D810E941136362E272E89839D830FA5E0
:1040400018A9B9A9B8AFEAA9EFAB2BC02BA13CA125
:104050004DA15EA1B80188AD9FA90E9411369B01B8
:10406000AC010E9412366B017C012BA93CA94DA921
:104070005EA9632D722D89819D810E9412369B015C
:10408000AC01C701B6010E9411376B017C010BA185
:104090001CA1FDA1F8AF2EA12FAB03C08401A8AED7
:1040A000BFAAA7019601C301B2010E9412362B01DB
:1040B0003C012B893C894D895E890E94073787FF27
:1040C000B3CAA30192016B897C898D899E8910C036
:1040D0002EE333EC4EE259E36B897C898D899E890E
:1040E0000E9412366B8B7C8B8D8B9E8BA301920171
:1040F0000E9411366B017C012BA13CA14DA15EA158
:10410000B80188AD9FA90E94293918160CF48FCEEA
:104110009D859093660297CA80912806807709F45E
:10412000E1CA10926B0210926C0210926D02109212
:104130006E02109262021092630210926402109258
:104140006502C0925602D0925702E0925802F09255
:1041500059022D853E854F855889C701B6010E94B9
:104160001137A989BA8990C0603A5FE07507810567
:10417000910560F426E0A985BA852A9FF0012B9F5E
:10418000F00D1124E455FD4F31E011C060344FE1D2
:1041900074078105910568F426E0A985BA852A9FF0
:1041A000F0012B9FF00D1124E455FD4F32E03583D3
:1041B0000CC0A6E049855A85A49FF001A59FF00D8B
:1041C0001124E455FD4FB3E0B58346E029853A85D7
:1041D000429FF001439FF00D1124E455FD4F2581CE
:1041E000022E04C096958795779567950A94D2F725
:1041F000AD81BE8102C0AA0FBB1F2A95E2F7B18331
:10420000A08361157105B1E08B07910508F4BACA66
:104210008FEF9FEF94838383C1CA10928602C8CA2E
:1042200020E030E0A901B80188AD9FA90E9429399A
:1042300018160CF049C010926B0210926C0210928A
:104240006D0210926E02109262021092630210923E
:10425000640210926502C0925602D0925702E09218
:104260005802F0925902009181021091820220912D
:104270005A0230915B0240915C0250915D02C7018D
:10428000B6010E941137D80195966D937D938D9359
:104290009C939897E8960FB6F894DEBF0FBECDBFFB
:1042A000DF91CF911F910F91FF90EF90DF90CF9012
:1042B000BF90AF909F908F907F906F905F904F9046
:1042C0003F902F900C94002A10928202109281024B
:1042D0000E944F2694CAE8960FB6F894DEBF0FBE30
:1042E000CDBFDF91CF911F910F91FF90EF90DF90A5
:1042F000CF90BF90AF909F908F907F906F905F9086
:104300004F903F902F900895F999FECF92BD81BDB7
:1043100081E08FBB80B50895F894F999FECF92BDE6
:1043200081BD81E08FBB80B58627482F082E000C09
:10433000550B262F30E024233523232B39F06F3FF4
:1043400019F060BD84E006C084E104C0882321F038
:1043500060BD84E28FBBF99A789408958F929F9202
:10436000AF92BF92CF92DF92EF92FF920F931F9383
:10437000CF937C014A016B01C40ED51E8B01C0E0B6
:104380005C01A61AB70AC8018A0D9B1D0C151D05F4
:1043900099F0C11108C02C2FCC0F330B232F221FF3
:1043A0002227221F01C021E0F80161918F01C22F55
:1043B000C60F0E948C21E7CF6C2FC701880D991D75
:1043C000CF911F910F91FF90EF90DF90CF90BF9012
:1043D000AF909F908F900C948C218F929F92AF9270
:1043E000BF92CF92DF92EF92FF920F931F93CF93E2
:1043F0004B017A016C01C40ED51E8C01C0E05B013B
:10440000A81AB90AC501800F911F0C151D0599F056
:104410000E948421C11108C02C2FCC0F330B232FF5
:10442000221F2227221F01C021E0C22FC80FF8013E
:1044300081938F01E7CFC4018E0D9F1D0E948421BF
:1044400021E030E0C81711F020E030E0C901CF9141
:104450001F910F91FF90EF90DF90CF90BF90AF90A2
:104460009F908F90089521E5829FC001112440E51F
:1044700050E09D5F0C94AE2140E550E0BC018EEA17
:1044800093E00C94AE212DE0829FC00111244CE0FA
:1044900050E09E5F0C94AE2169E080E090E00E94C5
:1044A0008C214DE450E060E877E081E090E00C94EE
:1044B000AE21EF92FF920F931F93CF93DF93CDB76F
:1044C000DEB72C970FB6F894DEBF0FBECDBF182F06
:1044D00080FFC1C08AE08093B00789E18093B30771
:1044E0001092B1071092B20783E08093B4078AE07C
:1044F00097EDA3E2BCE38093B5079093B607A09332
:10450000B707B093B8078FE692E1A3E0BBE38093CF
:10451000B9079093BA07A093BB07B093BC0710925A
:10452000BE0780E090E0A8ECB1E48093BF079093D1
:10453000C007A093C107B093C20780E090E0AAEF44
:10454000B3E48093C3079093C407A093C507B093C7
:10455000C6072AEF30E03093C8072093C70740E032
:1045600050E060E87FE34093C9075093CA07609327
:10457000CB077093CC071092BD0740E050E06AE78C
:1045800073E4409380075093810760938207709390
:104590008307409384075093850760938607709341
:1045A0008707409388075093890760938A07709321
:1045B0008B0780938C0790938D07A0938E07B09301
:1045C0008F078093900790939107A0939207B093E1
:1045D00093078093940790939507A0939607B093C1
:1045E000970780E090EAACE0B7E480939807909357
:1045F0009907A0939A07B0939B0780939C07909389
:104600009D07A0939E07B0939F078093A007909368
:10461000A107A093A207B093A30780E090E0A8E4CD
:10462000B3EC8093A4079093A507A093A607B0933B
:10463000A7078093A8079093A907A093AA07B09310
:10464000AB078093AC079093AD07A093AE07B093F0
:10465000AF070E944C2211FF10C0CE0101967C01D1
:104660008CE0F70111928A95E9F700E0B701802FFD
:104670000E9443220F5F0830C9F712FF0AC060E0B2
:1046800080E093E00E948C2160E081E593E00E944D
:104690008C2113FF05C060E08EEA93E00E948C211C
:1046A0002C960FB6F894DEBF0FBECDBFDF91CF9131
:1046B0001F910F91FF90EF9008951F93CF93DF9379
:1046C000182FEB0181E5189FB00111247D5F40E5B3
:1046D00050E0CE010E94ED21892B39F41882BE01F1
:1046E000812F0E94332280E001C081E0DF91CF91D1
:1046F0001F910895CF93DF93EC0140E550E06EEAFF
:1047000073E00E94ED21892B31F41882CE010E94C2
:104710003C2280E001C081E0DF91CF9108951F939A
:10472000CF93DF93182FEB018DE0189FB001112478
:104730007E5F4CE050E0CE010E94ED21892B59F4C0
:104740008CE0FE0111928A95E9F7BE01812F0E944B
:10475000432280E001C081E0DF91CF911F91089555
:1047600080E090E00E948421893059F44DE450E0CB
:1047700061E070E080E897E00E94ED2121E0892B64
:1047800009F420E0822F0895CF92DF92EF92FF92FA
:10479000CF93DF93C82F6A017B0120E030E0A901AD
:1047A000C701B6010E94073787FDE4C0C43608F48C
:1047B00041C08CE98C0F20E0833098F590E0880FA1
:1047C000991F880F991F223059F0FC012330F1F016
:1047D000213019F0E058F84F1FC0E457F84F1CC0C3
:1047E000EC01C856D84F20E030E040E752E4C70162
:1047F000B6010E94693920E030E040E752E40E94AF
:104800006939688379838A839B83B0C0EC55F84FFC
:10481000F7FAF094F7F8F094C082D182E282F38242
:10482000A5C02F5F8A3008F4A7C0243009F4A4C0C3
:104830008A50C2CFC701B6010E944C3A0E948A3703
:104840008C2F90E08C31910508F096C0FC018827F0
:10485000E956FF4F8F4F0C94A03A633008F48EC096
:104860006093B00783C06093B30780C06093B107C3
:1048700002C06093B2070E943B1A78C08091BD07C6
:10488000662311F0846007C08B7F05C08091BD074F
:10489000662321F080648093BD0768C08F7BFBCFC7
:1048A0008091BD07662311F08068F5CF8F77F3CF35
:1048B0006093B4075BC0C092B507D092B607E09290
:1048C000B707F092B80752C0C092B907D092BA07A2
:1048D000E092BB07F092BC0749C08091BD076623F8
:1048E00011F08160D8CF8E7FD6CF8091BD0766232F
:1048F00021F084FF45C08062CECF8F7DCCCF8091E8
:10490000BD07662311F0886001C0877F8093BD07D3
:104910000E94042B2BC08091BD07662311F080619B
:10492000BACF8F7CB8CF6093BE0720C0C092BF07BC
:10493000D092C007E092C107F092C20717C0C092A0
:10494000C307D092C407E092C507F092C6070EC015
:1049500070E07093C8076093C70708C0C092C9078A
:10496000D092CA07E092CB07F092CC070E944C226B
:1049700080E007C084E005C083E003C086E001C09A
:104980008AE0DF91CF91FF90EF90DF90CF90089574
:104990000E94B023811108C087E00E94832F8FEF0F
:1049A0000E9459220C94EE2F0895882321F0813023
:1049B00021F080E1089584E0089588E00895882337
:1049C00021F0813021F080E2089580E8089580E4AC
:1049D0000895882321F0813021F080E4089580E15A
:1049E000089580E208952F923F924F925F926F92C6
:1049F0007F928F929F92AF92BF92CF92DF92EF926F
:104A0000FF920F931F93CF93DF93C0914303C11184
:104A100001C0C2E1C150D0914103CD1709F41BC1BF
:104A2000EC2EF12C29E2C29F800111240B5B1C4F5C
:104A3000F801A588B688C788D08C61A172A183A12E
:104A400094A19B01AC010E941236F80125A136A168
:104A500047A150A50E9469394B018C019B01AC0113
:104A6000B501C6010E94073787FD02C054016801E5
:104A700089E28E9DF0018F9DF00D1124EB5BFC4FC0
:104A8000C501D601818B928BA38BB48BC11101C060
:104A9000C2E1C150CD1761F029E22E9DC0012F9DCA
:104AA000900D11249C012B5B3C4F7901D9E233C05E
:104AB00080914403D8135EC00E94C31A5BC0AC2E21
:104AC000B12CDA9DC001DB9D900D1124FC01EB5B44
:104AD000FC4F6F01C11101C0C2E1C150809144037C
:104AE000C81302C00E94C31ADA9D8001DB9D100D1D
:104AF00011240B5B1C4FF80185889688A788B08C21
:104B0000A501940161897289838994890E9407377C
:104B1000811106C0760180914103C813D0CF2AC00D
:104B2000F80161A172A183A194A19B01AC010E9433
:104B30001236F80125A136A147A150A50E94693976
:104B4000F70121893289438954890E9412362B0149
:104B50003C01A50194010E940737F80187FF05C0B9
:104B6000418A528A638A748AD5CF818A928AA38ABB
:104B7000B48AD0CFD0914103F9E2DF9F80011124A4
:104B80000B5B1C4FC1E0CD0FC23109F4C0E0209097
:104B9000430389E2382EC21509F45BC0CC2ED12C18
:104BA0003C9CC0013D9C900D11249C012B5B3C4F13
:104BB0007901F8014188528863887488F9018188F5
:104BC0009288A388B488A5019401C301B2010E9410
:104BD000073787FF24C0F80161A172A183A194A1C6
:104BE0009B01AC010E941236F80125A136A147A114
:104BF00050A50E9469399B01AC01C301B2010E941A
:104C000012362B013C01A50194010E94073787FF52
:104C100006C0F701418A528A638A748ADC2F3C9C61
:104C2000F0013D9CF00D1124EB5BFC4F258936898A
:104C30004789508D61897289838994890E940737D9
:104C4000811101C0DC2FCF5FC23109F4C0E08701C0
:104C5000A2CFD0934103DF91CF911F910F91FF908D
:104C6000EF90DF90CF90BF90AF909F908F907F900C
:104C70006F905F904F903F902F9008958CE1E5E208
:104C8000F3E0DF011D928A95E9F710924403109238
:104C9000430381E080934203109241030895909171
:104CA000440380914303891769F081E0890F8231C1
:104CB00009F480E020914103921302C080934103E4
:104CC000809344030895809144039091430398177F
:104CD00039F029E2829FC00111248B5B9C4F08951B
:104CE00080E090E00895E0914403EF5FE23109F441
:104CF000E0E080914303E81761F089E2E89FF0016A
:104D00001124EB5BFC4F61897289838994890C942F
:104D1000083A60E070E0CB01089581E020914403FF
:104D200090914203291380E008952F923F924F9271
:104D30005F926F927F928F929F92AF92BF92CF922B
:104D4000DF92EF92FF920F931F93CF93DF93CDB734
:104D5000DEB7E2970FB6F894DEBF0FBECDBF4B8F24
:104D60005C8F6D8F7E8F622E20914303422F50E027
:104D70005AA349A359E2259F80011124F801EB5B56
:104D8000FC4F158616861786108A15A216A217A242
:104D900010A6108249E956E766E97EE741A352A3CF
:104DA00063A374A32C0180E897E09EA38DA3AE01BA
:104DB000435F5F4F5EA74DA785E293E09CA78BA75B
:104DC0004C5051095CA34BA31AAB09AB58A34F8FAE
:104DD00045E253E058A74FA390E8C92E97E0D92E9B
:104DE000E12CF12C712C8F01CF010D9698AB8FA780
:104DF0001F0195E2290E311CF2016191719181919F
:104E000091912F01F60120813181428153810E94CD
:104E100069390E943639EDA5FEA56193719381939E
:104E20009193FEA7EDA7EFA1F8A581909190A19095
:104E3000B190F8A7EFA3681979098A099B094B017A
:104E40005C0197FF07C0882499245401861A970AA9
:104E5000A80AB90AE9A9FAA9EE0DFF1DEB5BFC4F00
:104E600081829282A382B482EFA5F8A92081318148
:104E70004281538182169306A406B50610F44901B7
:104E80005A01EFA5F8A980829182A282B3820E9482
:104E9000BB37F60120813181428153810E94113755
:104EA0004B015C01EF8DF8A1619371938193919314
:104EB000F8A3EF8F20E030E0A9010E94073787FFB9
:104EC00007C0872D0E94DF24F8019081892B808301
:104ED000A5019401C501B4010E946939F101208145
:104EE0003181428153810E941236F10160837183C6
:104EF000828393837394F4E0EF0EF11C24E0C20EDE
:104F0000D11C3CE0E316F10409F076CF0E94083A88
:104F10006B017C01F1016083718382839383F801CB
:104F200085859685A785B089892B8A2B8B2B09F4DB
:104F300022C220E030E0A9016B8D7C8D8D8D9E8D8D
:104F40000E94073787FD21C0662061F0A701960106
:104F50006B8D7C8D8D8D9E8D0E9469396B8F7C8FC2
:104F60008D8F9E8F20E030E040E85FE36B8D7C8D7D
:104F70008D8D9E8D0E94073787FF0FC01B8E1C8E64
:104F8000F0E8FD8F2FE32E8F08C039E93B8F46E70D
:104F90004C8F56E95D8F8EE78E8FA701960160E0FA
:104FA00070E080E89FE30E9411376FA378A789A77C
:104FB0009AA7FE013D96FA8FE98FC12CD12C76017C
:104FC00029E249A15AA1249FC001259F900D1124D7
:104FD000FC01EA59FC4FF8A3EF8FEBA1FCA1808004
:104FE0009180A280B38020E030E0A901C501B40126
:104FF0000E940737882309F46CC02FA138A549A562
:105000005AA5C501B4010E9469392B013C01EBA1ED
:10501000FCA160837183828393839B01AC0160E078
:1050200070E080E89FE30E9411374B015C01E89437
:10503000B7F8EDA1FEA12485358546855785C501C4
:10504000B4010E9469391B018C019B01AC016B8D7D
:105050007C8D8D8D9E8D0E94073787FD04C02B8E21
:105060003C8E0D8F1E8FEF8DF8A120803180028144
:105070001381EDA1FEA1208D318D428D538DC5018F
:10508000B4010E9469394B015C019B01AC01B10183
:10509000C8010E94073787FD02C014018501C101C4
:1050A000D801EF8DF8A180839183A283B383EBA510
:1050B000FCA52485358546855785C301B2010E942C
:1050C00069399B01AC01C701B6010E9411366B0121
:1050D0007C012BA13CA12C5F3F4F3CA32BA34BA5F4
:1050E0005CA54C5F5F4F5CA74BA78DA19EA104966A
:1050F0009EA38DA3E98DFA8D2E173F0709F06DCF82
:10510000909143038091440398130FC089E229A131
:105110003AA1829FF001839FF00D1124EB5BFC4FBD
:10512000118A128A138A148A14C02FEE3FEF4FE7B8
:105130005FE3C701B6010E94293918167CF489E2A1
:1051400049A15AA1849FF001859FF00D1124EB5BCA
:10515000FC4F118E128E138E148E6DC02FEE3FEF0A
:105160004FE75FEBC701B6010E942939181644F0DA
:105170008FEEC82EDD24DA948FE7E82E8FEBF82E21
:10518000A701960160E070E080E89FE30E9411367D
:1051900020E030E040E05FE30E9469390E94083A75
:1051A0006B017C0189E229A13AA1829FF001839FD2
:1051B000F00D1124EB5BFC4F2091B5073091B60741
:1051C0004091B7075091B80761A172A183A194A142
:1051D0000E946939A70196010E9469394B015C015F
:1051E000A701960160E070E080E89FE30E9411361D
:1051F0009B01AC01C501B4010E9411377B018C01F8
:1052000020E030E0A9010E94073787FF04C0E12CAD
:10521000F12C00E010E089E249A15AA1849FF0013D
:10522000859FF00D1124EB5BFC4FA701B801418F66
:10523000528F638F748F2B8D3C8D4D8D5E8D6B8D5A
:105240007C8D8D8D9E8D0E9469397B018C0189E258
:1052500029A13AA1829FF001839FF00D1124EB5BFD
:10526000FC4FC701D801858F968FA78FB0A3A18C63
:10527000B28CC38CD48C60903D0370903E038090C0
:105280003F03909040039301A401B701C8010E941D
:10529000073787FD05C0762D672D982D892D04C011
:1052A0007E2D6F2D902F812F272F362F492F582F8E
:1052B000B501C6010E94073787FD0DC09301A40107
:1052C000B701C8010E94073787FD03C0530164017D
:1052D00002C05701680189E249A15AA1849FF001E7
:1052E000859FF00D1124EB5BFC4FC501D601858B2A
:1052F000968BA78BB08F8CE0FE013196A1E3B3E0D3
:1053000001900D928A95E1F7C701D80180933D0382
:1053100090933E03A0933F03B09340038CE0FE01C3
:105320003D96A5E2B3E001900D928A95E1F7809158
:105330004203809343038F5F823109F480E08093BE
:105340004203E2960FB6F894DEBF0FBECDBFDF91E9
:10535000CF911F910F91FF90EF90DF90CF90BF9072
:10536000AF909F908F907F906F905F904F903F9005
:105370002F900C94F324E2960FB6F894DEBF0FBE84
:10538000CDBFDF91CF911F910F91FF90EF90DF90F4
:10539000CF90BF90AF909F908F907F906F905F90D5
:1053A0004F903F902F900895E5E2F3E0A7E2B6E03A
:1053B00014964D915D916D917C9117974083518327
:1053C0006283738318964D915D916D917C911B97CB
:1053D00044835583668377831C968D919D910D90B0
:1053E000BC91A02D80879187A287B3870895809173
:1053F000430390914403891708F48E5E891B089536
:105400000E94C31A80914403809341030C94F324B7
:105410004F925F926F927F92AF92BF92CF92DF9244
:10542000EF92FF920F931F93CF93DF936C01FB01D9
:105430005A018081D601A80FB11D9C918D019D322A
:1054400031F40E5F1F4F11969C91D1E00AC09B3240
:1054500019F00F5F1F4F04C00E5F1F4F11969C91F4
:10546000D0E0512C612CC0E020E030E0A9017801AF
:1054700060ED762E790E89E08715D8F06394A8E068
:10548000A61598F05110C150A5E0B0E00E94A83ACE
:10549000DC01CB01880F991FAA1FBB1F9C01AD0126
:1054A000270D311D411D511D0BC0511009C0CF5F8B
:1054B00007C0BEEF7B1209C0511007C0552453949A
:1054C0000F5F1F4FD7019C91D2CF662009F450C0C7
:1054D0007F01CA01B9010E94B9372B013C0120E0CC
:1054E00030E0A9010E940737882349F1CF3F64F4D7
:1054F0002AE037ED43E25CE3C301B2010E9469395F
:105500002B013C01CE5FF2CFCF3F59F42DEC3CECA8
:105510004CEC5DE3C301B2010E9469392B013C01EF
:105520000EC0CC2361F020E030E040E251E4C30142
:10553000B2010E9469392B013C01C150F2CFDD2339
:1055400051F077FA709477F87094F50140825182A7
:105550006282738206C0D5014D925D926D927C92FB
:1055600013970C191D090150F701008381E001C058
:1055700080E0DF91CF911F910F91FF90EF90DF902E
:10558000CF90BF90AF907F906F905F904F900895B5
:10559000009741F0EFE9FFE03197F1F700C000001C
:1055A0000197F6CF08958F929F92AF92BF92CF92BC
:1055B000DF92EF92FF9269017A019B01AC010E9498
:1055C00069394B015C01A7019601C701B6010E9430
:1055D00069399B01AC01C501B4010E941236FF90EC
:1055E000EF90DF90CF90BF90AF909F908F900C94F2
:1055F000083AEBE6F0E080818F788083E8E6F0E01F
:1056000080818E7F8083089584B18F7884B985B13D
:10561000806785B98091BD0783FF0BC080916B00C7
:10562000806780936B008091680081608093680040
:1056300008950C94F92AEF92FF920F931F93CF9342
:10564000DF93C3B1C0778091BD0786FD02C080E7BC
:10565000C827CC23C1F000E010E0D0E0EE24E394B2
:10566000F12C802F0E94E9248C2339F0C701002EF1
:1056700001C0880F0A94EAF7D82B0F5F1F4F033041
:10568000110579F701C0D0E08D2FDF91CF911F91E7
:105690000F91FF90EF9008951F920F920FB60F9207
:1056A00011240BB60F922F933F934F935F936F93F9
:1056B0007F938F939F93AF93BF93EF93FF938091CB
:1056C0002806813071F08091470681110AC00E943E
:1056D0008F099FB7F89480914706836080934706AF
:1056E0009FBFFF91EF91BF91AF919F918F917F915C
:1056F0006F915F914F913F912F910F900BBE0F9043
:105700000FBE0F901F9018952F923F924F925F926D
:105710006F927F928F929F92AF92BF92CF92DF92C1
:10572000EF92FF920F931F93CF93DF93CDB7DEB726
:1057300069970FB6F894DEBF0FBECDBF90912706D4
:105740009111A4C1782E24EAA22E27E0B22E9E0148
:10575000235F3F4F490100E010E0C12CD12C7601BE
:1057600090E09B8B8A8B802F0E94D524D4018D934F
:105770004D018A899B89002E02C0959587950A94D0
:10578000E2F780FF1AC020E030E040EC5FEBF5016B
:1057900060817181828193810E9469391B01582E39
:1057A000692E9B01482F592FC701B6010E94293944
:1057B00018161CF06101E52CF62C0F5F1F4FF4E06A
:1057C000AF0EB11C0330110571F68090C3079090A5
:1057D000C407A090C507B090C60794E0692E01E009
:1057E000442443946BE276E0CE0101960E94F635A4
:1057F0008091BE07282F30E03D8B2C8BFE01319627
:1058000087E296E0998B888B1C0120E030E0512CD8
:1058100010E0B701A60170588A899B89022E02C048
:10582000959587950A94E2F780FF28C05394D1019B
:1058300014961D921D921D921C9217978C899D891A
:10584000022E02C0959587950A94E2F780FF03C067
:10585000002319F007C0002329F0C082D182E28220
:10586000F38204C04083518362837383ADE0B0E070
:10587000AC0FBD1FA20FB31F8C91182B2F5F3F4F92
:105880003496B4E02B0E311C2330310529F6652DFA
:1058900070E080E090E00E94B9370E94083A9B01D6
:1058A000AC01C501B4010E946939AB01BC01109380
:1058B00044064E8B5F8B688F798F0E94D42920E03D
:1058C0004E895F89688D798DCE0101960E9495265B
:1058D0000E94E51A0E94B8170023E9F00E941B2BD2
:1058E000FE013D9620E030E090E06191462F41239B
:1058F00059F0AC01022E02C0559547950A94E2F783
:1059000040FF02C0609516232F5F3F4F23303105C3
:1059100061F7109344060E94E51A8091450684734E
:10592000C1F080914506807329F00E948F090E9482
:10593000F415ACC00111A5C00E941B2B8721A9F74B
:105940009FB7F894809145068B7F809345069FBF53
:1059500004C0812F8C7109F0BFCF0E94751A0E947C
:105960003E268091C7079091C8070E94C82A042547
:10597000C9F020E030E040EA50E46091C90770913E
:10598000CA078091CB079091CC070E9469396B01BF
:105990007C018090BF079090C007A090C107B09095
:1059A000C20710C0C090C907D090CA07E090CB07CB
:1059B000F090CC078090C3079090C407A090C507D3
:1059C000B090C6076A9461100DCFC090BE07D12C6D
:1059D0008090C9079090CA07A090CB07B090CC07E1
:1059E0002401350177FA709477F8709480E8E82EF6
:1059F00087E0F82E00E010E08A899B89002E02C023
:105A0000959587950A94E2F780FF2AC0C601002E7B
:105A100002C0959587950A94E2F7F70180FF0EC0C2
:105A200024A135A146A157A1C501B4010E94123697
:105A3000D7012D913D914D915C9106C0208131811E
:105A400042815381C301B2010E9469390E943639F3
:105A5000A889B98914966D937D938D939C9317971C
:105A60000F5F1F4FE889F9893496F98BE88BF4E0D2
:105A7000EF0EF11C0330110509F0BECF0E94D429AE
:105A800005C08091450682FF5BCF4FCF69960FB668
:105A9000F894DEBF0FBECDBFDF91CF911F910F9164
:105AA000FF90EF90DF90CF90BF90AF909F908F903E
:105AB0007F906F905F904F903F902F900895BF928E
:105AC000CF92DF92EF92FF920F931F93CF93DF93CA
:105AD0008C01C0E0D0E0BB24B394F801C190D19018
