:100000000C94F8040C9419050C9419050C9419051A
:100010000C9419050C9419050C9419050C941905E8
:100020000C9419050C94612B0C9419050C941F3435
:100030000C9419050C9419050C9419050C941905C8
:100040000C9419050C9418180C9419050C941905A6
:100050000C9419050C9419050C9419050C943A1A72
:100060000C9419050C94A0150C945E150C941905AC
:100070000C9419050C9419050C9419050C94190588
:100080000C9419050C9419050C9419050C94190578
:100090000C9419050C9419050C9419050C94E73669
:1000A0000C9419050C9419050C9419050C94190558
:1000B0000C9419050C9419050C9419050C9421380D
:1000C0000C9419050C9419050C9419050C94190538
:1000D0000C9419050C9419050C9419050C94190528
:1000E0000C941905E60BD413D413F00BFD0B0A0C7A
:1000F000170CD4131B0CD413290CD413330C3D0C44
:100100006E0CD413D413D413470C540C610C9512F9
:10011000A612C512A612C912DC12CF12D512F31202
:10012000F91208131F1343134D1359136313422479
:1001300048244B244E2453245B246524D124D12409
:10014000D1246D24702479248224D124D124D12473
:10015000D124D124D1248A249424A024A824AB24FB
:10016000B424BD24C324602F632F682F6B2F6E2F00
:10017000712F742F772F7A2F7D2F802F8C2F8C2F1C
:100180008C2F8C2F8C2F8C2F8C2F8C2F862F832FA6
:10019000892FDD2FE02FE32FE62FE92FEC2FEF2F14
:1001A000F22F084AD73B3BCE016E84BCBFFDC12F66
:1001B0003D6C74319ABD56833DDA3D00C77F11BE58
:1001C000D9E4BB4C3E916BAAAABE000000803F055B
:1001D000A84CCDB2D44EB93836A9020C50B991868C
:1001E00088083CA6AAAA2ABE000000803F000C9402
:1001F00042240C9479240C94F00B0C94470C0C942E
:10020000EC2F0C94D4130C94802F0C94E32F0C94AB
:1002100070240C9463130C946E0C0C940A0C0C94C4
:100220004B240C94C9120C941F130C948A240C9424
:10023000A0240C945B240C94602F0C94DC120C947E
:100240004E240C94B4240C94E02F0C9495120C942E
:10025000170C0C94892F0C9459130C94A6120C941F
:10026000632F0C94CF120C94A8240C94772F0C9429
:100270004D130C94D1240C94832F0C948C2F0C943C
:10028000AB240C94C5120C94F22F0C94C3240C9440
:10029000330C0C9494240C94EF2F0C94E62F0C94B4
:1002A000F9120C94E60B0C946E2F0C9482240C948F
:1002B000D5120C94BD240C9465240C9443130C9417
:1002C0006D240C9408130C946B2F0C94F3120C9463
:1002D0007D2F0C94DD2F0C9453240C94862F0C94BA
:1002E000712F0C9448240C94E92F0C947A2F0C94C1
:1002F000FD0B0C94540C0C94290C0C943D0C0C9498
:100300001B0C0C94610C0C94742F0C94682F3E0DF4
:100310000A002C4C696D3A002C52583A002C427558
:10032000663A002C002C57506F733A002C002C4D6D
:10033000506F733A003C446F6F72003C43686563D2
:100340006B003C416C61726D003C486F6D65003C18
:10035000486F6C64003C52756E003C49646C6500EB
:100360005D0D0A005B302E396A2D4A4F472E323020
:100370003136303331373A000D0A003D00244E004B
:100380005D0D0A00205300204600205400204D3807
:1003900000204D3900204D3500204D3400204D33D4
:1003A00000204D3200204D3100204D3000204739D3
:1003B0003400204739330020473931002047393095
:1003C00000204732300020473231002047313900C9
:1003D0002047313800204731370020470047333865
:1003E0002E0047383000473300473200473100477E
:1003F00030005B005D0D0A005B544C4F3A005D0D10
:100400000A002C005B4739323A005D0D0A002C00CF
:100410003A003330003238005B47005D0D0A003A85
:10042000002C005B5052423A00290D0A00206D61F9
:10043000782074726176656C2C206D6D002061638C
:1004400063656C2C206D6D2F7365635E3200206DCB
:10045000617820726174652C206D6D2F6D696E005E
:100460002C20737465702F6D6D007A007900780010
:100470002028003D0024002028686F6D696E6720E9
:1004800070756C6C2D6F66662C206D6D290D0A00E1
:100490002028686F6D696E67206465626F756E6392
:1004A000652C206D736563290D0A2432373D0020C9
:1004B00028686F6D696E67207365656B2C206D6DA4
:1004C0002F6D696E290D0A2432363D002028686F91
:1004D0006D696E6720666565642C206D6D2F6D6992
:1004E0006E290D0A2432353D00290D0A2432343D8F
:1004F000002028686F6D696E672064697220696EDC
:1005000076657274206D61736B3A002028686F6D98
:10051000696E67206379636C652C20626F6F6C294C
:100520000D0A2432333D00202868617264206C6912
:100530006D6974732C20626F6F6C290D0A2432323E
:100540003D002028736F6674206C696D6974732C8C
:1005500020626F6F6C290D0A2432313D0020287211
:1005600065706F727420696E636865732C20626FAA
:100570006F6C290D0A2432303D00202861726320FF
:10058000746F6C6572616E63652C206D6D290D0A48
:100590002431333D0020286A756E6374696F6E20C4
:1005A000646576696174696F6E2C206D6D290D0A22
:1005B0002431323D00290D0A2431313D00202873B9
:1005C0007461747573207265706F7274206D6173DD
:1005D0006B3A00202870726F62652070696E206926
:1005E0006E766572742C20626F6F6C290D0A24314F
:1005F000303D0020286C696D69742070696E73202D
:10060000696E766572742C20626F6F6C290D0A24F6
:10061000363D0020287374657020656E61626C65DC
:1006200020696E766572742C20626F6F6C290D0ADA
:1006300024353D00290D0A24343D002028646972C8
:1006400020706F727420696E76657274206D6173AC
:100650006B3A00290D0A24333D002028737465701D
:1006600020706F727420696E76657274206D61738C
:100670006B3A002028737465702069646C6520648F
:10068000656C61792C206D736563290D0A24323DF8
:10069000002028737465702070756C73652C20754C
:1006A000736563290D0A24313D0024303D00242464
:1006B000202876696577204772626C2073657474B0
:1006C000696E6773290D0A242320287669657720CF
:1006D0002320706172616D6574657273290D0A243F
:1006E0004720287669657720706172736572207380
:1006F00074617465290D0A2449202876696577207C
:100700006275696C6420696E666F290D0A244E203B
:100710002876696577207374617274757020626CD5
:100720006F636B73290D0A24783D76616C756520C3
:100730002873617665204772626C207365747469F2
:100740006E67290D0A244E783D6C696E652028730A
:10075000617665207374617274757020626C6F636A
:100760006B290D0A24432028636865636B20676347
:100770006F6465206D6F6465290D0A245820286B0D
:10078000696C6C20616C61726D206C6F636B290DFC
:100790000A2448202872756E20686F6D696E672084
:1007A0006379636C65290D0A7E20286379636C6523
:1007B000207374617274290D0A21202866656564AE
:1007C00020686F6C64290D0A3F202863757272657A
:1007D0006E7420737461747573290D0A6374726C7E
:1007E0002D7820287265736574204772626C290D1C
:1007F0000A000D0A4772626C20302E396A2D4A4F6A
:1008000047205B27242720666F722068656C705D27
:100810000D0A005D0D0A00526573746F72696E6790
:100820002064656661756C74730050676D20456E59
:100830006400436865636B20446F6F7200446973A2
:1008400061626C656400456E61626C656400436161
:100850007574696F6E3A20556E6C6F636B656400DA
:10086000272448277C2724582720746F20756E6C16
:100870006F636B00526573657420746F20636F6ED5
:1008800074696E7565005B000D0A00486F6D696ED6
:1008900067206661696C0050726F626520666169ED
:1008A0006C0041626F727420647572696E672063B8
:1008B00079636C6500536F6674206C696D697400B0
:1008C00048617264206C696D697400414C41524DFD
:1008D0003A20000D0A00496E76616C6964206763F6
:1008E0006F64652049443A00556E646566696E65BB
:1008F000642066656564207261746500556E737569
:1009000070706F7274656420636F6D6D616E6400EA
:100910004D6F64616C2067726F75702076696F6CC3
:100920006174696F6E004C696E65206F76657266E2
:100930006C6F7700486F6D696E67206E6F7420650D
:100940006E61626C656400416C61726D206C6F63F6
:100950006B004E6F742069646C6500454550524FC2
:100960004D2072656164206661696C2E2055736943
:100970006E672064656661756C74730056616C7592
:1009800065203C203320757365630053657474697A
:100990006E672064697361626C65640056616C7592
:1009A00065203C203000496E76616C696420737468
:1009B0006174656D656E7400426164206E756D6270
:1009C000657220666F726D6174004578706563743E
:1009D000656420636F6D6D616E64206C6574746511
:1009E00072006572726F723A20006F6B0D0A000020
:1009F00011241FBECFEFD1E2DEBFCDBF00E00CBFA0
:100A000012E0A0E0B2E0E6EDF0E800E00BBF02C0CB
:100A100007900D92AA3CB107D9F728E0AAECB2E002
:100A200001C01D92A93EB207E1F70E941B050C947C
:100A300069400C9400000E942C150E94DD240E9445
:100A4000B61A0E940A348EE1E7E0F7E0DF011D925A
:100A50008A95E9F781E080930707789490919D0843
:100A600094FD809308070E9402160E94CD090E94FF
:100A70005B140E94FC140E94192B0E94112F0E94EB
:100A800053260E948A1A0E9492380E94E9290E94E5
:100A9000DF0910920707109225071092270710927E
:100AA000090710920A070E943617DDCFEF92FF92D6
:100AB0001F93CF93DF9300D01F92CDB7DEB77C0199
:100AC000122F80919D0885FF0BC0C70149835A836F
:100AD0006B837C830E94742D7C816B815A81498158
:100AE00080910807823031F149835A836B837C837C
:100AF0000E9407168091070781111CC00E94A22640
:100B000049815A816B817C81882339F00E942D179D
:100B100049815A816B817C81E7CF212FC7010F90DA
:100B20000F900F900F90DF91CF911F91FF90EF905A
:100B30000C94AA260F900F900F900F90DF91CF91F9
:100B40001F91FF90EF9008952F923F924F925F92E6
:100B50006F927F928F929F92AF92BF92CF92DF92CD
:100B6000EF92FF920F931F93CF93DF93CDB7DEB732
:100B7000E3970FB6F894DEBF0FBECDBF988B8F877B
:100B80001B013A0109871A872B873C87C98ADA8AB1
:100B9000EB8AFC8AAF8A2A960FAD2A972B962FAD47
:100BA0002B972D872C963FAD2C973D8BA4E08A9EEA
:100BB000C00111249A838983EF85F889E80FF91F12
:100BC000F98FE88F840F951F9B8F8A8FDC018D90A2
:100BD0009D90AD90BC902081318142815381C501AF
:100BE000B4010E94693A6C8F7D8F8E8F9F8FB4E025
:100BF0000B9F80011124EF85F889E00FF11FF9A305
:100C0000E8A39301200F311F3BA32AA3D901CD9064
:100C1000DD90ED90FC902081318142815381C701AC
:100C2000B6010E94693A6CA37DA38EA39FA3240101
:100C3000350177FA709477F87094D701C601B058EF
:100C40008D839E83AF83B887E981FA81E20DF31D1E
:100C50002C8D3D8D4E8D5F8D608171818281938160
:100C60000E94683A6B017C01F101E00FF11F2CA199
:100C70003DA14EA15FA160817181828193810E941B
:100C8000683A4B015C01A7019601C301B2010E94C1
:100C9000C03D69837A838B839C83A50194016D8118
:100CA0007E818F8198850E94C03D9B01AC01698146
:100CB0007A818B819C810E94693A69837A838B83D4
:100CC0009C83A5019401C301B2010E94C03D4B0168
:100CD0005C01A70196016D817E818F8198850E94BC
:100CE000C03D9B01AC01C501B4010E94683A298155
:100CF0003A814B815C810E94E83A6B017C019D89BD
:100D0000992399F02DEB37E346E055EBC701B60187
:100D10000E94803D87FD1DC02BED3FE049EC50E473
:100D2000C701B6010E94683A12C02DEB37E346E0D6
:100D300055E3C701B6010E945E3B181654F02BED37
:100D40003FE049EC50E4C701B6010E94693A6B01EB
:100D50007C018090990890909A08A0909B08B09090
:100D60009C0829853A854B855C85CA01B9010E949A
:100D7000693AA50194010E94683A9B01AC01C50142
:100D8000B4010E94C03D0E945F3E4B015C0120E027
:100D900030E040E05FE3C701B6010E94C03D298515
:100DA0003A854B855C850E94C03D9F77A5019401E3
:100DB0000E94683B0E944D3C0E94E13B7E8B6D8B04
:100DC000DB01AB2B09F477C14B01A12CB12CBF89FE
:100DD000BB2381F0C501B4010E94103C9B01AC0112
:100DE00069897A898B899C890E94C03D698B7A8B3D
:100DF0008B8B9C8BC501B4010E94103C4B015C01A4
:100E00009B01AC01C701B6010E94683B69877A87E4
:100E10008B879C87FD85E4E0FE9FC00111242F8510
:100E20003889280F391F3E872D87F101E80FF91FF8
:100E3000D9012D913D914D915C91608171818281AB
:100E400093810E94683AA50194010E94683B68ABB7
:100E500079AB8AAB9BAB29853A854B855C85CA010A
:100E6000B9010E94C03D9B01AC0160E070E080E0F0
:100E700090E40E94683A6B017C012BEA3AEA4AE26C
:100E80005EE369857A858B859C850E94C03D4B0118
:100E90005C0120E030E040E850E4C701B6010E9468
:100EA000693A9B01AC01C501B4010E94C03D68A72D
:100EB00079A78AA79BA720E030E040E05FE3C70165
:100EC000B6010E94C03D6CA77DA78EA79FA719827F
:100ED00001E010E0ED89FE890E171F0709F4EBC051
:100EE000B981BC3008F040C02CA53DA54EA55FA53A
:100EF0006D817E818F8198850E94C03D6B017C0150
:100F000028A539A54AA55BA5C301B2010E94C03D31
:100F1000A70196010E94693A6B017C012CA53DA5B1
:100F20004EA55FA5C301B2010E94C03D4B015C010B
:100F300028A539A54AA55BA56D817E818F819885FD
:100F40000E94C03D9B01AC01C501B4010E94683AFA
:100F50002B013C01E981EF5FE983C601D7018D8355
:100F60009E83AF83B88765C0B80180E090E00E949F
:100F7000103C29853A854B855C850E94C03D6B01FC
:100F80007C010E94633B6D837E838F839887C701BA
:100F9000B6010E94513E4B015C01AA8DBB8DCD90E4
:100FA000DD90ED90FC90F7FAF094F7F8F094AAA198
:100FB000BBA18D919D910D90BC91A02D89839A83A9
:100FC000AB83BC832D813E814F815885C701B6011B
:100FD0000E94C03D2B013C01A501940169817A81E9
:100FE0008B819C810E94C03D9B01AC01C301B20179
:100FF0000E94693A2B013C01A5019401C701B60189
:101000000E94C03D6B017C012D813E814F8158853E
:1010100069817A818B819C810E94C03D9B01AC01DA
:10102000C701B6010E94683A6D837E838F839887DB
:101030001982A30192016C8D7D8D8E8D9F8D0E94F2
:10104000693AE88DF98D60837183828393832D8162
:101050003E814F8158856CA17DA18EA19FA10E94E8
:10106000693AA8A1B9A16D937D938D939C93139731
:1010700028A939A94AA95BA9ED85FE8560817181FE
:10108000828193810E94693AAD85BE856D937D937F
:101090008D939C9313972F8949895A896B897C89F1
:1010A0008F8598890E94560580910707811123C07A
:1010B0000F5F1F4F0FCF2F8949895A896B897C8910
:1010C000C101E3960FB6F894DEBF0FBECDBFDF912E
:1010D000CF911F910F91FF90EF90DF90CF90BF9035
:1010E000AF909F908F907F906F905F904F903F90C8
:1010F0002F900C945605E3960FB6F894DEBF0FBE02
:10110000CDBFDF91CF911F910F91FF90EF90DF90B6
:10111000CF90BF90AF909F908F907F906F905F9097
:101120004F903F902F9008958F929F92AF92BF92D1
:10113000CF92DF92EF92FF9220910807223009F4BC
:1011400048C04B015C0120E030E040EA51E40E94DD
:10115000C03D0E944D3C0E94E13B6B017C010E941E
:10116000BC1720E030E04AE754E4C501B4010E9416
:10117000C03D4B015C0122E32C9DC0012D9D900DD3
:101180001124BC0180E090E00E94103C9B01AC0166
:10119000C501B4010E94683A0E944D3C0E94E13BA7
:1011A000CB010E94DD2AC114D10499F00E940716D8
:1011B00021E0C21AD1088091070781110AC08FEF80
:1011C00090E722E0815090402040E1F700C000000D
:1011D000EACFFF90EF90DF90CF90BF90AF909F90BD
:1011E0008F9008950E940E2B84E00E94992B83E03B
:1011F0000E94992B0E94071680910707811104C055
:101200000E94DF090C94192B0895CF92DF92EF9280
:101210000F931F93CF93DF9300D01F92CDB7DEB70C
:10122000FC0180910807823009F480C0122F6F0101
:1012300049835A836B837C830E94BC1710922307D7
:10124000802F0E941C2F0E942D2F49815A816B8173
:101250007C81882391F09FB7F89480912707806163
:10126000809327079FBF49835A836B837C830E94A7
:1012700007167C816B815A81498180910707811112
:1012800055C0212FC6010E94560581E08093260794
:101290009FB7F894809125078260809325079FBFB0
:1012A0000E94071680910707811140C080910807AE
:1012B0008111F6CF809126078130A9F4EE2051F0FC
:1012C0008CE0EBE0F7E0A7E1B7E001900D928A95A2
:1012D000E1F70CC09FB7F894809127078061809355
:1012E00027079FBF03C081E0809323071092260742
:1012F0000E94071680910707811118C00E948A1A60
:101300000E9453260E94E9296BE077E0C6010E9403
:1013100019360F900F900F900F90DF91CF911F9182
:101320000F91EF90DF90CF900C9472310F900F904F
:101330000F900F90DF91CF911F910F91EF90DF9061
:10134000CF9008958091250784FD26C09FB7F8941B
:10135000809125078061809325079FBF0E945014CC
:101360000E94F61480910807982F9C7021F49091A8
:101370000907913089F49FB7843029F4F89480915B
:101380002707806204C0F8948091270788608093C3
:1013900027079FBF0C94ED1708958FE3E8E2F7E06D
:1013A000DF011D928A95E9F76BE477E080E00E9407
:1013B000A423811103C087E00C94982F08956BE05B
:1013C00077E08FE397E00C9419362F923F924F927B
:1013D0005F926F927F928F929F92AF92BF92CF92C5
:1013E000DF92EF92FF920F931F93CF93DF93CDB7CE
:1013F000DEB7AA970FB6F894DEBF0FBECDBF6C0163
:1014000089E3E7E6F7E0DF011D928A95E9F78AE0D4
:10141000E8E2F7E0A8E6B7E001900D928A95E1F7DF
:101420001D8E212C312C812C912C18A2F12C1E8E7A
:10143000AA24A394B12CEE24E3948D8DF601E80F39
:10144000F11D0081002309F46CC29FEB900F9A31CB
:1014500010F00C94C6138F5F8D8FAE01475E5F4F07
:10146000BE01635E7F4FC6010E941D2A882311F4CE
:101470000C94C813498C5A8C6B8C7C8CC301B201C0
:101480000E94A33E0E94E13B162F70E080E090E0B6
:101490000E94123C9B01AC01C301B2010E94683A58
:1014A00020E030E048EC52E40E94C03D0E942D3E16
:1014B0000E94E13B073421F00D3409F42FC173C1C0
:1014C000183209F400C1E8F4143160F4113108F065
:1014D000A5C0143009F44AC008F45AC01A30D1F13A
:1014E0000C94D4131C31B1F128F4163108F4C5C0A2
:1014F0000C94D4131E3171F1163209F449C00C94C6
:10150000D4131D3309F4D9C0A0F41533E1F140F42C
:101510001B3209F4BBC0113309F4B8C00C94D413C6
:101520001C3310F00C94D413165310936E0789E0FB
:10153000CDC01C3540F41A3508F07FC0103509F4D1
:1015400069C00C94D4131C3529F01F3508F48CC0E5
:101550000C94D4136115710511F00C94E413BE8D35
:10156000BB2311F40C94F1130C94CA13E092670797
:101570000DC01F3110F40C940714153311F00C94A6
:101580001414B1E0BE8FE7E0E093670780E09EC0EF
:101590008E8D81110C94CA1392E09E8F123089F0C7
:1015A00028F4112359F0113081F08FC0163281F0E8
:1015B000103581F1133009F088C007C01092680718
:1015C00084C0AE8DA093680780C0109368077DC06B
:1015D0006E317105B1F048F46431710511F00C946D
:1015E000D413B4E0B093680713C06832710569F092
:1015F0006233710511F00C94D41327E0209368072F
:1016000007C0E5E0E093680703C0F6E0F0936807E1
:1016100081E074C038E03093680757C0123129F078
:10162000133139F010926C0702C0E0926C0782E02F
:101630004DC082E080936C0749C06115710549F483
:101640001A3519F410926B0702C0E0926B0783E021
:1016500055C06A30710511F00C94D4131A3511F489
:101660000C94D41384E04AC01D3519F4E092690744
:1016700002C01092690785E029C0143119F4E09284
:101680006A0702C010926A0786E020C08E8D811121
:101690000C94CA13113331F410926D0788E093E073
:1016A0009E8F2CC06A30710511F00C94D413E09217
:1016B0006D0788E0A3E0AE8F21C0672B11F00C947A
:1016C000D4138AE01BC087E001C081E0672BB1F032
:1016D0000C94ED131C3111F00C942E14F1E0FE8FDC
:1016E0006115710511F40C9412146A30710511F032
:1016F0000C94D41334E03093670780E0F50102C006
:10170000EE0FFF1F8A95E2F7CF019F0128213921B3
:10171000232B09F445C085E10C943714672B11F095
:101720000C94ED13163018F4133058F017C018301D
:1017300010F40C94D4131A3000F11E3159F00C94AB
:10174000D413123039F01E3129F0111120C0E0926B
:101750006F071DC082E080936F0719C0143029F015
:10176000153039F0E092710706C082E0809371076E
:1017700002C0109271078CE00BC0193021F082E09A
:101780008093700702C0109270078DE001C08BE05B
:10179000950102C0220F331F8A95E2F7C901B6CF27
:1017A000882A992A4ACE802F000F990BAA0BBB0BCF
:1017B000FC01E654F109E531F10510F00C94D41365
:1017C0008827EE58FF4F8F4F0C94F73E40927207D8
:1017D00050927307609274077092750780E07FC023
:1017E0004092760750927707609278077092790757
:1017F00038A1316038A381E072C040927A075092DC
:101800007B0760927C0770927D0788A1826088A325
:1018100082E065C040927E0750927F076092800709
:101820007092810798A1946098A383E058C01093A8
:10183000820784E054C0C301B2010E94DA3B609386
:10184000830770938407809385079093860785E0CC
:1018500046C040928707509288076092890770922D
:101860008A0786E03CC040928B0750928C076092BA
:101870008D0770928E0787E032C040928F0750929A
:101880009007609291077092920788E028C040927A
:101890009407509295076092960770929707AF2D24
:1018A000A160FA2E8AE01BC04092980750929907D7
:1018B00060929A0770929B07BF2DB260FB2E8BE05F
:1018C0000EC040929C0750929D0760929E077092B6
:1018D0009F07EF2DE460FE2E8CE001C089E08501BA
:1018E000082E02C0000F111F0A94E2F7980122216E
:1018F0003321232B09F050C721E633E002C0359590
:1019000027958A95E2F720FF09C020E030E0A90181
:10191000C301B2010E945E3B87FD40C7202A312AE5
:101920008CCDFF2029F03E8D311102C082E08E8FD8
:1019300025FE0EC08091830790918407A0918507B2
:10194000B091860780389649A849B1050CF028C7A0
:1019500080916907813031F4FE8DF230A1F520FECF
:1019600029C731C08091290781112DC020FE1BC0DD
:1019700080916A07813039F523E333E34BEC51E47E
:101980006091720770917307809174079091750749
:101990000E94C03D60937207709373078093740731
:1019A0009093750710C08091360790913707A091EA
:1019B0003807B09139078093720790937307A0930B
:1019C0007407B093750730FC10C080913207909176
:1019D0003307A0913407B091350780938F07909318
:1019E0009007A0939107B093920780916707813089
:1019F00031F426FC02C08CE13AC7E89426F88091C5
:101A00006C07882371F0813031F421E028A71FA2F0
:101A100032E03EA30BC018A682E08FA391E09EA304
:101A200005C0A2E0A8A7B1E0BFA31EA280916A07EB
:101A3000813021F0EE8DE33091F52AC0E4E9CE2E1D
:101A4000E7E0DE2E00E010E0AF2CB12CC501002E47
:101A500002C0959587950A94E2F780FF10C023E3B2
:101A600033E34BEC51E4D6016D917D918D919C91C6
:101A70000E94C03DF60160837183828393830F5F70
:101A80001F4FF4E0CF0ED11C03301105F9F6D2CF71
:101A900080916D07813019F424E0F21283C68CE046
:101AA000EBE4F7E0DE011D9601900D928A95E1F7D7
:101AB00091FC09C0309167073F8F3230B9F0383060
:101AC00009F4AEC00EC180916E07873010F08DE131
:101AD000CEC690912E07981769F3BE01635F7F4FC2
:101AE0000E94A423882309F46DC6E4CFF11002C03C
:101AF0008AE1BDC6C10180759927892B09F47BCF86
:101B000060918707709188078091890790918A0773
:101B10000E94A33E0E94E13B6730C8F68091820795
:101B2000843129F0823009F03FC627FC3DC68FEA98
:101B30002822662319F061506F8F03C090916E07C1
:101B40009F8FBE016F5F7F4F8F8D0E94A4238823DC
:101B500009F438C6E090820740906307509064070C
:101B600060906507709066078E010F5F1F4FA12C74
:101B7000B12CC12CD12C8F2C912CC4010C2C02C067
:101B8000959587950A94E2F780FF3CC0D501A95945
:101B9000B84FBDA3ACA3B4E1EB1229C0F501E85DD9
:101BA000F84F27A530A941A952A96789708D818D69
:101BB000928D0E94683AECA1FDA125A536A547A506
:101BC00050A90E94683AD8016D937D938D939C93A0
:101BD0001397B2E0CB16D104A9F4A30192010E949D
:101BE000683AF80160837183828393830BC0ECA110
:101BF000FDA185A596A5A7A5B0A9F801808391832D
:101C0000A283B383FFEFCF1ADF0A0C5F1F4F24E0DC
:101C1000A20EB11C33E0C316D10409F0AECF12C13D
:101C2000FF2009F465CF40906307509064076090EF
:101C300065077090660704E917E0A12CB12CC12C50
:101C4000D12C8F2C912CF501E85DF84FC4010C2CA0
:101C500002C0959587950A94E2F780FF2BC0ADE00E
:101C6000B0E0AC0FBD1FAA0DBB1D2D913D914D9154
:101C70005C916789708D818D928D0E94683AD80140
:101C80002D913D914D915C910E94683AF8016083DD
:101C9000718382839383F2E0CF16D104A1F4A30170
:101CA00092010E94683AD8016D937D938D939C9325
:101CB000139709C087A590A9A1A9B2A9F8018083AB
:101CC0009183A283B383FFEFCF1ADF0A0C5F1F4F0C
:101CD00024E0A20EB11C33E0C316D10409F0B3CF47
:101CE000B0C08E8D833059F49F8D953009F491C02A
:101CF000973009F4A1C0933009F0A3C082C0FF203F
:101D000009F494C0E0906B0740906307509064071B
:101D100060906507709066077FE3A72E77E0B72E87
:101D200004E917E04E01ADE08A0E911CC12CD12CC4
:101D3000EF2DF0E0FDA3ECA38CA19DA10C2C02C023
:101D4000959587950A94E2F780FD0BC0F501808197
:101D50009181A281B381F80180839183A283B383AF
:101D60003FC0FF8DF730E1F1E11029C0D501589651
:101D70002D913D914D915C915B97F4016081718152
:101D8000828193810E94693AD8012D913D914D91B4
:101D90005C910E94693AF801608371838283938326
:101DA000F2E0CF16D104E1F4A30192010E94693A56
:101DB000D8016D937D938D939C93139711C0F5017A
:101DC0002081318142815381D8016D917D918D9126
:101DD0009C910E94693AF8016083718382839383A6
:101DE000FFEFCF1ADF0A24E0A20EB11C0C5F1F4FD9
:101DF00034E0830E911C83E0C816D10409F09CCF17
:101E000073CFF11001C01E8EBE016F5F7F4F86E061
:101E100007C0F11001C01E8EBE016F5F7F4F87E0CB
:101E20000E94A423882309F4CDC40BC0AF8DA53034
:101E300091F3A73009F017C580916807823008F048
:101E4000B5C41F8E10916807183041F4FF2009F4C3
:101E5000B5C19E8D913009F0ABC48EC2AE8DA2305B
:101E600009F0ACC11123D9F020E030E0A901609164
:101E700072077091730780917407909175070E94A3
:101E80005E3B882309F496C4143028F4123058F4C9
:101E9000113029F071C2183008F44FC16DC2FF2013
:101EA00009F48FC169C2FF2009F422CEFEA1EF2FF1
:101EB000F0E0FDA3ECA33FA1232F30E03AA729A730
:101EC00081E090E08C010FA002C0000F111F0A9466
:101ED000E2F70EA002C0880F991F0A94E2F7082BC0
:101EE000192B8F2D90E080239123892B09F464C452
:101EF000CF01880F991F880F991FFC01E959F84FEE
:101F0000DC01A85DB84F57962D913D914D915C91A4
:101F10005A9765A576A587A590A90E94683A6B0196
:101F20007C0189A59AA5880F991F880F991FFC012C
:101F3000E959F84FDC01A85DB84F57962D913D91B6
:101F40004D915C915A9765A576A587A590A90E94A9
:101F5000683A4B015C0127FE40C0E89427F82091C5
:101F6000940730919507409196075091970760919B
:101F70003F077091400780914107909142070E946E
:101F80005E3B811123C120919807309199074091C0
:101F90009A0750919B076091430770914407809185
:101FA0004507909146070E945E3B81110FC1209129
:101FB0009C0730919D0740919E0750919F0760912B
:101FC0004707709148078091490790914A070E94FE
:101FD0005E3B8111FBC081E24AC4F8A14F2E512C17
:101FE00004211521012B09F4E9C321EF222280915C
:101FF0006A07813009F45AC009A51AA5000F111FFC
:10200000000F111F0559184FD8011B962D913D91B6
:102010004D915C911E97C501B4010E94683A2B0155
:102020003C018CA19DA1880F991F880F991FFC016D
:10203000E559F84F5F012385348545855685C701ED
:10204000B6010E94683AA30192010E94E82A6B013E
:102050007C01D8011B962D913D914D915C911E976D
:10206000F50163857485858596850E94E82A4B0174
:102070005C0160938B0770938C0780938D0790931E
:102080008E079B01AC01C701B6010E94683A6B0143
:102090007C01E894F7F82AE037ED43EA5BE3C701F7
:1020A000B6010E94803D18165CF166C187E6682E75
:1020B00087E0782E00E010E0C201002E02C0959566
:1020C00087950A94E2F780FF12C023E333E34BECD9
:1020D00051E4D3011F966D917D918D919C91529702
:1020E0000E94C03DF3016787708B818B928B0F5FDD
:1020F0001F4FF4E06F0E711C03301105E9F67CCF21
:1021000020E030E040E05FE3C701B6010E94803D7F
:1021100018160CF460CF2FE632E143E85AE3C5010C
:10212000B4010E94C03D9B01AC01C701B6010E94F1
:10213000803D18160CF44FCF1FC1FF2009F4D8CCF6
:1021400020919407309195074091960750919707F9
:1021500060913F077091400780914107909142073D
:102160000E945E3B811108C1209198073091990728
:1021700040919A0750919B076091430770914407E3
:1021800080914507909146070E945E3B8111F4C003
:1021900020919C0730919D0740919E0750919F0789
:1021A00060914707709148078091490790914A07CD
:1021B0000E945E3B882309F40ECFDEC02E8D2111D4
:1021C000DBC0C1018E7D9C7F1E8ED9C080916A07C5
:1021D0008130B1F423E333E34BEC51E460918B079E
:1021E00070918C0780918D0790918E070E94C03D61
:1021F00060938B0770938C0780938D0790938E0765
:1022000040908B0750908C0760908D0770908E07E0
:1022100020E030E040E850E4C301B2010E94C03D3C
:10222000A30192010E94C03D2B013C01A701960130
:10223000C701B6010E94C03D9B01AC01C301B201C0
:102240000E94683A2B013C01A5019401C501B4012B
:102250000E94C03D9B01AC01C301B2010E94683ADB
:102260002B013C0120E030E0A9010E945E3B87FD8C
:10227000B6C2C301B2010E945F3E2B013C01A50121
:102280009401C701B6010E94E82A9B01AC01C30179
:10229000B20190580E94683B2B013C018091680775
:1022A000833021F477FA709477F8709480918B07DB
:1022B00090918C07A0918D07B0918E0788A399A368
:1022C000AAA3BBA320E030E0A901BC01CD010E947C
:1022D0005E3B87FF11C077FA709477F8709488A1FD
:1022E00099A1AAA1BBA1B05880938B0790938C07AA
:1022F000A0938D07B0938E070CA11DA1000F111F95
:10230000000F111F0559184FA3019201C501B40117
:102310000E94C03D9B01AC01C701B6010E94683A12
:1023200020E030E040E05FE30E94C03DD8011B9612
:102330006D937D938D939C931E9709A51AA5000F0D
:10234000111F000F111F0559184FA3019201C7015A
:10235000B6010E94C03D9B01AC01C501B4010E94C1
:10236000693A20E030E040E05FE30E94C03DF801C0
:102370006387748785879687C1018E7D907E892BC0
:1023800009F01EC28091830790918407A091850770
:10239000B091860780933B0790933C07A0933D073D
:1023A000B0933E0780916907809329078091720757
:1023B00090917307A0917407B091750780933607C9
:1023C00090933707A0933807B0933907C0908F07D1
:1023D000D0909007E0909107F0909207A7019601A6
:1023E00060913207709133078091340790913507DF
:1023F0000E945E3B8823C1F080913107882321F041
:10240000B701A6010E94CE1480918F07909190078A
:10241000A0919107B0919207809332079093330770
:10242000A0933407B09335078091930780933A07C0
:102430008091710790913107981771F040913207A0
:102440005091330760913407709135070E94CE1484
:1024500080917107809331078091700790913007C8
:10246000981731F00E940D15809170078093300706
:1024700080916707813051F46091870770918807D8
:102480008091890790918A070E94940880916C0737
:1024900080932C0780916A0780932A073E8D333002
:1024A000F9F480916D0780932D07813089F4809134
:1024B0009C0790919D07A0919E07B0919F078093E4
:1024C000630790936407A0936507B093660708C0FD
:1024D00010926307109264071092650710926607C6
:1024E00080916E0790912E07981759F080932E07D0
:1024F0008CE0FE013D96ABE4B7E001900D928A9529
:10250000E1F780916B0780932B07E09167078E2F8F
:1025100090E0FC013297E830F10508F04DC08827C3
:10252000E957FF4F8F4F0C94F73EBE016F5F7F4F0F
:102530008F8D0E94582280912E079F8D89133CC059
:102540008CE0FE013196ABE4B7E01AC0AE8DAA2351
:1025500049F020E040E050E060E87FEB84E997E05C
:102560000E94560520E040E050E060E87FEBCE019D
:1025700001960E9456058CE0FE013196AFE3B7E06C
:1025800001900D928A95E1F717C06FE377E086E03E
:1025900003C06FE377E087E00E9458220DC08CE013
:1025A000E4E9F7E0A7E5B7E0EBCF8CE0E7E5F7E09B
:1025B000DF011D928A95E9F78091680780932807CB
:1025C000883009F49AC0BE8DB23009F096C090E010
:1025D0008830910508F088C0FC018827E157FF4F3B
:1025E0008F4F0C94F73E20E040E050E060E87FEB36
:1025F0000AC04091360750913707609138077091B3
:1026000039072091290784E997E00E9456056CC09C
:10261000C0903607D0903707E0903807F090390720
:1026200000918B0710918C0720918D0730918E07B8
:1026300081E08F93E8A5EF93FFA1FF9315C0C090B1
:102640003607D0903707E0903807F09039070091AF
:102650008B0710918C0720918D0730918E071F9268
:1026600088A58F939FA19F938EA0A090290746E7EE
:1026700057E064E977E08FE397E00E94A4050F90AC
:102680000F900F9031C040913607509137076091FD
:10269000380770913907E12C0AC0409136075091F4
:1026A00037076091380770913907EE24E39400E012
:1026B00015C04091360750913707609138077091E7
:1026C0003907E12C0AC040913607509137076091D5
:1026D000380770913907EE24E39401E0209129072F
:1026E00084E997E00E9405098CE0E4E9F7E0AFE3B4
:1026F000B7E001900D928A95E1F780916F07809382
:102700002F07882309F4B3C00E94BC1790912F07AC
:1027100080910807913069F48230A1F19FB7F89455
:10272000809125078860809325079FBF0E94071628
:1027300029C091E09093280710922C0710922B0744
:102740001092290710922E0710923107109230072D
:102750008230A9F0BE01635F7F4F80E00E94A42316
:10276000882381F18CE0FE013D96ABE4B7E0019057
:102770000D928A95E1F70E9450140E94F61487E0AA
:102780000E94CA2F10922F0780E071C081E06FC0B5
:1027900082E06DC088E16BC089E169C084E067C0F8
:1027A0008BE165C085E263C084E161C08EE15FC0FA
:1027B0008FE15DC086E15BC080E259C083E257C013
:1027C00084E255C087E053C01E3189F0C8F51A3045
:1027D00021F11C3111F40C94700B87E148C082E2A6
:1027E00046C01E3111F00C94B90A81E08E8F61153C
:1027F000710541F06A307105B9F6A6E0A09367074C
:102800000C947D0B95E0909367070C947D0B1A3028
:1028100011F00C946A0BE1E0EE8F82E08093670781
:102820000C94C60A23E008C01C35C1F4F1E0FE8F09
:102830006115710561F428E0209367070C947D0B06
:10284000153311F40C94C30A1C3591F3C6CF6A30CA
:10285000710509F0A9CF39E00C947B0B80E0B1E061
:10286000BE8F0C947E0BA33009F0EBCACCCAAA969B
:102870000FB6F894DEBF0FBECDBFDF91CF911F9191
:102880000F91FF90EF90DF90CF90BF90AF909F900F
:102890008F907F906F905F904F903F902F90089512
:1028A000E0EAF0E080818F7D8083E2E0F1E08081EA
:1028B000877F80830895E1E0F1E0808180618083FB
:1028C0008081886080836B9A0C945014CF92DF9241
:1028D000EF92FF926A017B01811106C0FF90EF9099
:1028E000DF90CF900C945014813011F4739801C094
:1028F000739A83E28093A0008091A100807E8A6118
:102900008093A1008FEF9FEF9093A9008093A80080
:1029100020E030E0A901C701B6010E945E3B181615
:10292000ECF620E030E0A901C701B6010E945E3B51
:1029300087FD11C020E030E04AE754E4C701B6014A
:102940000E94803D181654F4C12CD12C8AE7E82E41
:1029500084E4F82E03C0C12CD12C76012CEE31E199
:1029600043E852E4C701B6010E94C03D20E030E0D8
:1029700040E05FE30E94693A0E944D3C0E94E13BC7
:102980007093AB006093AA008091020188608093ED
:102990000201FF90EF90DF90CF900895CF93DF93E7
:1029A00000D01F921F92CDB7DEB7909108079230EA
:1029B000A9F04A835B836C837D8389830E94BC1763
:1029C0004A815B816C817D8189810F900F900F908E
:1029D0000F900F90DF91CF910C9466140F900F9091
:1029E0000F900F900F90DF91CF910895E2E0F1E00A
:1029F00080818F7D80830895E1E0F1E080818062B5
:102A000080830C94F614823031F48091020180624C
:102A10008093020108950C94F614CF93DF931F92D4
:102A2000CDB7DEB790910807923049F089830E94B4
:102A3000BC1789810F90DF91CF910C9403150F90F3
:102A4000DF91CF9108959091CC028091CD028917AA
:102A500008F48058891B0895E0ECF0E080818260E2
:102A600080831092C50080E18093C400E1ECF0E027
:102A7000808180618083808188608083808180689C
:102A800080830895E091CB0291E09E0F903431F461
:102A900090E004C02091250724FD0FC02091CA02B8
:102AA0009217C1F3F0E0E056F84F80839093CB0289
:102AB0008091C10080628093C10008951F920F929F
:102AC0000FB60F9211240BB60F928F939F93EF9333
:102AD000FF938091CA02E82FF0E0E056F84F908112
:102AE0009093C6008F5F803409F480E08093CA021F
:102AF0009091CB02891305C08091C1008F7D809396
:102B0000C100FF91EF919F918F910F900BBE0F909D
:102B10000FBE0F901F9018959091CC028091CD021E
:102B2000891761F0E92FF0E0E052F84F80819F5F54
:102B3000903809F490E09093CC0208958FEF0895B7
:102B40001F920F920FB60F9211240BB60F922F9374
:102B50003F934F935F936F937F938F939F93AF9325
:102B6000BF93EF93FF938091C6008F33A9F050F489
:102B7000883109F1813211F59FB7F89480912507CA
:102B8000886015C0803471F08E37C1F49FB7F89417
:102B90008091250782600BC09FB7F894809125072C
:102BA000816005C09FB7F89480912507806280936B
:102BB00025079FBF14C00E94A20911C0E091CD0259
:102BC00091E09E0F903809F490E02091CC0292178A
:102BD00031F0F0E0E052F84F80839093CD02FF9106
:102BE000EF91BF91AF919F918F917F916F915F9185
:102BF0004F913F912F910F900BBE0F900FBE0F90F2
:102C00001F9018958091CD028093CC020895EF9289
:102C1000FF920F931F93CF93DF93D1E008E080E200
:102C2000F82E10E190E4E92EC0912707CC2389F11A
:102C3000D0930807C1FF02C081E00FC0C2FF02C0ED
:102C400082E00BC0C3FF02C083E007C0C4FF02C024
:102C500084E003C0C5FF03C085E00E94A02FC0FD33
:102C600008C08FB7F89490912707109227078FBF5D
:102C700010C081E00E94CA2F9FB7F8948091250769
:102C80008F7E809325079FBF8091250784FFFCCF0F
:102C9000E8CFC0912507CC2309F4C0C0C4FF04C00D
:102CA00081E080930707D2C0C0FF0AC00E940833AA
:102CB0009FB7F894809125078E7F809325079FBF4B
:102CC0008C2F887609F43CC080910807882349F04E
:102CD000982F9C7769F1883021F40E94D81AD093FC
:102CE000090780910807811103C092E090930907BA
:102CF000C6FF09C0883011F4E092080780910907E7
:102D0000886080930907C3FF05C08091080785FF8D
:102D100010930807C5FF0CC086E00E94CA2F80915F
:102D2000090781FDC460846080930907F092080759
:102D30009FB7F894809125078779809325079FBFD7
:102D4000C1FF48C08C2F8876E9F580910807882359
:102D500031F08075B9F18091090781FF33C080910E
:102D6000090782FF1CC080913107882371F04091D0
:102D700032075091330760913407709135070E94F4
:102D8000661480EA9FE00E94DD2A80913007882344
:102D900031F00E94031588EE93E00E94DD2A0E9424
:102DA0007826892B59F08091090783FD07C000938D
:102DB00008070E94FA1A0E94CD1702C01092080755
:102DC000109209079FB7F894809125078D7F809313
:102DD00025079FBFC2FF22C080910807807391F032
:102DE00080910A0781110EC08091090782FF04C0FB
:102DF0000E9450140E94F61480910907826080930B
:102E0000090704C010920907109208079FB7F894A9
:102E1000809125078B7F809325079FBF80910807AE
:102E20008C7711F00E94FA1A80910807803251F4D1
:102E30008091090781FF06C00E945C34811102C0A5
:102E400010930807809109078111EECEDF91CF9191
:102E50001F910F91FF90EF9008959FB7F894809184
:102E600025078260809325079FBF0895CF93DF9346
:102E70000E94FB2F80910807813021F482E00E949C
:102E8000CA2F12C00E945C34882341F0809125072C
:102E90008062809325070E94071602C010920807DF
:102EA0008EEC92E00E945E34C0E0D0E00E943A3A9C
:102EB0000E948C158F3F09F453C08A3011F08D3079
:102EC00019F5EC2FF0E0E253FD4F10820E94071637
:102ED0008091070781113DC08091CE02882331F097
:102EE000843239F48EEC92E00E947E340E94982F56
:102EF00030C080910807813011F489E0F7CF8EEC63
:102F000092E00E94E509F2CFDD2329F0893281F6B3
:102F1000D13071F61FC0813258F28F3249F28832B7
:102F2000D9F08B33D9F0CF3428F08BE00E94982F62
:102F3000C0E0BECF2C2F30E0E1E0EC0F9FE9980F0E
:102F4000D901A253BD4F9A3108F480528C93CE2FF1
:102F5000AFCFC0E0D0E0ACCFD1E0AACFD2E0A8CFD5
:102F60000E942D170E94071680910707882309F4F5
:102F70009DCFDF91CF9108950E942D170E940716D3
:102F800080910707811108C00E947826892BB1F72C
:102F900080910807883091F3089580919D0882FF01
:102FA00002C02F9A01C02F98809108078C70A1F061
:102FB00080914E038093620380914F03809361035D
:102FC00080919008880F8450819580936003809150
:102FD0006F00826080936F00089580916F008D7FF5
:102FE00080936F0080918100887F81608093810051
:102FF00010924D03809193088F3F21F49091270701
:10300000992349F090910807943029F090E00E94AC
:10301000DD2A81E001C080E090919D0892FF02C00E
:1030200091E08927882311F02F9A08952F98089509
:103030001F920F920FB60F9211240BB60F922F937F
:103040003F934F935F936F937F938F939F93AF9330
:10305000BF93EF93FF9380914D038111F8C188B125
:1030600090916203907E8F71892B88B982B1837EA3
:1030700090916103892B82B98091600386BD82E0C3
:1030800085BD81E080934D03789480917403909185
:103090007503892B09F0ADC08091520390915103C3
:1030A000981709F49BC0E09152032E2F30E086E080
:1030B000E89FF0011124EA58FC4FF0937503E09368
:1030C0007403838194819093890080938800808128
:1030D00091819093700380936F03E28180917103DB
:1030E0008E1761F1E093710381E1E89FF0011124F3
:1030F000E656FC4FF0937303E09372038585968543
:10310000A785B089B695A7959795879580935B031A
:1031100090935C03A0935D03B0935E038093570389
:1031200090935803A0935903B0935A038093530389
:1031300090935403A0935503B0935603E091720308
:10314000F091730390914E038081892780936203ED
:1031500086E0829FD001839FB00D1124AA58BC4FF6
:1031600015962C9181819281A381B481022E04C095
:10317000B695A795979587950A94D2F780936303A0
:1031800090936403A0936503B09366038581968151
:10319000A781B085022E04C0B695A795979587950F
:1031A0000A94D2F78093670390936803A09369030E
:1031B000B0936A0381859285A385B48504C0B695D2
:1031C000A795979587952A95D2F780936B0390934F
:1031D0006C03A0936D03B0936E030BC00E94ED17B8
:1031E0009FB7F894809125078460809325079FBF3F
:1031F0002EC10E94342F10926103409163035091BD
:10320000640360916503709166038091530390910C
:103210005403A0915503B0915603840F951FA61F28
:10322000B71F8093530390935403A0935503B09317
:103230005603E0917203F0917303458556856785C7
:103240007089481759076A077B0768F524E02093BF
:1032500061034585568567857089841B950BA60B90
:10326000B70B8093530390935403A0935503B093EB
:103270005603208180910B0790910C07A0910D07B8
:10328000B0910E0727FF04C00197A109B10903C03F
:103290000196A11DB11D80930B0790930C07A0937D
:1032A0000D07B0930E07409167035091680360913A
:1032B000690370916A038091570390915803A0911C
:1032C0005903B0915A03840F951FA61FB71F80930F
:1032D000570390935803A0935903B0935A0345851D
:1032E000568567857089481759076A077B0778F5FF
:1032F0002091610328602093610345855685678589
:103300007089841B950BA60BB70B80935703909382
:103310005803A0935903B0935A03208180910F075B
:1033200090911007A0911107B091120726FF04C0D9
:103330000197A109B10903C00196A11DB11D809398
:103340000F0790931007A0931107B09312074091B5
:103350006B0350916C0360916D0370916E038091CB
:103360005B0390915C03A0915D03B0915E03840FB9
:10337000951FA61FB71F80935B0390935C03A093D8
:103380005D03B0935E034585568567857089481750
:1033900059076A077B0778F5209161032061209324
:1033A00061034585568567857089841B950BA60B3F
:1033B000B70B80935B0390935C03A0935D03B09382
:1033C0005E0320818091130790911407A091150747
:1033D000B091160725FF04C00197A109B10903C0E8
:1033E0000196A11DB11D8093130790931407A0931C
:1033F0001507B093160780910807843039F490912F
:1034000024078091610389238093610380916F0376
:103410009091700301979093700380936F03892BB1
:1034200069F41092750310927403809152038F5FB8
:1034300080935203863011F41092520390914F03FF
:103440008091610389278093610310924D03FF915E
:10345000EF91BF91AF919F918F917F916F915F910C
:103460004F913F912F910F900BBE0F900FBE0F9079
:103470001F9018951F920F920FB60F9211248F93E1
:103480009F9382B190914F039C71837E892B82B967
:1034900015BC9F918F910F900FBE0F901F901895A4
:1034A0000F931F93CF93DF9310924F0310924E030D
:1034B000C0E0D0E01C2F0C2F2091910830E08C2F21
:1034C0000C2E02C0359527950A94E2F720FF07C01D
:1034D0000E94EA2490914F03892B80934F032091FF
:1034E000920830E002C0359527950A95E2F720FF53
:1034F00008C0812F0E94F42490914E03892B809361
:103500004E032196C330D105A9F6DF91CF911F91CB
:103510000F9108950E94ED178BE2EEE1F3E0DF01D9
:103520001D928A95E9F783E2E3E5F3E0DF011D925E
:103530008A95E9F710924C0310924B0310925203B4
:103540001092510381E08093500310924D030E942A
:10355000501A82B1837E90914F03892B82B988B132
:103560008F7190914E03892B88B9089581B18C6138
:1035700081B9279A87B1806E87B9E1E8F0E0808150
:103580008F7E8083808188608083E0E8F0E08081A6
:103590008C7F808380818F708083EEE6F0E0808175
:1035A000887F808314BC15BC8081816080830895EE
:1035B000CF93DF93C0914B03D0914C032097B9F088
:1035C00081E080931F0360913503709136038091F1
:1035D0003703909138039B01AC010E94C03D698B79
:1035E0007A8B8B8B9C8B10924C0310924B03DF9148
:1035F000CF9108952F923F924F925F926F927F9258
:103600008F929F92AF92BF92CF92DF92EF92FF92F2
:103610000F931F93CF93DF93CDB7DEB7E8970FB625
:10362000F894DEBF0FBECDBF80910807807709F404
:10363000FBC020E030E0A9016091350370913603B2
:1036400080913703909138030E945E3B8111ECC05A
:1036500057C62FA138A549A55AA5B80188AD9FA97D
:103660000E94803D18160CF448C53D853093300308
:10367000832D922DA981BD818093350390933603CC
:10368000A0933703B09338038091240390912503CE
:10369000A0912603B09127038D879E87AF87B88BB3
:1036A000980148AD5FA9BC01CD010E94C03D69836E
:1036B0007A838B839C830E94473B6B017C016091E2
:1036C00020037091210380912203909123030E9493
:1036D000473B4B015C01A70196010E94683A0E949A
:1036E000E13B6D837E838F83988726E0A985BA8529
:1036F0002A9FF0012B9FF00D1124EA58FC4F4D81B9
:103700005E8151834083CA01892B09F41AC5209137
:103710002C0330912D0340912E0350912F03C301B0
:10372000B2010E94693A2B013C0129813A814B8107
:103730005C81C501B4010E94683A9B01AC01C301E0
:10374000B2010E94683B4B015C0129813A814B81A7
:103750005C81C701B6010E94683AA50194010E94EC
:10376000C03D60932C0370932D0380932E039093A0
:103770002F0320EC31EE44E65EE4C501B4010E9463
:10378000C03D0E94473B0E94E13B603DB7E07B07A4
:103790008105910508F0FDC446E029853A85429FE0
:1037A000F001439FF00D1124EA58FC4F158246E0CA
:1037B00029853A85429FF001439FF00D1124EA5874
:1037C000FC4F7483638380915003809351038F5F18
:1037D000863009F437C5809350032091310330912E
:1037E00032034091330350913403B80188AD9FA94F
:1037F0000E94803D18160CF028C5E0914B03F09113
:103800004C03C801A8ADBFA985A396A3A7A3B0A7E1
:1038100029813A814B815C812093200330932103DD
:1038200040932203509323039091520380915003BD
:10383000981709F465C580914B0390914C03892B2F
:1038400009F069C20E9478261C0190934C03809372
:103850004B03892B09F454C580911F03109108076D
:10386000882319F010921F03CEC080911E038F5F32
:10387000853019F080931E0302C010921E03E09160
:103880001E0321E12E9FF0011124E656FC4FF09318
:103890004A03E0934903D1018C91808311964D91A5
:1038A0005D916D917C911497DB01CA0123E0880F33
:1038B000991FAA1FBB1F2A95D1F781839283A383E7
:1038C000B483D10115964D915D916D917C911897BE
:1038D000DB01CA0133E0880F991FAA1FBB1F3A956D
:1038E000D1F785839683A783B087D10119964D912F
:1038F0005D916D917C911C97DB01CA0143E0880FBB
:10390000991FAA1FBB1F4A95D1F781879287A3876A
:10391000B487D1011D964D915D916D917C91509729
:10392000DB01CA0153E0880F991FAA1FBB1F5A95DC
:10393000D1F785879687A787B08BF1016585768556
:10394000878590890E94103C609320037093210327
:103950008093220390932303D10195962D913D915D
:103960004D915C9198970E94683B9B01AC016093DC
:10397000240370932503809326039093270360E02C
:1039800070E080EA9FE30E94683B60932803709395
:10399000290380932A0390932B0310922C031092F7
:1039A0002D0310922E0310922F03812F8077D1F0D8
:1039B00060913D0370913E0380913F0390914003DD
:1039C00060933503709336038093370390933803E5
:1039D0009B01AC010E94C03DF101618B728B838B16
:1039E000948B11C0D10151966D917D918D919C91D7
:1039F00054970E945F3E6093350370933603809323
:103A000037039093380310923103109232031092CF
:103A1000330310923403F10181A092A0A3A0B4A0BB
:103A2000A501940160E070E080E09FE30E94683BA4
:103A30002B013C011077D1019596CD90DD90ED9052
:103A4000FC909897112309F44DC0B2E0B093300375
:103A5000D10151962D913D914D915C9154972983BF
:103A60003A834B835C830E94C03D9B01AC01C7013C
:103A7000B6010E94683A2B013C0120E030E0A90128
:103A80000E945E3B87FF1DC0A5019401C501B401E2
:103A90000E94693AA70196010E94C03D9B01AC01BA
:103AA00069817A818B819C810E94683A0E945F3E85
:103AB00060933D0370933E0380933F0390934003D4
:103AC0002AC14092310350923203609233037092C4
:103AD000340310923D0310923E0310923F03109264
:103AE000400319C110923003C0924103D0924203A7
:103AF000E0924303F09244030E9488264B015C014C
:103B000060933D0370933E0380933F039093400383
:103B10009B01AC010E94C03D6D837E838F8398879B
:103B200000914B0310914C03D80195962D913D9136
:103B30004D915C91989729873A874B875C8751967E
:103B40002D913D914D915C91549729833A834B83FC
:103B50005C839B01AC0169817A818B819C810E948D
:103B6000683A9B01AC01C301B2010E94C03D9B01B8
:103B7000AC0169857A858B859C850E94693A20E035
:103B800030E040E05FE30E94C03D6B017C0120E03B
:103B900030E0A9010E94803D18160CF0ACC02985C8
:103BA0003A854B855C85C701B6010E945E3B87FF65
:103BB0008EC0F801858C968CA78CB0A02D813E819B
:103BC0004F815885C501B4010E94683A9B01AC0140
:103BD000C301B2010E94C03D609345037093460348
:103BE0008093470390934803A70196010E945E3B90
:103BF00087FF3DC0C501B4010E945F3E6093390359
:103C000070933A0380933B0390933C03A501940186
:103C100069817A818B819C810E945E3B811104C005
:103C2000F1E0F093300377C029813A814B815C81C8
:103C3000C501B4010E94683A9B01AC01C301B20105
:103C40000E94C03D9B01AC01609141037091420311
:103C500080914303909144030E94683A609341032A
:103C600070934203809343039093440354C0C092E3
:103C70004103D0924203E0924303F0924403C09286
:103C80004503D0924603E0924703F0924803D801DF
:103C900091966D917D918D919C9194979B01AC0132
:103CA0000E94693AA70196010E94C03D2D813E8184
:103CB0004F8158850E94693A0E945F3E60933903A4
:103CC00070933A0380933B0390933C0324C0B2E08B
:103CD000B09330038091350390913603A091370360
:103CE000B09138038093390390933A03A0933B0338
:103CF000B0933C0310C01092410310924203109203
:103D00004303109244038092390390923A03A092A5
:103D10003B03B0923C0380915103E82FF0E0FA8717
:103D2000E98746E09F01429FF001439FF00D112477
:103D3000EA58FC4F80911E03828380914B0390913F
:103D40004C039A8B898BDC019596BC91BBA7FC0137
:103D5000F6A1FCA7DC019796BC91BDA7FC01F0A5DC
:103D6000FEA7209128033091290340912A03509106
:103D70002B036BA57CA58B2F9F2F0E94683A6FA306
:103D800078A789A79AA720E030E0A9010E945E3BAE
:103D900087FF04C01FA218A619A61AA620914103E6
:103DA0002F8B30914203388F40914303498F5091BC
:103DB00044035A8F809139038B8F90913A039C8FE3
:103DC000A0913B03AD8FB0913C03BE8FE0914503C2
:103DD000EF8FF0914603F8A32091470329A3309178
:103DE00048033AA3409130034D873090350320902B
:103DF0003603509137035983809138038D83909116
:103E000031039BA3A0913203ACA3B0913303BDA3B4
:103E1000E0913403EEA320913D0330913E034091A5
:103E20003F03509140032BAB3CAB4DAB5EAB0BA5BE
:103E30001CA53DA538AF4EA54FAB8EE3C82E83EC35
:103E4000D82E8EE2E82E89E3F82E412C512C320137
:103E5000CB8ADC8AED8AFE8A9D85992321F09130F8
:103E600009F482C0B4C0A989BA8991962D913D9177
:103E70004D915C919497C701B6010E94C03D4B01E2
:103E80005C0120E030E040E05FE30E94C03D9B0128
:103E9000AC01632D722D89819D810E94693A9B013D
:103EA000AC01C701B6010E94C03D9B01AC01B80145
:103EB00088AD9FA90E94683A8B0188AF9FAB2F897C
:103EC000388D498D5A8D0E945E3B87FF40C02F89F7
:103ED000388D498D5A8D6BA57CA58DA59EA50E9418
:103EE000683A9B01AC010E94693A6B017C012B8D01
:103EF0003C8D4D8D5E8D632D722D89819D810E943B
:103F0000693A9B01AC01C701B6010E94683B6B0195
:103F10007C012F8D38A149A15AA16F89788D898D97
:103F20009A8D0E945E3B811103C0B2E0BD8702C042
:103F3000E1E0ED873B8C2C8CFD8DF9832E8D2D835C
:103F40000F89188D398D38AF4A8D4FABBFC0A50191
:103F50009401632D722D89819D810E94693A362ECC
:103F6000272E89839D83B2C0A70196016B8D7C8D1E
:103F70008D8D9E8D0E94C03D9B01AC01B80188AD26
:103F80009FA90E94683A4B015C012F8D38A149A17D
:103F90005AA10E945E3B87FF96C02F8D38A149A190
:103FA0005AA1B80188AD9FA90E94683A2B8D3C8D1B
:103FB0004D8D5E8D0E94683B6B017C010F8D18A1B9
:103FC00059A158AF8AA18FAB92E09D877FC0A98984
:103FD000BA8991962D913D914D915C919497C7012D
:103FE000B6010E94C03D4B015C019B01AC01632DF9
:103FF000722D89819D810E94803D1816E4F520E094
:1040000030E040E05FE3C501B4010E94C03D9B0188
:10401000AC01632D722D89819D810E94683A9B01BC
:10402000AC01C701B6010E94C03D9B01AC01B801C3
:1040300088AD9FA90E94683A6FA778AB89AB9AAB0D
:104040002BA13CA14DA15EA10E94803D18169CF4BD
:10405000A5019401632D722D89819D810E94683A8A
:10406000362E272E89839D830FA518A9B9A9B8AF2D
:10407000EAA9EFAB2BC02BA13CA14DA15EA1B801D9
:1040800088AD9FA90E94683A9B01AC010E94693AE1
:104090006B017C012BA93CA94DA95EA9632D722D52
:1040A00089819D810E94693A9B01AC01C701B601DB
:1040B0000E94683B6B017C010BA11CA1FDA1F8AF24
:1040C0002EA12FAB03C08401A8AEBFAAA701960101
:1040D000C301B2010E94693A2B013C012B893C8942
:1040E0004D895E890E945E3B87FFB3CAA30192019E
:1040F0006B897C898D899E8910C02EE333EC4EE25A
:1041000059E36B897C898D899E890E94693A6B8B02
:104110007C8B8D8B9E8BA30192010E94683A6B0170
:104120007C012BA13CA14DA15EA1B80188AD9FA946
:104130000E94803D18160CF48FCE9D85909330031D
:1041400097CA80910807807709F4E1CA1092350375
:1041500010923603109237031092380310922C03FA
:1041600010922D0310922E0310922F03C092200361
:10417000D0922103E0922203F09223032D853E8505
:104180004F855889C701B6010E94683BA989BA8941
:1041900090C0603A5FE075078105910560F426E004
:1041A000A985BA852A9FF0012B9FF00D1124EA58AA
:1041B000FC4F31E011C060344FE174078105910577
:1041C00068F426E0A985BA852A9FF0012B9FF00D9F
:1041D0001124EA58FC4F32E035830CC0A6E0498533
:1041E0005A85A49FF001A59FF00D1124EA58FC4FB9
:1041F000B3E0B58346E029853A85429FF001439FAD
:10420000F00D1124EA58FC4F2581022E04C096952A
:104210008795779567950A94D2F7AD81BE8102C0E4
:10422000AA0FBB1F2A95E2F7B183A0836115710520
:10423000B1E08B07910508F4BACA8FEF9FEF948322
:104240008383C1CA10925003C8CA20E030E0A9019C
:10425000B80188AD9FA90E94803D18160CF049C096
:1042600010923503109236031092370310923803E0
:1042700010922C0310922D0310922E0310922F03F4
:10428000C0922003D0922103E0922203F0922303F4
:1042900000914B0310914C0320912403309125038E
:1042A0004091260350912703C701B6010E94683B45
:1042B000D80195966D937D938D939C939897E896EE
:1042C0000FB6F894DEBF0FBECDBFDF91CF911F9127
:1042D0000F91FF90EF90DF90CF90BF90AF909F90A5
:1042E0008F907F906F905F904F903F902F900C94A5
:1042F000152A10924C0310924B030E94642694CA14
:10430000E8960FB6F894DEBF0FBECDBFDF91CF9118
:104310001F910F91FF90EF90DF90CF90BF90AF90E3
:104320009F908F907F906F905F904F903F902F90D5
:104330000895F999FECF92BD81BD81E08FBB80B514
:104340000895F894F999FECF92BD81BD81E08FBBAD
:1043500080B58627482F082E000C550B262F30E0FD
:1043600024233523232B39F06F3F19F060BD84E0FF
:1043700006C084E104C0882321F060BD84E28FBBC5
:10438000F99A789408958F929F92AF92BF92CF92AC
:10439000DF92EF92FF920F931F93CF937C014A011C
:1043A0006B01C40ED51E8B01C0E05C01A61AB70AD2
:1043B000C8018A0D9B1D0C151D0599F0C11108C07F
:1043C0002C2FCC0F330B232F221F2227221F01C09B
:1043D00021E0F80161918F01C22FC60F0E94A12137
:1043E000E7CF6C2FC701880D991DCF911F910F91B9
:1043F000FF90EF90DF90CF90BF90AF909F908F9005
:104400000C94A1218F929F92AF92BF92CF92DF9294
:10441000EF92FF920F931F93CF934B017A016C01A0
:10442000C40ED51E8C01C0E05B01A81AB90AC501F3
:10443000800F911F0C151D0599F00E949921C11143
:1044400008C02C2FCC0F330B232F221F2227221F13
:1044500001C021E0C22FC80FF80181938F01E7CF7F
:10446000C4018E0D9F1D0E94992121E030E0C817E4
:1044700011F020E030E0C901CF911F910F91FF9022
:10448000EF90DF90CF90BF90AF909F908F90089566
:1044900021E5829FC001112440E550E09D5F0C940E
:1044A000C32140E550E0BC018EEA93E00C94C321A7
:1044B0002DE0829FC00111244CE050E09E5F0C94DF
:1044C000C32169E080E090E00E94A1214DE450E02A
:1044D00060E678E081E090E00C94C321EF92FF92D7
:1044E0000F931F93CF93DF93CDB7DEB72C970FB603
:1044F000F894DEBF0FBECDBF182F80FFC1C08AE089
:104500008093900889E1809393081092910810920B
:10451000920883E0809394088AE097EDA3E2BCE3DD
:104520008093950890939608A0939708B093980865
:104530008FE692E1A3E0BBE38093990890939A08F9
:10454000A0939B08B0939C0810929E0880E090E096
:10455000A8ECB1E480939F089093A008A093A108D1
:10456000B093A20880E090E0AAEFB3E48093A308A0
:104570009093A408A093A508B093A6082AEF30E072
:104580003093A8082093A70840E050E060E87FE35C
:104590004093A9085093AA086093AB087093AC08A5
:1045A00010929D0840E050E06AE773E44093600891
:1045B00050936108609362087093630840936408A5
:1045C0005093650860936608709367084093680885
:1045D0005093690860936A0870936B0880936C0825
:1045E00090936D08A0936E08B0936F088093700845
:1045F00090937108A0937208B09373088093740825
:1046000090937508A0937608B093770880E090EABD
:10461000ACE0B7E48093780890937908A0937A0887
:10462000B0937B0880937C0890937D08A0937E08CC
:10463000B0937F088093800890938108A0938208AC
:10464000B093830880E090E0A8E4B3EC8093840802
:1046500090938508A0938608B09387088093880874
:1046600090938908A0938A08B0938B0880938C0854
:1046700090938D08A0938E08B0938F080E946122BA
:1046800011FF10C0CE0101967C018CE0F701119260
:104690008A95E9F700E0B701802F0E9458220F5F4A
:1046A0000830C9F712FF0AC060E080E093E00E9482
:1046B000A12160E081E593E00E94A12113FF05C0E4
:1046C00060E08EEA93E00E94A1212C960FB6F89448
:1046D000DEBF0FBECDBFDF91CF911F910F91FF9035
:1046E000EF9008951F93CF93DF93182FEB0181E58F
:1046F000189FB00111247D5F40E550E0CE010E947B
:104700000222892B39F41882BE01812F0E9448228F
:1047100080E001C081E0DF91CF911F910895CF9398
:10472000DF93EC0140E550E06EEA73E00E94022264
:10473000892B31F41882CE010E94512280E001C001
:1047400081E0DF91CF9108951F93CF93DF93182FCE
:10475000EB018DE0189FB00111247E5F4CE050E02A
:10476000CE010E940222892B59F48CE0FE011192A5
:104770008A95E9F7BE01812F0E94582280E001C08E
:1047800081E0DF91CF911F91089580E090E00E9439
:104790009921893059F44DE450E061E070E080E601
:1047A00098E00E94022221E0892B09F420E0822F68
:1047B0000895CF92DF92EF92FF92CF93DF93C82FAD
:1047C0006A017B0120E030E0A901C701B6010E9427
:1047D0005E3B87FDE4C0C43608F441C08CE98C0F11
:1047E00020E0833098F590E0880F991F880F991F7B
:1047F000223059F0FC012330F1F0213019F0E05A59
:10480000F74F1FC0E459F74F1CC0EC01C858D74FF1
:1048100020E030E040E752E4C701B6010E94C03D0D
:1048200020E030E040E752E40E94C03D6883798395
:104830008A839B83B0C0EC57F74FF7FAF094F7F8F0
:10484000F094C082D182E282F382A5C02F5F8A30C9
:1048500008F4A7C0243009F4A4C08A50C2CFC7010D
:10486000B6010E94A33E0E94E13B8C2F90E08C3168
:10487000910508F096C0FC018827E956FF4F8F4F3D
:104880000C94F73E633008F48EC06093900883C0A8
:104890006093930880C06093910802C0609392086F
:1048A0000E94501A78C080919D08662311F08460A0
:1048B00007C08B7F05C080919D08662321F080642E
:1048C00080939D0868C08F7BFBCF80919D086623F5
:1048D00011F08068F5CF8F77F3CF609394085BC0B9
:1048E000C0929508D0929608E0929708F0929808A6
:1048F00052C0C0929908D0929A08E0929B08F09218
:104900009C0849C080919D08662311F08160D8CF32
:104910008E7FD6CF80919D08662321F084FF45C00D
:104920008062CECF8F7DCCCF80919D08662311F021
:10493000886001C0877F80939D080E94192B2BC03F
:1049400080919D08662311F08061BACF8F7CB8CF2B
:1049500060939E0820C0C0929F08D092A008E09269
:10496000A108F092A20817C0C092A308D092A40890
:10497000E092A508F092A6080EC070E07093A80817
:104980006093A70808C0C092A908D092AA08E09234
:10499000AB08F092AC080E94612280E007C084E07E
:1049A00005C083E003C086E001C08AE0DF91CF91BB
:1049B000FF90EF90DF90CF9008950E94C523811162
:1049C00008C087E00E94982F8FEF0E946E220C94FF
:1049D00003300895882321F0813021F080E108958B
:1049E00084E0089588E00895882321F0813021F043
:1049F00080E2089580E8089580E40895882321F0F6
:104A0000813021F080E4089580E1089580E20895E6
:104A10002F923F924F925F926F927F928F929F92CE
:104A2000AF92BF92CF92DF92EF92FF920F931F93BC
:104A3000CF93DF93C0910D04C11101C0C2E1C150F9
:104A4000D0910B04CD1709F41BC1EC2EF12C29E2F7
:104A5000C29F80011124015F1B4FF801A588B68811
:104A6000C788D08C61A172A183A194A19B01AC01E4
:104A70000E94693AF80125A136A147A150A50E94DC
:104A8000C03D4B018C019B01AC01B501C6010E94E8
:104A90005E3B87FD02C05401680189E28E9DF001F2
:104AA0008F9DF00D1124E15FFB4FC501D601818B75
:104AB000928BA38BB48BC11101C0C2E1C150CD1741
:104AC00061F029E22E9DC0012F9D900D11249C01C3
:104AD000215F3B4F7901D9E233C080910E04D81396
:104AE0005EC00E94D81A5BC0AC2EB12CDA9DC0010A
:104AF000DB9D900D1124FC01E15FFB4F6F01C111A3
:104B000001C0C2E1C15080910E04C81302C00E94CE
:104B1000D81ADA9D8001DB9D100D1124015F1B4F17
:104B2000F80185889688A788B08CA50194016189D1
:104B30007289838994890E945E3B811106C0760147
:104B400080910B04C813D0CF2AC0F80161A172A1D3
:104B500083A194A19B01AC010E94693AF80125A1AF
:104B600036A147A150A50E94C03DF7012189328995
:104B7000438954890E94693A2B013C01A5019401A3
:104B80000E945E3BF80187FF05C0418A528A638A12
:104B9000748AD5CF818A928AA38AB48AD0CFD091E1
:104BA0000B04F9E2DF9F80011124015F1B4FC1E07C
:104BB000CD0FC23109F4C0E020900D0489E2382EF7
:104BC000C21509F45BC0CC2ED12C3C9CC0013D9C8D
:104BD000900D11249C01215F3B4F7901F801418820
:104BE000528863887488F90181889288A388B48880
:104BF000A5019401C301B2010E945E3B87FF24C05E
:104C0000F80161A172A183A194A19B01AC010E9452
:104C1000693AF80125A136A147A150A50E94C03DDF
:104C20009B01AC01C301B2010E94693A2B013C0116
:104C3000A50194010E945E3B87FF06C0F701418AEF
:104C4000528A638A748ADC2F3C9CF0013D9CF00DF3
:104C50001124E15FFB4F258936894789508D618991
:104C60007289838994890E945E3B811101C0DC2F87
:104C7000CF5FC23109F4C0E08701A2CFD0930B040B
:104C8000DF91CF911F910F91FF90EF90DF90CF9028
:104C9000BF90AF909F908F907F906F905F904F905C
:104CA0003F902F9008958CE1EFEEF3E0DF011D922D
:104CB0008A95E9F710920E0410920D0481E080931A
:104CC0000C0410920B04089590910E0480910D0431
:104CD000891769F081E0890F823109F480E0209121
:104CE0000B04921302C080930B0480930E0408956A
:104CF00080910E0490910D04981739F029E2829F5B
:104D0000C0011124815F9B4F089580E090E00895D9
:104D1000E0910E04EF5FE23109F4E0E080910D04D0
:104D2000E81761F089E2E89FF0011124E15FFB4F91
:104D300061897289838994890C945F3E60E070E098
:104D4000CB01089581E020910E0490910C04291369
:104D500080E008952F923F924F925F926F927F92E0
:104D60008F929F92AF92BF92CF92DF92EF92FF927B
:104D70000F931F93CF93DF93CDB7DEB7E2970FB6B4
:104D8000F894DEBF0FBECDBF4B8F5C8F6D8F7E8FD3
:104D9000622E20910D04422F50E05AA349A359E2FC
:104DA000259F80011124F801E15FFB4F15861686CF
:104DB0001786108A15A216A217A210A6108249E91A
:104DC00056E766E97EE741A352A363A374A32C01CF
:104DD00080E698E09EA38DA3AE01435F5F4F5EA780
:104DE0004DA78FEE93E09CA78BA74C5051095CA375
:104DF0004BA31AAB09AB58A34F8F4FEE53E058A704
:104E00004FA390E6C92E98E0D92EE12CF12C712CFD
:104E10008F01CF010D9698AB8FA71F0195E2290E48
:104E2000311CF20161917191819191912F01F601F3
:104E300020813181428153810E94C03D0E948D3D7D
:104E4000EDA5FEA56193719381939193FEA7EDA7C4
:104E5000EFA1F8A581909190A190B190F8A7EFA350
:104E6000681979098A099B094B015C0197FF07C002
:104E7000882499245401861A970AA80AB90AE9A92C
:104E8000FAA9EE0DFF1DE15FFB4F81829282A382A2
:104E9000B482EFA5F8A92081318142815381821625
:104EA0009306A406B50610F449015A01EFA5F8A926
:104EB00080829182A282B3820E94123CF6012081FC
:104EC0003181428153810E94683B4B015C01EF8D2F
:104ED000F8A16193719381939193F8A3EF8F20E0F0
:104EE00030E0A9010E945E3B87FF07C0872D0E942A
:104EF000F424F8019081892B8083A5019401C501D8
:104F0000B4010E94C03DF101208131814281538171
:104F10000E94693AF1016083718382839383739461
:104F2000F4E0EF0EF11C24E0C20ED11C3CE0E316CD
:104F3000F10409F076CF0E945F3E6B017C01F10124
:104F40006083718382839383F80185859685A78525
:104F5000B089892B8A2B8B2B09F422C220E030E008
:104F6000A9016B8D7C8D8D8D9E8D0E945E3B87FD92
:104F700021C0662061F0A70196016B8D7C8D8D8D1F
:104F80009E8D0E94C03D6B8F7C8F8D8F9E8F20E009
:104F900030E040E85FE36B8D7C8D8D8D9E8D0E94AF
:104FA0005E3B87FF0FC01B8E1C8EF0E8FD8F2FE34A
:104FB0002E8F08C039E93B8F46E74C8F56E95D8F4D
:104FC0008EE78E8FA701960160E070E080E89FE396
:104FD0000E94683B6FA378A789A79AA7FE013D9618
:104FE000FA8FE98FC12CD12C760129E249A15AA16F
:104FF000249FC001259F900D1124FC01E05DFB4F13
:10500000F8A3EF8FEBA1FCA180809180A280B380F8
:1050100020E030E0A901C501B4010E945E3B882375
:1050200009F46CC02FA138A549A55AA5C501B40142
:105030000E94C03D2B013C01EBA1FCA16083718368
:10504000828393839B01AC0160E070E080E89FE382
:105050000E94683B4B015C01E894B7F8EDA1FEA10A
:105060002485358546855785C501B4010E94C03D1C
:105070001B018C019B01AC016B8D7C8D8D8D9E8DF8
:105080000E945E3B87FD04C02B8E3C8E0D8F1E8FD1
:10509000EF8DF8A12080318002811381EDA1FEA166
:1050A000208D318D428D538DC501B4010E94C03DCC
:1050B0004B015C019B01AC01B101C8010E945E3B48
:1050C00087FD02C014018501C101D801EF8DF8A14F
:1050D00080839183A283B383EBA5FCA524853585CA
:1050E00046855785C301B2010E94C03D9B01AC01BA
:1050F000C701B6010E94683A6B017C012BA13CA15B
:105100002C5F3F4F3CA32BA34BA55CA54C5F5F4F8F
:105110005CA74BA78DA19EA104969EA38DA3E98DAC
:10512000FA8D2E173F0709F06DCF90910D048091F5
:105130000E0498130FC089E229A13AA1829FF001C1
:10514000839FF00D1124E15FFB4F118A128A138AAD
:10515000148A14C02FEE3FEF4FE75FE3C701B6019B
:105160000E94803D18167CF489E249A15AA1849FCF
:10517000F001859FF00D1124E15FFB4F118E128E1F
:10518000138E148E6DC02FEE3FEF4FE75FEBC7011C
:10519000B6010E94803D181644F08FEEC82EDD2423
:1051A000DA948FE7E82E8FEBF82EA701960160E0E6
:1051B00070E080E89FE30E94683A20E030E040E041
:1051C0005FE30E94C03D0E945F3E6B017C0189E26B
:1051D00029A13AA1829FF001839FF00D1124E15F84
:1051E000FB4F209195083091960840919708509177
:1051F000980861A172A183A194A10E94C03DA7015A
:1052000096010E94C03D4B015C01A701960160E040
:1052100070E080E89FE30E94683A9B01AC01C50101
:10522000B4010E94683B7B018C0120E030E0A901C1
:105230000E945E3B87FF04C0E12CF12C00E010E0EF
:1052400089E249A15AA1849FF001859FF00D1124A4
:10525000E15FFB4FA701B801418F528F638F748FBD
:105260002B8D3C8D4D8D5E8D6B8D7C8D8D8D9E8DB2
:105270000E94C03D7B018C0189E229A13AA1829F55
:10528000F001839FF00D1124E15FFB4FC701D801AE
:10529000858F968FA78FB0A3A18CB28CC38CD48C32
:1052A00060900704709008048090090490900A04AC
:1052B0009301A401B701C8010E945E3B87FD05C0B0
:1052C000762D672D982D892D04C07E2D6F2D902F62
:1052D000812F272F362F492F582FB501C6010E9445
:1052E0005E3B87FD0DC09301A401B701C8010E9478
:1052F0005E3B87FD03C05301640102C05701680192
:1053000089E249A15AA1849FF001859FF00D1124E3
:10531000E15FFB4FC501D601858B968BA78BB08FC4
:105320008CE0FE013196ABEFB3E001900D928A95CF
:10533000E1F7C701D8018093070490930804A09374
:105340000904B0930A048CE0FE013D96AFEEB3E091
:1053500001900D928A95E1F780910C0480930D04E1
:105360008F5F823109F480E080930C04E2960FB6DF
:10537000F894DEBF0FBECDBFDF91CF911F910F918B
:10538000FF90EF90DF90CF90BF90AF909F908F9065
:105390007F906F905F904F903F902F900C940825D6
:1053A000E2960FB6F894DEBF0FBECDBFDF91CF916E
:1053B0001F910F91FF90EF90DF90CF90BF90AF9033
:1053C0009F908F907F906F905F904F903F902F9025
:1053D0000895EFEEF3E0A7E0B7E014964D915D91EC
:1053E0006D917C91179740835183628373831896E4
:1053F0004D915D916D917C911B974483558366839C
:1054000077831C968D919D910D90BC91A02D8087E6
:105410009187A287B387089580910D0490910E041F
:10542000891708F48E5E891B08950E94D81A80910E
:105430000E0480930B040C9408254F925F926F9298
:105440007F92AF92BF92CF92DF92EF92FF920F9333
:105450001F93CF93DF936C01FB015A018081D6012A
:10546000A80FB11D9C918D019D3231F40E5F1F4F2D
:1054700011969C91D1E00AC09B3219F00F5F1F4F2B
:1054800004C00E5F1F4F11969C91D0E0512C612CEF
:10549000C0E020E030E0A901780160ED762E790EC1
:1054A00089E08715D8F06394A8E0A61598F051100C
:1054B000C150A5E0B0E00E94FF3EDC01CB01880FA7
:1054C000991FAA1FBB1F9C01AD01270D311D411D56
:1054D000511D0BC0511009C0CF5F07C0BEEF7B123A
:1054E00009C0511007C0552453940F5F1F4FD701B7
:1054F0009C91D2CF662009F450C07F01CA01B90146
:105500000E94103C2B013C0120E030E0A9010E94E8
:105510005E3B882349F1CF3F64F42AE037ED43E254
:105520005CE3C301B2010E94C03D2B013C01CE5F90
:10553000F2CFCF3F59F42DEC3CEC4CEC5DE3C301D2
:10554000B2010E94C03D2B013C010EC0CC2361F092
:1055500020E030E040E251E4C301B2010E94C03DCE
:105560002B013C01C150F2CFDD2351F077FA70944A
:1055700077F87094F501408251826282738206C08E
:10558000D5014D925D926D927C9213970C191D0975
:105590000150F701008381E001C080E0DF91CF91ED
:1055A0001F910F91FF90EF90DF90CF90BF90AF9041
:1055B0007F906F905F904F900895009741F0EFE9D2
:1055C000FFE03197F1F700C000000197F6CF089592
:1055D0008F929F92AF92BF92CF92DF92EF92FF9203
:1055E00069017A019B01AC010E94C03D4B015C0145
:1055F000A7019601C701B6010E94C03D9B01AC0105
:10560000C501B4010E94693AFF90EF90DF90CF90FE
:10561000BF90AF909F908F900C945F3EEBE6F0E0D0
:1056200080818F788083E8E6F0E080818E7F8083C0
:10563000089584B18F7884B985B1806785B98091E8
:105640009D0883FF0BC080916B00806780936B0087
:105650008091680081608093680008950C940E2BFF
:10566000EF92FF920F931F93CF93DF93C3B1C07755
:1056700080919D0886FD02C080E7C827CC23C1F039
:1056800000E010E0D0E0EE24E394F12C802F0E94A3
:10569000FE248C2339F0C701002E01C0880F0A9424
:1056A000EAF7D82B0F5F1F4F0330110579F701C0C0
:1056B000D0E08D2FDF91CF911F910F91FF90EF9050
:1056C00008951F920F920FB60F9211240BB60F92EE
:1056D0002F933F934F935F936F937F938F939F93FA
:1056E000AF93BF93EF93FF9380910807813071F0E0
:1056F0008091270781110AC00E94A2099FB7F894E0
:10570000809127078360809327079FBFFF91EF91C8
:10571000BF91AF919F918F917F916F915F914F91C9
:105720003F912F910F900BBE0F900FBE0F901F90C7
:1057300018952F923F924F925F926F927F928F9225
:105740009F92AF92BF92CF92DF92EF92FF920F9310
:105750001F93CF93DF93CDB7DEB769970FB6F89459
:10576000DEBF0FBECDBF909107079111A4C1782E67
:1057700024E8A22E28E0B22E9E01235F3F4F49016C
:1057800000E010E0C12CD12C760190E09B8B8A8B3D
:10579000802F0E94EA24D4018D934D018A899B8930
:1057A000002E02C0959587950A94E2F780FF1AC0F3
:1057B00020E030E040EC5FEBF50160817181828197
:1057C00093810E94C03D1B01582E692E9B01482FDA
:1057D000592FC701B6010E94803D18161CF06101C7
:1057E000E52CF62C0F5F1F4FF4E0AF0EB11C033019
:1057F000110571F68090A3089090A408A090A508C8
:10580000B090A60894E0692E01E0442443946BE034
:1058100077E0CE0101960E94193680919E08282FCC
:1058200030E03D8B2C8BFE01319687E097E0998B21
:10583000888B1C0120E030E0512C10E0B701A6015C
:1058400070588A899B89022E02C0959587950A9483
:10585000E2F780FF28C05394D10114961D921D9247
:105860001D921C9217978C899D89022E02C09595D6
:1058700087950A94E2F780FF03C0002319F007C060
:10588000002329F0C082D182E282F38204C04083E7
:10589000518362837383ADE0B0E0AC0FBD1FA20FF4
:1058A000B31F8C91182B2F5F3F4F3496B4E02B0E13
:1058B000311C2330310529F6652D70E080E090E041
:1058C0000E94103C0E945F3E9B01AC01C501B401E7
:1058D0000E94C03DAB01BC01109324074E8B5F8B2F
:1058E000688F798F0E94E92920E04E895F89688D51
:1058F000798DCE0101960E94AA260E94FA1A0E9472
:10590000CD170023E9F00E94302BFE013D9620E0E8
:1059100030E090E06191462F412359F0AC01022E16
:1059200002C0559547950A94E2F740FF02C0609582
:1059300016232F5F3F4F2330310561F71093240763
:105940000E94FA1A809125078473C1F0809125077F
:10595000807329F00E94A2090E940716ACC00111B1
:10596000A5C00E94302B8721A9F79FB7F89480919A
:1059700025078B7F809325079FBF04C0812F8C71E3
:1059800009F0BFCF0E948A1A0E9453268091A7086F
:105990009091A8080E94DD2A0425C9F020E030E09B
:1059A00040EA50E46091A9087091AA088091AB0880
:1059B0009091AC080E94C03D6B017C0180909F08D3
:1059C0009090A008A090A108B090A20810C0C0902C
:1059D000A908D090AA08E090AB08F090AC0880909D
:1059E000A3089090A408A090A508B090A6086A9477
:1059F00061100DCFC0909E08D12C8090A908909086
:105A0000AA08A090AB08B090AC082401350177FA41
:105A1000709477F8709480E6E82E88E0F82E00E025
:105A200010E08A899B89002E02C0959587950A947B
:105A3000E2F780FF2AC0C601002E02C09595879527
:105A40000A94E2F7F70180FF0EC024A135A146A118
:105A500057A1C501B4010E94693AD7012D913D912A
:105A60004D915C9106C02081318142815381C301F7
:105A7000B2010E94C03D0E948D3DA889B98914964B
:105A80006D937D938D939C9317970F5F1F4FE889BC
:105A9000F9893496F98BE88BF4E0EF0EF11C0330B2
:105AA000110509F0BECF0E94E92905C080912507A4
:105AB00082FF5BCF4FCF69960FB6F894DEBF0FBE63
:105AC000CDBFDF91CF911F910F91FF90EF90DF90AD
:105AD000CF90BF90AF909F908F907F906F905F908E
