:100000000C94F3040C9407050C9407050C94070555
:100010000C9407050C9407050C9407050C94070530
:100020000C9407050C94532A0C9407050C94F03299
:100030000C9407050C9407050C9407050C94070510
:100040000C9407050C94CE170C9407050C94070527
:100050000C9407050C9407050C9407050C94EB19F8
:100060000C9407050C945E150C941C150C94070554
:100070000C9407050C9407050C9407050C940705D0
:100080000C9407050C9407050C9407050C940705C0
:100090000C9407050C9407050C9407050C940705B0
:1000A0000C9407050C9407050C9407050C940705A0
:1000B0000C9407050C9407050C9407050C94070590
:1000C0000C9407050C9407050C9407050C94070580
:1000D0000C9407050C9407050C9407050C94070570
:1000E0000C940705070CEB13EB13110C1E0C2B0CD7
:1000F000380CEB133C0CEB134A0CEB13540C5E0C5A
:100100008F0CEB13EB13EB13680C750C820CAF1216
:10011000C012DF12C012E312F612E912EF120B1333
:100120001113201337135B13651371137B13A12372
:10013000A723AA23AD23B223BA23C4233024302417
:100140003024CC23CF23D823E1233024302430247F
:10015000302430243024E923F323FF2307240A2406
:1001600013241C242224472E4A2E4F2E522E552E65
:10017000582E5B2E5E2E612E642E672E732E732EEC
:10018000732E732E732E732E732E732E6D2E6A2E76
:10019000702EBA2EBD2EC02EC32EC62EC92ECC2E2A
:1001A000CF2E084AD73B3BCE016E84BCBFFDC12F8A
:1001B0003D6C74319ABD56833DDA3D00C77F11BE58
:1001C000D9E4BB4C3E916BAAAABE000000803F055B
:1001D000A84CCDB2D44EB93836A9020C50B991868C
:1001E00088083CA6AAAA2ABE000000803F3E0D0A4D
:1001F000002C4C696D3A002C52583A002C4275661E
:100200003A002C002C57506F733A002C002C4D50A4
:100210006F733A003C446F6F72003C436865636BD8
:10022000003C416C61726D003C486F6D65003C485C
:100230006F6C64003C52756E003C49646C65005DF7
:100240000D0A005B302E396A2E32303135313231B1
:10025000383A000D0A003D00244E005D0D0A0020D2
:100260005300204600205400204D3800204D390016
:10027000204D3500204D3400204D3300204D3200FC
:10028000204D3100204D30002047393400204739BF
:1002900033002047393100204739300020473230C1
:1002A00000204732310020473139002047313800E3
:1002B00020473137002047004733382E0047383079
:1002C000004733004732004731004730005B005D94
:1002D0000D0A005B544C4F3A005D0D0A002C005B88
:1002E0004739323A005D0D0A002C003A00333000E5
:1002F0003238005B47005D0D0A003A002C005B506D
:1003000052423A00290D0A00206D61782074726112
:1003100076656C2C206D6D0020616363656C2C200C
:100320006D6D2F7365635E3200206D6178207261A0
:1003300074652C206D6D2F6D696E002C20737465B3
:10034000702F6D6D007A00790078002028003D0044
:1003500024002028686F6D696E672070756C6C2DA5
:100360006F66662C206D6D290D0A002028686F6D60
:10037000696E67206465626F756E63652C206D73AE
:100380006563290D0A2432373D002028686F6D69A6
:100390006E67207365656B2C206D6D2F6D696E29FE
:1003A0000D0A2432363D002028686F6D696E672083
:1003B000666565642C206D6D2F6D696E290D0A24AC
:1003C00032353D00290D0A2432343D002028686F63
:1003D0006D696E672064697220696E76657274203B
:1003E0006D61736B3A002028686F6D696E672063DA
:1003F00079636C652C20626F6F6C290D0A2432338F
:100400003D00202868617264206C696D6974732CEA
:1004100020626F6F6C290D0A2432323D0020287350
:100420006F6674206C696D6974732C20626F6F6CD9
:10043000290D0A2432313D0020287265706F7274D4
:1004400020696E636865732C20626F6F6C290D0ADA
:100450002432303D00202861726320746F6C657215
:10046000616E63652C206D6D290D0A2431333D00CA
:1004700020286A756E6374696F6E206465766961A1
:1004800074696F6E2C206D6D290D0A2431323D0088
:10049000290D0A2431313D0020287374617475736D
:1004A000207265706F7274206D61736B3A00202842
:1004B00070726F62652070696E20696E7665727405
:1004C0002C20626F6F6C290D0A2431303D002028EA
:1004D0006C696D69742070696E7320696E766572DF
:1004E000742C20626F6F6C290D0A24363D00202881
:1004F0007374657020656E61626C6520696E7665E7
:1005000072742C20626F6F6C290D0A24353D00290E
:100510000D0A24343D00202864697220706F7274C3
:1005200020696E76657274206D61736B3A00290DD7
:100530000A24333D0020287374657020706F727434
:1005400020696E76657274206D61736B3A002028A5
:10055000737465702069646C652064656C61792CC6
:10056000206D736563290D0A24323D0020287374C1
:1005700065702070756C73652C2075736563290D2B
:100580000A24313D0024303D00242420287669656A
:1005900077204772626C2073657474696E67732983
:1005A0000D0A242320287669657720232070617244
:1005B000616D6574657273290D0A24472028766978
:1005C0006577207061727365722073746174652938
:1005D0000D0A2449202876696577206275696C6464
:1005E00020696E666F290D0A244E2028766965778A
:1005F000207374617274757020626C6F636B732901
:100600000D0A24783D76616C7565202873617665E6
:10061000204772626C2073657474696E67290D0AD5
:10062000244E783D6C696E65202873617665207371
:1006300074617274757020626C6F636B290D0A248B
:10064000432028636865636B2067636F6465206D72
:100650006F6465290D0A245820286B696C6C206131
:100660006C61726D206C6F636B290D0A2448202821
:1006700072756E20686F6D696E67206379636C6553
:10068000290D0A7E20286379636C6520737461727A
:1006900074290D0A2120286665656420686F6C64E2
:1006A000290D0A3F202863757272656E7420737479
:1006B00061747573290D0A6374726C2D7820287229
:1006C00065736574204772626C290D0A000D0A4734
:1006D00072626C20302E396A205B27242720666FD7
:1006E000722068656C705D0D0A005D0D0A00526530
:1006F00073746F72696E672064656661756C74737C
:100700000050676D20456E6400436865636B20444C
:100710006F6F720044697361626C656400456E615D
:10072000626C65640043617574696F6E3A20556E42
:100730006C6F636B656400272448277C2724582747
:1007400020746F20756E6C6F636B005265736574F7
:1007500020746F20636F6E74696E7565005B000DA9
:100760000A00486F6D696E67206661696C0050729F
:100770006F6265206661696C0041626F727420640B
:100780007572696E67206379636C6500536F667478
:10079000206C696D69740048617264206C696D69D0
:1007A0007400414C41524D3A20000D0A00496E76CA
:1007B000616C69642067636F64652049443A005541
:1007C0006E646566696E6564206665656420726145
:1007D000746500556E737570706F72746564206314
:1007E0006F6D6D616E64004D6F64616C2067726F38
:1007F00075702076696F6C6174696F6E004C696EFC
:1008000065206F766572666C6F7700486F6D696EF4
:1008100067206E6F7420656E61626C656400416C68
:1008200061726D206C6F636B004E6F742069646C35
:100830006500454550524F4D2072656164206661E8
:10084000696C2E205573696E672064656661756CEE
:1008500074730056616C7565203C20332075736598
:10086000630053657474696E672064697361626CB8
:1008700065640056616C7565203C203000496E76D9
:10088000616C69642073746174656D656E74004297
:100890006164206E756D62657220666F726D617441
:1008A00000457870656374656420636F6D6D616E7B
:1008B00064206C6574746572006572726F723A20A0
:1008C000006F6B0D0A000C94C4230C943C0C0C9428
:1008D000472E0C945B2E0C94540C0C94A1230C9476
:1008E0002B0C0C940A240C9413240C947B130C945E
:1008F0005E0C0C9471130C94CF230C94732E0C94F7
:10090000AD230C94680C0C9422240C944A0C0C9487
:100910006A2E0C9420130C945B130C94EB130C9420
:10092000750C0C94C32E0C945E2E0C94C0120C9477
:10093000820C0C941C240C94582E0C9411130C94BF
:10094000642E0C94110C0C946D2E0C9437130C9493
:10095000D8230C94E3120C944F2E0C94BA230C94CD
:10096000CF2E0C94AF120C9465130C94F3230C94BB
:10097000DF120C94612E0C94CC230C94552E0C9405
:10098000A7230C94E9230C94E1230C944A2E0C9495
:10099000672E0C9430240C940B130C94BA2E0C94E8
:1009A0001E0C0C948F0C0C94CC2E0C9407240C94DD
:1009B000FF230C94C02E0C94380C0C94070C0C9450
:1009C000C92E0C94522E0C94702E0C94E9120C9497
:1009D000F6120C94AA230C94EF120C94BD2E0C94D6
:1009E000C62E0C94B22311241FBECFEFD1E2DEBF7E
:1009F000CDBF00E00CBF17E0A0E0B2E001C01D9247
:100A0000AD3CB107E1F70E9409050C944D390C94F7
:100A100000000E94EA140E943C240E94691A0E946D
:100A2000DB328DE1E7E2F6E0DF011D928A95E9F71E
:100A300081E08093270678948091BC0784FF03C0EF
:100A400081E0809328060E94C0150E94CA090E9476
:100A500022140E94BA140E94022A0E94F52D0E94BC
:100A600082250E943D1A0E94D2280E94DC09109221
:100A700027061092440610924606109229060E94FC
:100A8000F016E1CFEF92FF921F93CF93DF9300D048
:100A90001F92CDB7DEB77C01122F8091BC0785FF76
:100AA0000BC0C70149835A836B837C830E94642CEB
:100AB0007C816B815A81498180912806823031F195
:100AC00049835A836B837C830E94C51580912706D6
:100AD00081111CC00E94D12549815A816B817C8182
:100AE000882339F00E94E71649815A816B817C8105
:100AF000E7CF212FC7010F900F900F900F90DF913C
:100B0000CF911F91FF90EF900C94D9250F900F90EB
:100B10000F900F90DF91CF911F91FF90EF9008956C
:100B20002F923F924F925F926F927F928F929F92FD
:100B3000AF92BF92CF92DF92EF92FF920F931F93EB
:100B4000CF93DF93CDB7DEB7E7970FB6F894DEBF4C
:100B50000FBECDBF9C8B8B8B1B013A0109871A8777
:100B60002B873C87AF8A2E961FAD2E972F962FADE1
:100B70002F97298B60963FAD60973D8B84E0889ED0
:100B8000A00111245A834983AB89BC89A40FB51FE6
:100B9000B98FA88F460D571D5B8F4A8FFA01808051
:100BA0009180A280B3802D913D914D915C91C501C2
:100BB000B4010E94FB346C8F7D8F8E8F9F8FF4E089
:100BC0001F9F800111242B893C89200F311F39A3DD
:100BD00028A3A301400F511F5BA34AA3DA014D9044
:100BE0005D906D907C90F90120813181428153812B
:100BF000C301B2010E94FB346CA37DA38EA39FA30B
:100C0000A501940150582D873E874F87588BD301FB
:100C1000C201B0588D839E83AF83B887E981FA8182
:100C2000E20DF31D2C8D3D8D4E8D5F8D60817181A8
:100C3000828193810E94FA342B013C01F101E00F83
:100C4000F11F2CA13DA14EA15FA160817181828124
:100C500093810E94FA344B015C01A30192016D85DE
:100C60007E858F8598890E94123869837A838B8369
:100C70009C83A50194016D817E818F8198850E945E
:100C800012389B01AC0169817A818B819C810E9421
:100C9000FB3469837A838B839C83A50194016D85E2
:100CA0007E858F8598890E9412384B015C01A301D3
:100CB00092016D817E818F8198850E9412389B01FF
:100CC000AC01C501B4010E94FA3429813A814B81FB
:100CD0005C810E946E352B013C019D89992399F01E
:100CE0002DEB37E346E055EBC301B2010E94D73745
:100CF00087FD1DC02BED3FE049EC50E4C301B2017C
:100D00000E94FA3412C02DEB37E346E055E3C301ED
:100D1000B2010E94D435181654F02BED3FE049EC97
:100D200050E4C301B2010E94FB342B013C018090CE
:100D3000B8079090B907A090BA07B090BB07298573
:100D40003A854B855C85CA01B9010E94FB34A50137
:100D500094010E94FA349B01AC01C501B4010E94C8
:100D600012380E949F384B015C0120E030E040E0E7
:100D70005FE3C301B2010E94123829853A854B8591
:100D80005C850E9412389F77A50194010E94DB3593
:100D90000E94B1360E9448367E8B6D8BDB01AB2BF7
:100DA00009F486C14B01A12CB12CBF89BB2361F092
:100DB000C501B4010E9474369B01AC01C701B601A4
:100DC0000E9412386B017C01C501B4010E94743687
:100DD0004B015C019B01AC01C301B2010E94DB35F8
:100DE00069877A878B879C87F989E4E0FE9FC00139
:100DF00011242B893C89280F391F3A8B298BF1014B
:100E0000E80FF91FD9012D913D914D915C916081C1
:100E10007181828193810E94FA34A50194010E941C
:100E2000DB356CAB7DAB8EAB9FAB29853A854B85B3
:100E30005C85CA01B9010E9412389B01AC0160E0D7
:100E400070E080E090E40E94FA344B015C012BEAF0
:100E50003AEA4AE25EE369857A858B859C850E9441
:100E600012382B013C0120E030E040E850E4C5019D
:100E7000B4010E94FB349B01AC01C301B2010E948A
:100E8000123868A779A78AA79BA720E030E040E046
:100E90005FE3C501B4010E9412386CA77DA78EA73D
:100EA0009FA7198201E010E0ED89FE890E171F0748
:100EB00009F4FEC0B981BC3008F04AC02CA53DA59C
:100EC0004EA55FA56D817E818F8198850E94123825
:100ED0004B015C0128A539A54AA55BA56D857E85DA
:100EE0008F8598890E941238A50194010E94FB34D5
:100EF000B62EA72E982E892E2CA53DA54EA55FA512
:100F00006D857E858F8598890E9412382B013C0162
:100F100028A539A54AA55BA56D817E818F8198851D
:100F20000E9412389B01AC01C301B2010E94FA3445
:100F30006D877E878F87988BE981EF5FE9838B2DA3
:100F40009A2DA92DB82D8D839E83AF83B8876EC04F
:100F5000B80180E090E00E94743629853A854B857F
:100F60005C850E9412384B015C010E94D8356D836C
:100F70007E838F839887C501B4010E9495384B0109
:100F80005C01EA8DFB8D80819181A281B3819C01FE
:100F9000AD01505829833A834B835C83AAA1BBA13E
:100FA0008D919D910D90BC91A02D88AB99ABAAAB72
:100FB000BBAB2D813E814F81588569817A818B81C0
:100FC0009C810E9412382B013C01A501940168A963
:100FD00079A98AA99BA90E9412389B01AC01C3017F
:100FE000B2010E94FB346D877E878F87988BA501A5
:100FF000940169817A818B819C810E9412384B0116
:101000005C012D813E814F81588568A979A98AA903
:101010009BA90E9412389B01AC01C501B4010E943A
:10102000FA346D837E838F83988719822D853E8560
:101030004F8558896C8D7D8D8E8D9F8D0E94FB34E0
:10104000E88DF98D60837183828393832D813E8146
:101050004F8158856CA17DA18EA19FA10E94FB3478
:10106000A8A1B9A16D937D938D939C9313972CA9FF
:101070003DA94EA95FA9E989FA89608171818281C0
:1010800093810E94FB34A989BA896D937D938D93D6
:101090009C9313972F89B701A6018B899C890E9485
:1010A000420580912706811121C00F5F1F4FFCCEA2
:1010B0002F89B701A601C101E7960FB6F894DEBFEC
:1010C0000FBECDBFDF91CF911F910F91FF90EF9099
:1010D000DF90CF90BF90AF909F908F907F906F9058
:1010E0005F904F903F902F900C944205E7960FB67B
:1010F000F894DEBF0FBECDBFDF91CF911F910F914E
:10110000FF90EF90DF90CF90BF90AF909F908F9027
:101110007F906F905F904F903F902F9008958F92A7
:101120009F92AF92BF92CF92DF92EF92FF924B01CC
:101130005C0180912806823009F447C020E030E04D
:1011400040EA51E4C501B4010E9412380E94B13650
:101150000E9448366B017C010E94721720E030E04B
:101160004AE754E4C501B4010E9412384B015C0106
:1011700082E38C9DB0018D9D700D112480E090E084
:101180000E9474369B01AC01C501B4010E94FA347F
:101190000E94B1360E944836CB010E94C629C11474
:1011A000D10499F00E94C51521E0C21AD10880919E
:1011B000270681110AC08FEF90E722E0815090400E
:1011C0002040E1F700C00000EACFFF90EF90DF90F1
:1011D000CF90BF90AF909F908F9008950E94F72975
:1011E00084E00E948B2A83E00E948B2A0E94C5150E
:1011F00080912706811104C00E94DC090C94022A08
:101200000895CF92DF92EF920F93CF93DF9300D0A8
:101210001F921F92CDB7DEB76C01809128068230F5
:1012200009F481C02D8349835A836B837C830E9498
:10123000721710924206802F0E94002E0E94112EDB
:101240002D8149815A816B817C818823A1F09FB7D0
:10125000F894809146068061809346069FBF2D8357
:1012600049835A836B837C830E94C5157C816B8183
:101270005A8149812D8180912706811154C0C60170
:101280000E94420581E0809345069FB7F8948091C3
:1012900044068260809344069FBF0E94C5158091DA
:1012A0002706811140C0809128068111F6CF8091D8
:1012B00045068130A9F4EE2051F08CE0EAE2F6E038
:1012C000A6E3B6E001900D928A95E1F70CC09FB7B6
:1012D000F894809146068061809346069FBF03C0C4
:1012E00081E080934206109245060E94C5158091C8
:1012F0002706811118C00E943D1A0E9482250E9473
:10130000D2286AE276E0C6010E94E0340F900F9086
:101310000F900F900F90DF91CF910F91EF90DF9092
:10132000CF900C9441300F900F900F900F900F9032
:10133000DF91CF910F91EF90DF90CF900895809142
:10134000440684FD26C09FB7F894809144068061CE
:10135000809344069FBF0E9417140E94B41480918A
:101360002806982F9C7021F490912906913089F4D9
:101370009FB7843029F4F89480914606806204C0B7
:10138000F894809146068860809346069FBF0C942F
:10139000A31708958FE3E7E4F6E0DF011D928A9535
:1013A000E9F76AE676E080E00E940123811103C03C
:1013B00087E00C94312E08956AE276E08EE596E09F
:1013C0000C94E0342F923F924F925F926F927F92F3
:1013D0008F929F92AF92BF92CF92DF92EF92FF9245
:1013E0000F931F93CF93DF93CDB7DEB7AB970FB6B5
:1013F000F894DEBF0FBECDBF98A38F8F89E3E6E8D8
:10140000F6E0DF011D928A95E9F78AE0E7E4F6E06D
:10141000A7E8B6E001900D928A95E1F71D8E212C88
:10142000312CA12CB12C19A2512C1E8E6624639450
:10143000712C08E0402E9924939485E0882E8D8DA0
:10144000EF8DF8A1E80FF11D0081002309F48AC295
:101450009FEB900F9A3110F00C94DD138F5F8D8FFE
:10146000AE01475E5F4FBE01635E7F4F8F8D98A1D7
:101470000E941429882311F40C94DF13C98CDA8C90
:10148000EB8CFC8CC701B6010E94E0380E94483604
:10149000162F70E080E090E00E9476369B01AC0150
:1014A000C701B6010E94FA3420E030E048EC52E473
:1014B0000E9412380E9475380E944836073421F085
:1014C0000D3409F450C192C1183209F432C1E8F464
:1014D000143160F4113108F0D7C0143009F45AC047
:1014E00008F48EC01A30D9F10C94EB131C31B9F109
:1014F00028F4163108F4F7C00C94EB131E3179F17F
:10150000163209F47DC00C94EB131D3309F40BC1A2
:10151000A8F4153309F461C040F41B3209F4ECC09F
:10152000113309F4E9C00C94EB131C3310F00C9444
:10153000EB13165310938D0689E000C11C3540F45F
:101540001A3508F0B0C0103509F49BC00C94EB13A9
:101550001C3529F01F3508F4BDC00C94EB13611540
:10156000710531F4BE8DB1110C94E113E1E0EE8F01
:101570001C3199F038F4143069F01A3009F0DBC0EE
:1015800082E02CC0153349F11C3559F11E3109F0A8
:10159000D2C013C090928606CEC06115710549F085
:1015A0006A30710511F00C94EB1324E02093860649
:1015B00009C0F3E0F093860605C06115710521F4BA
:1015C0008092860680E0BFC06A30710511F00C94ED
:1015D000EB1336E030938606F5CF87E080938606DE
:1015E000AAC06115710549F06A30710511F00C94BB
:1015F000EB1399E090938606E5CF40928606E2CF02
:10160000AE8DA1110C94E113B2E0BE8F123089F0BF
:1016100028F4112359F0113081F08FC0163281F077
:10162000103579F1133009F088C007C01092870691
:1016300084C0EE8DE093870680C0109387067DC03E
:101640006E317105B1F048F46431710511F00C94FC
:10165000EB13F4E0F093870612C06832710561F075
:101660006233710511F00C94EB1337E03093870669
:1016700006C08092870603C026E02093870681E09B
:1016800062C04092870659C0123129F0133139F0F7
:1016900010928B0602C090928B0682E04FC082E0CF
:1016A00080938B064BC06115710549F41A3519F406
:1016B00010928A0602C090928A0683E044C06A3083
:1016C000710511F00C94EB131A3511F40C94EB1313
:1016D00084E039C01D3519F49092880602C010923A
:1016E000880685E02BC0143119F49092890602C057
:1016F0001092890686E022C08E8D81110C94E11330
:10170000113331F410928C0688E093E09E8F1BC059
:101710006A30710511F00C94EB1390928C0688E0FE
:10172000A3E0AE8F10C0672B11F00C94EB138AE08E
:101730000AC087E003C080E001C081E0672B19F098
:1017400087E10C94FE13F30102C0EE0FFF1F8A9590
:10175000E2F7CF019F012A213B21232B09F443C04B
:1017600085E10C94FE13672B59F7163018F41330EB
:1017700058F017C0183010F40C94EB131A3000F125
:101780001E3159F00C94EB13123039F01E3129F050
:10179000111120C090928E061DC082E080938E06AB
:1017A00019C0143029F0153039F09092900606C017
:1017B00082E08093900602C0109290068CE00BC0ED
:1017C000193021F082E080938F0602C010928F06BC
:1017D0008DE001C08BE0930102C0220F331F8A9578
:1017E000E2F7C901B8CFA82AB92A29CE802F9927B4
:1017F00087FD9095A92FB92FFC01E654F109E53139
:10180000F10508F0E8C7EE58FF4F0C943839C09244
:101810009106D0929206E0929306F092940680E0B0
:101820007FC0C0929506D0929606E0929706F092FD
:10183000980639A1316039A381E072C0C09299063F
:10184000D0929A06E0929B06F0929C0689A1826053
:1018500089A382E065C0C0929D06D0929E06E09268
:101860009F06F092A00699A1946099A383E058C0C6
:101870001093A10684E054C0C701B6010E9443360C
:101880006093A2067093A3068093A4069093A50686
:1018900085E046C0C092A606D092A706E092A806B0
:1018A000F092A90686E03CC0C092AA06D092AB0690
:1018B000E092AC06F092AD0687E032C0C092AE0670
:1018C000D092AF06E092B006F092B10688E028C050
:1018D000C092B306D092B406E092B506F092B60676
:1018E000A52DA1605A2E8AE01BC0C092B706D092E7
:1018F000B806E092B906F092BA06B52DB2605B2E3A
:101900008BE00EC0C092BB06D092BC06E092BD0632
:10191000F092BE06E52DE4605E2E8CE001C089E009
:101920008301082E02C0000F111F0A94E2F79801EC
:1019300022213321232B09F046C721E633E002C0E0
:10194000359527958A95E2F720FF09C020E030E021
:10195000A901C701B6010E94D43587FD36C7202AE8
:10196000312A6DCD552029F03E8D311102C082E023
:101970008E8F25FE0EC08091A2069091A306A091A5
:10198000A406B091A50680389649A849B1050CF087
:101990001EC780918806813031F4FE8DF230A1F5AA
:1019A00020FE1FC731C08091480681112DC020FE46
:1019B0001BC080918906813039F523E333E34BEC7A
:1019C00051E46091910670919206809193069091F6
:1019D00094060E9412386093910670939206809349
:1019E00093069093940610C08091550690915606E8
:1019F000A0915706B0915806809391069093920655
:101A0000A0939306B093940630FC10C080915106C9
:101A100090915206A0915306B09154068093AE0661
:101A20009093AF06A093B006B093B106809186065E
:101A3000813031F426FC02C08CE1E0C6E89426F83F
:101A400080918B06882341F0813061F019A682E0F5
:101A500088A791E09FA30BC022E029A731E038A717
:101A60001FA205C0A1E0A9A718A6B2E0BFA380915C
:101A70008906813021F0EE8DE33091F52AC0B3EB79
:101A8000EB2EB6E0FB2E00E010E0C52CD12CC601F9
:101A9000002E02C0959587950A94E2F780FF10C04A
:101AA00023E333E34BEC51E4D7016D917D918D91AC
:101AB0009C910E941238F701608371838283938323
:101AC0000F5F1F4FF4E0EF0EF11C03301105F9F624
:101AD000D2CF80918C06813019F424E0521279C65D
:101AE0008CE0EAE6F6E0DE011D9601900D928A9503
:101AF000E1F7B1FC09C0309186063F8F3230B9F072
:101B0000383009F4B0C015C180918D06873010F0CF
:101B10008DE174C690914D06981769F3BE01635F1D
:101B20007F4F0E940123882309F465C6E4CF51103A
:101B300002C08AE163C6C10180759927892B09F427
:101B40007BCF6091A6067091A7068091A806909120
:101B5000A9060E94E0380E9448366730C8F6809196
:101B6000A106843129F0823009F035C627FC33C63E
:101B70008FEA2822662319F061506F8F03C090917D
:101B80008D069F8FBE016F5F7F4F8F8D0E94012357
:101B9000882309F430C64090A106609082067090B8
:101BA00083068090840690908506DE0111967D0163
:101BB000F3EBCF2EF6E0DF2EAEE5AA2EA6E0BA2E8E
:101BC00000E010E0E52DF0E0FEA3EDA38DA19EA1C5
:101BD000002E02C0959587950A94E2F780FF33C0E6
:101BE000F4E14F1226C0D50158962D913D914D91AB
:101BF0005C915B976D917D918D919C910E94FA34DF
:101C0000F60120813181428153810E94FA34D7014B
:101C10006D937D938D939C9313970230A1F4A4014F
:101C200093010E94FA34F701608371838283938366
:101C30000AC0F60180819181A281B381F70180837E
:101C40009183A283B3830F5F1F4FF4E0EF0EF11C6B
:101C500024E0C20ED11C34E0A30EB11C03301105E8
:101C600009F0B4CF0FC1552009F463CF609082060C
:101C700070908306809084069090850603EB16E0B2
:101C8000EEE5CE2EE6E0DE2E5E018DE0A80EB11C64
:101C9000E12CF12CA52DB0E0B8A3AF8F8F8D98A1CA
:101CA0000E2C02C0959587950A94E2F780FF26C016
:101CB000F5012081318142815381D6016D917D9161
:101CC0008D919C910E94FA34F801208131814281EA
:101CD00053810E94FA34D8016D937D938D939C9328
:101CE0001397B2E0EB1214C0A40193010E94FA34DE
:101CF000F80160837183828393830AC0F601808D2B
:101D0000918DA28DB38DF80180839183A283B383DB
:101D1000FFEFEF1AFF0A0C5F1F4F24E0C20ED11C29
:101D200034E0A30EB11C83E0E816F10409F0B6CF4D
:101D3000A8C09E8D933059F4AF8DA53009F48FC0A3
:101D4000A73009F499C0A33009F09BC080C055208A
:101D500099F340908A068090820690908306A09026
:101D60008406B09085067EE5C72E76E0D72E03EB7D
:101D700016E03E01BDE06B0E711CE12CF12CE52D4F
:101D8000F0E0FEA3EDA38DA19EA10E2C02C09595BF
:101D900087950A94E2F780FD0BC0F601808191815E
:101DA000A281B381F80180839183A283B3833EC073
:101DB000FF8DF730D9F1411028C0D60158962D91EA
:101DC0003D914D915C915B97F301608171818281BE
:101DD00093810E94FB34D8012D913D914D915C91EE
:101DE0000E94FB34F8016083718382839383F2E065
:101DF000EF121CC0A50194010E94FB34D8016D9321
:101E00007D938D939C93139711C0F60120813181AE
:101E100042815381D8016D917D918D919C910E9459
:101E2000FB34F8016083718382839383FFEFEF1AA1
:101E3000FF0A24E0C20ED11C0C5F1F4F34E0630E7A
:101E4000711C83E0E816F10409F09DCF75CF5110A5
:101E500001C01E8EBE016F5F7F4F86E007C051102C
:101E600001C01E8EBE016F5F7F4F87E00E9401237D
:101E7000882309F4C0C405C080918706823008F029
:101E8000ACC41F8E10918706183041F4552009F418
:101E9000B3C19E8D913009F0A2C48BC2AE8DA23029
:101EA00009F0AAC11123D9F020E030E0A901609126
:101EB00091067091920680919306909194060E94EB
:101EC000D435882309F48DC4143028F4123058F422
:101ED000113029F06EC2183008F44DC16AC2511099
:101EE00068C21E8E8CC1552009F423CEFFA1EF2FAE
:101EF000F0E0FEA3EDA338A5232F30E03BA72AA7EF
:101F000081E090E03C0108A402C0660C771C0A94B2
:101F1000E2F70FA002C0880F991F0A94E2F7682A1F
:101F2000792A852D90E086219721892B09F45BC4BD
:101F3000CF01880F991F880F991FFC01EA57F94FAD
:101F4000DC01A95BB94F57962D913D914D915C9164
:101F50005A9765A576A587A590A90E94FA346B01CA
:101F60007C018AA59BA5880F991F880F991FFC01EA
:101F7000EA57F94FDC01A95BB94F57962D913D9176
:101F80004D915C915A9765A576A587A590A90E9469
:101F9000FA344B015C0127FE40C0E89427F82091F9
:101FA000B3063091B4064091B5065091B6066091E3
:101FB0005E0670915F0680916006909161060E94B6
:101FC000D435811120C12091B7063091B8064091D7
:101FD000B9065091BA0660916206709163068091CD
:101FE0006406909165060E94D43581110CC1209140
:101FF000BB063091BC064091BD065091BE06609173
:1020000066067091670680916806909169060E9445
:10201000D4358111F8C081E2F1C3F9A14F2E512CC2
:1020200064207520672809F4E0C321EF2222809103
:102030008906813009F45AC00AA51BA5000F111F9B
:10204000000F111F0657194FD8011B962D913D9176
:102050004D915C911E97C501B4010E94FA342B0189
:102060003C01ADA0BEA0AA0CBB1CAA0CBB1CF50178
:10207000E657F94F5F012385348545855685C701AD
:10208000B6010E94FA34A30192010E94D1296B018A
:102090007C01D8011B962D913D914D915C911E972D
:1020A000F50163857485858596850E94D1294B014C
:1020B0005C016093AA067093AB068093AC06909384
:1020C000AD069B01AC01C701B6010E94FA346B0159
:1020D0007C01E894F7F82AE037ED43EA5BE3C701B7
:1020E000B6010E94D73718164CF163C185E9682EF6
:1020F00086E0782E00E010E0C201002E02C0959527
:1021000087950A94E2F780FF10C023E333E34BEC9A
:1021100051E4D3016D917D918D919C910E94123873
:10212000F30160837183828393830F5F1F4FF4E019
:102130006F0E711C03301105F9F67ECF20E030E000
:1021400040E05FE3C701B6010E94D73718160CF4D0
:1021500062CF2FE632E143E85AE3C501B4010E94A1
:1021600012389B01AC01C701B6010E94D73718167F
:102170000CF451CF1EC1552009F4DBCC2091B306DD
:102180003091B4064091B5065091B60660915E0656
:1021900070915F0680916006909161060E94D4352F
:1021A000811107C12091B7063091B8064091B90658
:1021B0005091BA0660916206709163068091640640
:1021C000909165060E94D4358111F3C02091BB0621
:1021D0003091BC064091BD065091BE0660916606E6
:1021E0007091670680916806909169060E94D435C7
:1021F000882309F410CFDDC02E8D2111DAC0C10172
:102200008E7D9C7FD9C0809189068130B1F423E313
:1022100033E34BEC51E46091AA067091AB068091D8
:10222000AC069091AD060E9412386093AA06709396
:10223000AB068093AC069093AD064090AA065090F2
:10224000AB066090AC067090AD0620E030E040E850
:1022500050E4C301B2010E941238A30192010E940E
:1022600012382B013C01A7019601C701B6010E945B
:1022700012389B01AC01C301B2010E94FA342B0158
:102280003C01A5019401C501B4010E9412389B01D3
:10229000AC01C301B2010E94FA342B013C0120E0E1
:1022A00030E0A9010E94D43587FDA7C2C301B20165
:1022B0000E949F382B013C01A5019401C701B60182
:1022C0000E94D1299B01AC01C301B20190580E9428
:1022D000DB352B013C0180918706833021F477FAAE
:1022E000709477F870948091AA069091AB06A091B3
:1022F000AC06B091AD0689A39AA3ABA3BCA320E022
:1023000030E0A901BC01CD010E94D43587FF11C086
:1023100077FA709477F8709489A19AA1ABA1BCA1C7
:10232000B0588093AA069093AB06A093AC06B093E6
:10233000AD060DA11EA1000F111F000F111F0657A2
:10234000194FA3019201C501B4010E9412389B01EB
:10235000AC01C701B6010E94FA3420E030E040E051
:102360005FE30E941238D8011B966D937D938D9385
:102370009C931E970AA51BA5000F111F000F111F8C
:102380000657194FA3019201C701B6010E941238E6
:102390009B01AC01C501B4010E94FB3420E030E098
:1023A00040E05FE30E941238F801638774878587F5
:1023B0009687C1018E7D907E892B09F018C280918D
:1023C000A2069091A306A091A406B091A5068093C1
:1023D0005A0690935B06A0935C06B0935D068091CD
:1023E0008806809348068091910690919206A0916C
:1023F0009306B09194068093550690935606A09349
:102400005706B0935806C090AE06D090AF06E09045
:10241000B006F090B106A701960160915106709147
:10242000520680915306909154060E94D435882319
:10243000C1F080915006882321F0B701A6010E94C7
:102440008C148091AE069091AF06A091B006B09129
:10245000B1068093510690935206A0935306B09311
:1024600054068091B206809359068091900690910F
:102470005006981771F040915106509152066091A4
:102480005306709154060E948C148091900680939C
:10249000500680918F0690914F06981731F00E9458
:1024A000CB1480918F0680934F06809186068130F1
:1024B00051F46091A6067091A7068091A8069091AC
:1024C000A9060E948F0880918B0680934B0680910D
:1024D0008906809349063E8D3330F9F480918C064D
:1024E00080934C06813089F48091BB069091BC06A4
:1024F000A091BD06B091BE0680938206909383069C
:10250000A0938406B093850608C0109282061092AC
:102510008306109284061092850680918D06909114
:102520004D06981759F080934D068CE0FE013D96BC
:10253000AAE6B6E001900D928A95E1F780918A06AD
:1025400080934A068091860690E0FC013297E8303D
:10255000F10508F04BC0E957FF4F0C943839BE0124
:102560006F5F7F4F8F8D0E94B52180914D069F8DAB
:1025700089133CC08CE0FE013196AAE6B6E01AC091
:10258000AE8DAA2349F020E040E050E060E87FEB08
:1025900083EB96E00E94420520E040E050E060E8D6
:1025A0007FEBCE0101960E9442058CE0FE01319640
:1025B000AEE5B6E001900D928A95E1F717C06EE5A1
:1025C00076E086E003C06EE576E087E00E94B52104
:1025D0000DC08CE0E3EBF6E0A6E7B6E0EBCF8CE0D5
:1025E000E6E7F6E0DF011D928A95E9F7809187061C
:1025F00080934706883009F498C0BE8DB23009F048
:1026000094C090E08830910508F086C0FC01E15745
:10261000FF4F0C94383920E040E050E060E87FEB59
:102620000AC0409155065091560660915706709128
:1026300058062091480683EB96E00E9442056CC044
:10264000C0905506D0905606E0905706F090580678
:102650000091AA061091AB062091AC063091AD0610
:1026600081E08F93E9A5EF93F8A5FF9315C0C09083
:102670005506D0905606E0905706F0905806009107
:10268000AA061091AB062091AC063091AD061F92C0
:1026900089A58F9398A59F938FA0A090480645E9A0
:1026A00056E063EB76E08EE596E00E9490050F9091
:1026B0000F900F9031C04091550650915606609191
:1026C000570670915806E12C0AC04091550650916A
:1026D00056066091570670915806EE24E39400E088
:1026E00015C040915506509156066091570670915D
:1026F0005806E12C0AC0409155065091560660914B
:10270000570670915806EE24E39401E020914806A4
:1027100083EB96E00E9401098CE0E3EBF6E0AEE586
:10272000B6E001900D928A95E1F780918E06809334
:102730004E06882309F45DC00E94721790914E06E0
:1027400080912806913069F48230A1F19FB7F89406
:10275000809144068860809344069FBF0E94C515FF
:1027600029C091E09093470610924B0610924A06BA
:102770001092480610924D061092500610924F0685
:102780008230A9F0BE01635F7F4F80E00E94012389
:10279000882389F18CE0FE013D96AAE6B6E001901F
:1027A0000D928A95E1F70E9417140E94B41487E0F5
:1027B0000E94A92E10924E061CC081E01FC082E02C
:1027C0001DC088E11BC089E119C084E017C08BE1FE
:1027D00015C085E213C084E111C08EE10FC08FE106
:1027E0000DC086E10BC080E209C083E207C084E22D
:1027F00005C080E003C087E001C082E2AB960FB65F
:10280000F894DEBF0FBECDBFDF91CF911F910F9126
:10281000FF90EF90DF90CF90BF90AF909F908F9000
:102820007F906F905F904F903F902F900895E0EAD7
:10283000F0E080818F7D8083E2E0F1E08081877F1E
:1028400080830895E1E0F1E0808180618083808170
:10285000886080836B9A0C941714CF92DF92EF926A
:10286000FF926A017B01811106C0FF90EF90DF901B
:10287000CF900C941714813011F4739801C0739A9F
:1028800083E28093A0008091A100807E8A61809382
:10289000A1008FEF9FEF9093A9008093A80020E004
:1028A00030E0A901C701B6010E94D43587FD11C0EF
:1028B00020E030E04AE754E4C701B6010E94D73770
:1028C000181654F4C12CD12C8AE7E82E84E4F82E93
:1028D00003C0C12CD12C76012CEE31E143E852E447
:1028E000C701B6010E94123820E030E040E05FE30B
:1028F0000E94FB340E94B1360E9448367093AB00B0
:102900006093AA0080910201886080930201FF9089
:10291000EF90DF90CF900895CF93DF9300D01F9278
:102920001F92CDB7DEB7909128069230A9F04A8366
:102930005B836C837D8389830E9472174A815B81EC
:102940006C817D8189810F900F900F900F900F9077
:10295000DF91CF910C942D140F900F900F900F904A
:102960000F90DF91CF910895E2E0F1E080818F7DBB
:1029700080830895E1E0F1E08081806280830C949F
:10298000B414823031F4809102018062809302019C
:1029900008950C94B414CF93DF931F92CDB7DEB794
:1029A00090912806923049F089830E94721789819C
:1029B0000F90DF91CF910C94C1140F90DF91CF91C4
:1029C00008959091020280910302891708F48058BB
:1029D000891B0895E0ECF0E0808182608083109292
:1029E000C50080E18093C400E1ECF0E0808180616B
:1029F000808380818860808380818068808308955F
:102A0000E091010291E09E0F903409F490E0209152
:102A10000002921305C02091440624FFF8CF0895C8
:102A2000F0E0E154F94F8083909301028091C1005E
:102A300080628093C10008951F920F920FB60F928B
:102A400011240BB60F928F939F93EF93FF93809176
:102A50000002E82FF0E0E154F94F90819093C60016
:102A60008F5F803409F480E080930002909101022E
:102A7000891305C08091C1008F7D8093C100FF91B3
:102A8000EF919F918F910F900BBE0F900FBE0F9003
:102A90001F9018959091020280910302891761F0AE
:102AA000E92FF0E0E150F94F80819F5F903809F401
:102AB00090E09093020208958FEF08951F920F9275
:102AC0000FB60F9211240BB60F922F933F934F9393
:102AD0005F936F937F938F939F93AF93BF93EF9386
:102AE000FF938091C6008F33A9F050F4883109F12B
:102AF000813211F59FB7F89480914406886015C023
:102B0000803471F08E37C1F49FB7F89480914406F9
:102B100082600BC09FB7F89480914406816005C025
:102B20009FB7F894809144068062809344069FBFCB
:102B300014C00E949F0911C0E091030291E09E0F12
:102B4000903809F490E020910202921731F0F0E001
:102B5000E150F94F808390930302FF91EF91BF9171
:102B6000AF919F918F917F916F915F914F913F9125
:102B70002F910F900BBE0F900FBE0F901F901895C6
:102B800080910302809302020895EF92FF920F93C7
:102B90001F93CF93DF93D1E008E080E2F82E10E19D
:102BA00090E4E92EC0914606CC2389F1D093280603
:102BB000C1FF02C081E00FC0C2FF02C082E00BC0B3
:102BC000C3FF02C083E007C0C4FF02C084E003C0AB
:102BD000C5FF03C085E00E947F2EC0FD08C08FB7EF
:102BE000F89490914606109246068FBF10C081E07F
:102BF0000E94A92E9FB7F894809144068F7E8093FF
:102C000044069FBF8091440684FFFCCFE8CFC0916B
:102C10004406CC2309F4BCC0C4FF04C081E0809307
:102C20002706CEC0C0FF0AC00E94DC319FB7F894CF
:102C3000809144068E7F809344069FBF8C2F8876B8
:102C400009F43CC080912806882349F0982F9C778E
:102C500069F1883021F40E948B1AD0932906809163
:102C60002806811103C092E090932906C6FF09C08F
:102C7000883011F4E09228068091290688608093BC
:102C80002906C3FF05C08091280685FF10932806FA
:102C9000C5FF0CC086E00E94A92E8091290681FD07
:102CA000C460846080932906F09228069FB7F89448
:102CB000809144068779809344069FBFC1FF48C036
:102CC0008C2F8876E9F580912806882331F080756D
:102CD000B9F18091290681FF33C08091290682FFD6
:102CE0001CC080915006882371F04091510650918C
:102CF000520660915306709154060E942D1480EA8A
:102D00009FE00E94C62980914F06882331F00E94DF
:102D1000C11488EE93E00E94C6290E94A725892B42
:102D200059F08091290683FD07C0009328060E9470
:102D3000AD1A0E94831702C010922806109229062D
:102D40009FB7F894809144068D7F809344069FBF7F
:102D5000C2FF1EC080912806807371F08091290601
:102D600082FF04C00E9417140E94B41480912906A7
:102D700082608093290604C01092290610922806CA
:102D80009FB7F894809144068B7F809344069FBF41
:102D9000809128068C7711F00E94AD1A8091280648
:102DA000803251F48091290681FF06C00E942D33A4
:102DB000811102C010932806809129068111F2CE5C
:102DC000DF91CF911F910F91FF90EF9008959FB7E2
:102DD000F894809144068260809344069FBF0895D2
:102DE000CF93DF930E94D82E80912806813021F462
:102DF00082E00E94A92E2FC00E942D33882341F02B
:102E0000809144068062809344060E94C51502C0EA
:102E10001092280684E092E00E942F331CC08D306F
:102E200079F0DD2399F1893221F4D13009F04CC0D9
:102E3000D0E00E944A158F3F09F448C08A3079F7E4
:102E4000EC2FF0E0EC5FFD4F10820E94C5158091E1
:102E50002706882311F0C0E0EBCF80910402811196
:102E600003C00E94312EF7CF843229F484E092E02F
:102E70000E944E33F6CF80912806813011F489E00C
:102E8000F0CF84E092E00E94E209EBCF813288F239
:102E90008F3279F28832B1F08B33B1F0CF3428F031
:102EA0008BE00E94312EC0E0C4CF2C2F30E0CF5FEA
:102EB0009FE9980FF901EC5FFD4F9A3108F48052B9
:102EC0008083B7CFD1E0B5CFD2E0B3CF0E94E71671
:102ED0000E94C51580912706882309F4AACFDF91A7
:102EE000CF9108950E94E7160E94C515809127068C
:102EF000811108C00E94A725892BB1F7809128066F
:102F0000883091F308958091BC0782FF02C02F9A08
:102F100001C02F98809128068C70A1F080918402C6
:102F20008093980280918502809397028091AF07E9
:102F3000880F845081958093960280916F00826003
:102F400080936F00089580916F008D7F80936F0054
:102F500080918100887F816080938100109283023C
:102F60008091B2078F3F21F490914606992349F052
:102F700090912806943029F090E00E94C62981E0C3
:102F800001C080E09091BC0792FF02C091E08927C8
:102F9000882311F02F9A08952F9808951F920F9269
:102FA0000FB60F9211240BB60F922F933F934F93AE
:102FB0005F936F937F938F939F93AF93BF93CF93C1
:102FC000DF93EF93FF93809183028111EFC198B15A
:102FD00080919802807E9F71892B88B982B1837E0F
:102FE00090919702892B82B98091960286BD82E0EA
:102FF00085BD81E08093830278948091AA029091AC
:10300000AB02892B09F0A4C08091880290918702BD
:10301000981709F492C0E091880286E0E89FF001D9
:103020001124E455FD4FF093AB02E093AA02838193
:1030300094819093890080938800808191819093FE
:10304000A6028093A502A2818091A7028A1771F13E
:10305000A093A70281E1A89FD0011124A053BD4FE6
:10306000B093A902A093A8021D968D919D910D90F9
:10307000BC91A02DB695A7959795879580939102C1
:1030800090939202A0939302B093940280938D0246
:1030900090938E02A0938F02B09390028093890246
:1030A00090938A02A0938B02B0938C02C091A802E5
:1030B000D091A902809184029881892780939802F7
:1030C000258189819A81AB81BC81022E04C0B6958D
:1030D000A795979587950A94D2F780939902909334
:1030E0009A02A0939B02B0939C028D819E81AF8136
:1030F000B885022E04C0B695A795979587950A9432
:10310000D2F780939D0290939E02A0939F02B0936A
:10311000A00289859A85AB85BC8504C0B695A79524
:10312000979587952A95D2F78093A1029093A20252
:10313000A093A302B093A4020BC00E94A3179FB751
:10314000F894809144068460809344069FBF2EC10A
:103150000E94182E109297028091990290919A02E3
:10316000A0919B02B0919C024091890250918A02E9
:1031700060918B0270918C02840F951FA61FB71F60
:103180008093890290938A02A0938B02B0938C0261
:10319000E091A802F091A90245855685678570895E
:1031A000481759076A077B0768F524E020939702C0
:1031B0004585568567857089841B950BA60BB70BD3
:1031C0008093890290938A02A0938B02B0938C0221
:1031D000208180912A0690912B06A0912C06B09117
:1031E0002D0627FF04C00197A109B10903C001966C
:1031F000A11DB11D80932A0690932B06A0932C0647
:10320000B0932D0680919D0290919E02A0919F0205
:10321000B091A00240918D0250918E0260918F0278
:1032200070919002840F951FA61FB71F80938D0287
:1032300090938E02A0938F02B0939002458556859D
:1032400067857089481759076A077B0778F52091C9
:103250009702286020939702458556856785708977
:10326000841B950BA60BB70B80938D0290938E0257
:10327000A0938F02B0939002208180912E069091AE
:103280002F06A0913006B091310626FF04C00197A9
:10329000A109B10903C00196A11DB11D80932E069D
:1032A00090932F06A0933006B09331068091A1022F
:1032B0009091A202A091A302B091A4024091910228
:1032C000509192026091930270919402840F951F25
:1032D000A61FB71F8093910290939202A09393022E
:1032E000B0939402458556856785708948175907BC
:1032F0006A077B0778F52091970220612093970257
:103300004585568567857089841B950BA60BB70B81
:103310008093910290939202A0939302B0939402AF
:1033200020818091320690913306A0913406B091AD
:10333000350625FF04C00197A109B10903C0019614
:10334000A11DB11D8093320690933306A0933406DD
:10335000B093350680912806843039F48091430675
:10336000909197028923809397028091A502909172
:10337000A60201979093A6028093A502892B69F477
:103380001092AB021092AA02809188028F5F809304
:103390008802863011F41092880280918502909103
:1033A000970289278093970210928302FF91EF91F1
:1033B000DF91CF91BF91AF919F918F917F916F914D
:1033C0005F914F913F912F910F900BBE0F900FBEC9
:1033D0000F901F9018951F920F920FB60F92112405
:1033E0008F939F9392B1809185028C71937E892BEC
:1033F00082B915BC9F918F910F900FBE0F901F90B7
:103400001895FF920F931F93CF93DF93109285022D
:1034100010928402C0E0D0E00C2F1C2F2091B00746
:1034200030E08C2F0C2E02C0359527950A94E2F7D8
:1034300020FF07C0F09085020E9449248F298093C5
:1034400085022091B10730E002C0359527951A9585
:10345000E2F720FF08C010918402802F0E945324BD
:10346000812B809384022196C330D105A9F6DF9188
:10347000CF911F910F91FF9008950E94A3178BE2A7
:10348000E4E5F2E0DF011D928A95E9F783E2E9E8DD
:10349000F2E0DF011D928A95E9F710928202109204
:1034A0008102109288021092870281E08093860246
:1034B000109283020E94011A82B1837E909185024C
:1034C000892B82B988B18F7190918402892B88B938
:1034D000089581B18C6181B9279A87B1806E87B9CF
:1034E000E1E8F0E080818F7E808380818860808346
:1034F000E0E8F0E080818C7F808380818F70808322
:10350000EEE6F0E08081887F808314BC15BC80816A
:10351000816080830895CF93DF93C0918102D09121
:1035200082022097B9F081E08093550260916B028E
:1035300070916C0280916D0290916E029B01AC01C2
:103540000E941238698B7A8B8B8B9C8B1092820233
:1035500010928102DF91CF9108952F923F924F9266
:103560005F926F927F928F929F92AF92BF92CF9213
:10357000DF92EF92FF920F931F93CF93DF93CDB71C
:10358000DEB7E5970FB6F894DEBF0FBECDBF8091D2
:103590002806807709F40AC220E030E0A901609192
:1035A0006B0270916C0280916D0290916E020E948C
:1035B000D4358111FBC103C68091810290918202B2
:1035C000892B09F4FAC180918702F6E0F89FF00197
:1035D0001124E455FD4FFE83ED83809154028283D4
:1035E00020918102309182023E872D87D9019596E4
:1035F000BC91BCA7F901F6A1FDA7D9019796BC9192
:10360000BEA7F901F0A5FFA720915E0230915F02ED
:1036100040916002509161026CA57DA58B2F9F2F78
:103620000E94FA3468A779A78AA79BA720E030E018
:10363000A9010E94D43587FF04C018A619A61AA6AE
:103640001BA620917702288F30917802398F409104
:1036500079024A8F50917A025B8F80916F028C8F32
:10366000909170029D8FA0917102AE8FB091720205
:10367000BF8FE0917B02E8A3F0917C02F9A3209137
:103680007D022AA330917E023BA3409167024CA3A6
:10369000509168025DA3809169028EA390916A02A5
:1036A0009FA3209173023091740240917502509152
:1036B000760228AB39AB4AAB5BAB30916B023983F6
:1036C00040916C02498720906D0230906E025091BB
:1036D00066025F878CA58C8B9DA59D8BAEA5AE8B5E
:1036E000BFA5BF8B3EE3C32E33ECD32E3EE2E32EC9
:1036F00039E3F32E188A198A1A8A1B8A26013701A0
:10370000EF85E111B4C3AD85BE8591962D913D91B4
:103710004D915C919497C701B6010E9412384B01FC
:103720005C0120E030E040E05FE30E9412389B0142
:10373000AC0169817985C1010E94FB349B01AC0118
:10374000C701B6010E9412389B01AC016C897D89CA
:103750008E899F890E94FA348B018DAB9CAB288D9A
:10376000398D4A8D5B8D0E94D43587FF86C3288DA5
:10377000398D4A8D5B8D6CA57DA58EA59FA50E9478
:10378000FA349B01AC010E94FB346B017C012C8D4F
:103790003D8D4E8D5F8D69817985C1010E94FB341D
:1037A0009B01AC01C701B6010E94DB356B017C01B6
:1037B00028A139A14AA15BA1688D798D8A8D9B8D45
:1037C0000E94D435882309F455C3B1E0BF87FC8D2E
:1037D000F9832D8D29872E8C3F8C088D198D3A8D7C
:1037E0003DAB4B8D4CABA7019601688979898A89DD
:1037F0009B890E94FB34688B798B8A8B9B8BA301FE
:1038000092010E94D43587FDF2C328A539A54AA5A7
:103810005BA5B8018DA99CA90E94D73718160CF496
:10382000DCC389819985D10180936B0290936C02EE
:10383000A0936D02B0936E02FF85F09366024090F4
:103840005A0250905B0260905C0270905D02980199
:103850004DA95CA9C301B2010E94123869837A8321
:103860008B839C830E94C1356B017C016091560261
:103870007091570280915802909159020E94C1356F
:103880004B015C01A70196010E94FA340E94483660
:1038900069877A878B879C87E985FA85AD81BE81A8
:1038A000ED93FC93309709F4CDC3209162023091DF
:1038B00063024091640250916502688979898A891E
:1038C0009B890E94FB342B013C0129813A814B8169
:1038D0005C81C501B4010E94FA349B01AC01C301B3
:1038E000B2010E94DB354B015C0129813A814B8199
:1038F0005C81C701B6010E94FA34A50194010E94BF
:103900001238609362027093630280936402909312
:10391000650220EC31EE44E65EE4C501B4010E948C
:1039200012380E94C1350E944836603DB7E07B07DF
:103930008105910508F0ACC3ED81FE811582AD8152
:10394000BE8114967C936E93139780918602809328
:1039500087028F5F863009F4D4C38093860220915A
:103960006702309168024091690250916A02B80181
:103970008DA99CA90E94D73718160CF0C5C3E091F9
:103980008102F0918202C801ADA9BCA985A396A3CA
:10399000A7A3B0A789819A81AB81BC81809356028D
:1039A00090935702A0935802B093590290918802C5
:1039B00080918602981300CE02C40E94A7251C01A4
:1039C0009093820280938102009709F4F8C380915A
:1039D000550210912806882319F010925502BEC096
:1039E000809154028F5F853019F08093540202C099
:1039F00010925402E091540221E12E9FF001112413
:103A0000E053FD4FF0938002E0937F02D1018C914F
:103A1000808311964D915D916D917C91149703E097
:103A2000440F551F661F771F0A95D1F741835283B4
:103A30006383748315964D915D916D917C91189778
:103A400083E0440F551F661F771F8A95D1F7458382
:103A500056836783708719964D915D916D917C9126
:103A60001C9793E0440F551F661F771F9A95D1F757
:103A700041875287638774871D966D917D918D91E3
:103A80009C9150976B017C0123E0CC0CDD1CEE1C5B
:103A9000FF1C2A95D1F7C586D686E786F08A0E9454
:103AA0007436609356027093570280935802909335
:103AB0005902F10125A136A147A150A50E94DB358D
:103AC0009B01AC0160935A0270935B0280935C028D
:103AD00090935D0260E070E080EA9FE30E94DB3536
:103AE00060935E0270935F02809360029093610224
:103AF00010926202109263021092640210926502A8
:103B0000812F8077E1F0609173027091740280914F
:103B100075029091760260936B0270936C028093B1
:103B20006D0290936E029B01AC010E941238D1018C
:103B300051966D937D938D939C9354970FC0F10193
:103B400061897289838994890E949F3860936B028E
:103B500070936C0280936D0290936E0210926702D4
:103B6000109268021092690210926A02D101919635
:103B70008D909D90AD90BC909497A501940160E0CC
:103B800070E080E09FE30E94DB352B013C01107761
:103B9000F101C5A0D6A0E7A0F0A4112309F44DC0FF
:103BA000F2E0F0936602D10151962D913D914D9135
:103BB0005C9154972D833E834F8358870E9412381F
:103BC0009B01AC01C701B6010E94FA342B013C01F4
:103BD00020E030E0A9010E94D43587FF1DC0A50177
:103BE0009401C501B4010E94FB34A70196010E9413
:103BF00012389B01AC016D817E818F8198850E9476
:103C0000FA340E949F386093730270937402809319
:103C1000750290937602D7CC409267025092680268
:103C20006092690270926A0210927302109274029A
:103C30001092750210927602C6CC10926602C09263
:103C40007702D0927802E0927902F0927A020E9492
:103C5000B7254B015C0160937302709374028093EB
:103C60007502909376029B01AC010E941238698321
:103C70007A838B839C830091810210918202D80108
:103C800095962D913D914D915C91989729873A8712
:103C90004B875C8751962D913D914D915C91549746
:103CA0002D833E834F8358879B01AC016D817E81BC
:103CB0008F8198850E94FA349B01AC01C301B20147
:103CC0000E9412389B01AC0169857A858B859C85A1
:103CD0000E94FB3420E030E040E05FE30E941238B5
:103CE0006B017C0120E030E0A9010E94D737181653
:103CF0000CF0ACC029853A854B855C85C701B601BF
:103D00000E94D43587FF8EC0F801858C968CA78CD5
:103D1000B0A029813A814B815C81C501B4010E9428
:103D2000FA349B01AC01C301B2010E9412386093C6
:103D30007B0270937C0280937D0290937E02A701A8
:103D400096010E94D43587FF3DC0C501B4010E9491
:103D50009F3860936F02709370028093710290930A
:103D60007202A50194016D817E818F8198850E94E8
:103D7000D435811104C0F1E0F093660224CC2D818A
:103D80003E814F815885C501B4010E94FA349B01E0
:103D9000AC01C301B2010E9412389B01AC016091D9
:103DA0007702709178028091790290917A020E9454
:103DB000FA3460937702709378028093790290933B
:103DC0007A0201CCC0927702D0927802E092790216
:103DD000F0927A02C0927B02D0927C02E0927D0245
:103DE000F0927E02D80191966D917D918D919C917A
:103DF00094979B01AC010E94FB34A70196010E949D
:103E0000123829813A814B815C810E94FB340E94E7
:103E10009F3860936F027093700280937102909349
:103E20007202D1CBB2E0B093660280916B029091A6
:103E30006C02A0916D02B0916E0280936F0290931C
:103E40007002A0937102B0937202BDCB1092770200
:103E5000109278021092790210927A0280926F0288
:103E600090927002A0927102B0927202ACCBE130DB
:103E700061F041C0E2E0EF87AACCA501940169811D
:103E80007985C1010E94FB347CC0A70196016C8D2D
:103E90007D8D8E8D9F8D0E9412389B01AC016C89A7
:103EA0007D898E899F890E94FA348B018DAB9CABF2
:103EB00028A139A14AA15BA10E94D43587FF93CCE8
:103EC00028A139A14AA15BA16C897D898E899F892E
:103ED0000E94FA342C8D3D8D4E8D5F8D0E94DB3516
:103EE0006B017C0108A119A15AA15DAB8BA18CAB20
:103EF00092E09F8778CCAD85BE8591962D913D91BE
:103F00004D915C919497C701B6010E9412384B0104
:103F10005C019B01AC0169817985C1010E94D737A1
:103F200018169CF520E030E040E05FE3C501B401E5
:103F30000E9412389B01AC0169817985C1010E9400
:103F4000FA349B01AC01C701B6010E9412389B01F3
:103F5000AC016C897D898E899F890E94FA348B011E
:103F60008DAB9CAB2CA13DA14EA15FA10E94D73788
:103F700018165CF4A501940169817985C1010E943C
:103F8000FA34698379871C012ECC2CA13DA14EA166
:103F90005FA16C897D898E899F890E94FA349B017B
:103FA000AC010E94FB346B017C0128A939A94AA904
:103FB0005BA969817985C1010E94FB349B01AC0139
:103FC000C701B6010E94DB356B017C010CA11DA16C
:103FD000BEA1BDABEFA1ECAB06CC2EE333EC4EE2C1
:103FE00059E3C301B2010E94FB342B013C01288933
:103FF00039894A895B89C301B2010E94FA346B0195
:104000007C012CA13DA14EA15FA1B8018DA99CA965
:104010000E94D73718167CF089819985D101809349
:104020006B0290936C02A0936D02B0936E023F8579
:104030003093660204CC0C8B1D8B4DA94E8B5CA972
:104040005F8B5ECB80912806807709F42ECC10928E
:104050006B0210926C0210926D0210926E0210921E
:104060006202109263021092640210926502C09282
:104070005602D0925702E0925802F0925902A301E0
:104080009201C701B6010E94DB35AD85BE8570C0C7
:10409000603AFFE07F078105910510F4E1E009C077
:1040A0006034FFE17F078105910510F4E2E001C073
:1040B000E3E0AD81BE811596EC93AD81BE8115968E
:1040C0002C911597022E04C0969587957795679544
:1040D0000A94D2F7E985FA8502C0EE0FFF1F2A95F0
:1040E000E2F7ED93FC9361157105F1E08F079105FF
:1040F00008F425CC2FEF3FEFED81FE81348323833D
:1041000024CC109286022BCC20E030E0A901B8012B
:104110008DA99CA90E94D73718160CF049C010929F
:104120006B0210926C0210926D0210926E0210924D
:104130006202109263021092640210926502C092B1
:104140005602D0925702E0925802F0925902009122
:1041500081021091820220915A0230915B024091BB
:104160005C0250915D02C701B6010E94DB35D801A7
:1041700095966D937D938D939C939897E5960FB646
:10418000F894DEBF0FBECDBFDF91CF911F910F918D
:10419000FF90EF90DF90CF90BF90AF909F908F9067
:1041A0007F906F905F904F903F902F900C940C29D0
:1041B00010928202109281020E949325F7CBE5961D
:1041C0000FB6F894DEBF0FBECDBFDF91CF911F9128
:1041D0000F91FF90EF90DF90CF90BF90AF909F90A6
:1041E0008F907F906F905F904F903F902F900895A9
:1041F000F999FECF92BD81BD81E08FBB80B5089556
:10420000F894F999FECF92BD81BD81E08FBB40B596
:104210004627842F992787FD9095262F30E082230B
:104220009323892B39F06F3F19F060BD84E006C0FD
:1042300084E104C0442321F060BD84E28FBBF99A7D
:10424000789408959F92AF92BF92CF92DF92EF92AF
:10425000FF920F931F93CF93DF938C017A016B0131
:10426000C40ED51EEB01912C5C01A61AB70ACE0133
:104270008A0D9B1DCC15DD0591F0911009C0692DAB
:10428000772767FD7095272F221F2227221F01C045
:1042900021E06991922E960E0E940021E8CF692DAF
:1042A000C8018E0D9F1DDF91CF911F910F91FF903F
:1042B000EF90DF90CF90BF90AF909F900C94002133
:1042C0009F92AF92BF92CF92DF92EF92FF920F93A5
:1042D0001F93CF93DF938B017A016C01C40ED51E1F
:1042E000EC01912C5B01A81AB90AC5018C0F9D1F26
:1042F000CC15DD0591F00E94F820911009C0292D00
:10430000332727FD3095232F221F2227221F01C08C
:1043100021E0922E980E8993E8CFC8018E0D9F1D43
:104320000E94F82021E030E0981611F020E030E003
:10433000C901DF91CF911F910F91FF90EF90DF9016
:10434000CF90BF90AF909F90089521E5829FC001CC
:10435000112440E550E09D5F0C94222140E550E09F
:10436000BC018EEA93E00C9422212DE0829FC001D3
:1043700011244CE050E09E5F0C94222169E080E023
:1043800090E00E9400214DE450E06FE777E081E08B
:1043900090E00C942221EF92FF920F931F93CF9302
:1043A000DF93CDB7DEB72C970FB6F894DEBF0FBE04
:1043B000CDBF182F80FFC1C08AE08093AF0789E18D
:1043C0008093B2071092B0071092B10783E08093F8
:1043D000B3078AE097EDA3E2BCE38093B407909320
:1043E000B507A093B607B093B7078FE692E1A3E0B5
:1043F000BBE38093B8079093B907A093BA07B09333
:10440000BB071092BD0780E090E0A8ECB1E4809378
:10441000BE079093BF07A093C007B093C10740E0C9
:1044200050E06AEF73E44093C2075093C307609370
:10443000C4077093C5078AEF90E09093C7078093F5
:10444000C60780E090E0A0E8BFE38093C8079093A0
:10445000C907A093CA07B093CB071092BC0780E0AE
:1044600090E0AAE7B3E480937F0790938007A0933E
:104470008107B09382078093830790938407A0936A
:104480008507B09386078093870790938807A0934A
:104490008907B0938A0740938B0750938C076093EA
:1044A0008D0770938E0740938F075093900760930A
:1044B00091077093920740939307509394076093EA
:1044C00095077093960740E050EA6CE077E44093DC
:1044D0009707509398076093990770939A074093B2
:1044E0009B0750939C0760939D0770939E07409392
:1044F0009F075093A0076093A1077093A20740E025
:1045000050E068E473EC4093A3075093A4076093D2
:10451000A5077093A6074093A7075093A807609339
:10452000A9077093AA074093AB075093AC07609319
:10453000AD077093AE070E94BE2111FF10C0CE01DF
:1045400001967C018CE0F70111928A95E9F700E071
:10455000B701802F0E94B5210F5F0830C9F712FF05
:104560000AC060E080E093E00E94002160E081E505
:1045700093E00E94002113FF05C060E08EEA93E003
:104580000E9400212C960FB6F894DEBF0FBECDBF5F
:10459000DF91CF911F910F91FF90EF9008951F939E
:1045A000CF93DF93182FEB0181E5189FB001112401
:1045B0007D5F40E550E0CE010E946021892B39F4F7
:1045C0001882BE01812F0E94A52180E001C081E0F8
:1045D000DF91CF911F910895CF93DF93EC0140E5D8
:1045E00050E06EEA73E00E946021892B31F418825A
:1045F000CE010E94AE2180E001C081E0DF91CF9129
:1046000008951F93CF93DF93182FEB018DE0189F30
:10461000B00111247E5F4CE050E0CE010E94602189
:10462000892B59F48CE0FE0111928A95E9F7BE01BD
:10463000812F0E94B52180E001C081E0DF91CF9100
:104640001F91089580E090E00E94F820893059F48D
:104650004DE450E061E070E08FE797E00E94602158
:1046600021E0892B09F420E0822F0895CF92DF9278
:10467000EF92FF92CF93DF93C82F6A017B0120E076
:1046800030E0A901C701B6010E94D43587FDE6C01C
:10469000C43608F445C02CE92C0F80E02330B8F56F
:1046A00030E0823079F0F901EE0FFF1FEE0FFF1FAF
:1046B000833011F1813019F0E158F84F23C0E557EC
:1046C000F84F20C0E901CC0FDD1FCC0FDD1FC9560C
:1046D000D84F20E030E040E752E4C701B6010E9425
:1046E000123820E030E040E752E40E94123868833C
:1046F00079838A839B83AEC0ED55F84FF7FAF09427
:10470000F7F8F094C082D182E282F382A3C08F5F77
:104710002A3008F4A5C0843009F4A2C02A50BECFC4
:10472000C701B6010E94E0380E9448368C2F90E005
:104730008C31910508F094C0FC01E956FF4F0C94B0
:104740003839633008F48EC06093AF0783C060933C
:10475000B20780C06093B00702C06093B1070E94A7
:10476000011A78C08091BC07662311F0846007C0ED
:104770008B7F05C08091BC07662321F08064809305
:10478000BC0768C08F7BFBCF8091BC07662311F00C
:104790008068F5CF8F77F3CF6093B3075BC0C0928B
:1047A000B407D092B507E092B607F092B70752C0AF
:1047B000C092B807D092B907E092BA07F092BB074F
:1047C00049C08091BC07662311F08160D8CF8E7FED
:1047D000D6CF8091BC07662321F084FF45C080625C
:1047E000CECF8F7DCCCF8091BC07662311F088603F
:1047F00001C0877F8093BC070E94022A2BC0809152
:10480000BC07662311F08061BACF8F7CB8CF60936C
:10481000BD0720C0C092BE07D092BF07E092C0077C
:10482000F092C10717C0C092C207D092C307E092AE
:10483000C407F092C5070EC070E07093C70760937D
:10484000C60708C0C092C807D092C907E092CA073D
:10485000F092CB070E94BE2180E007C084E005C033
:1048600083E003C086E001C08AE0DF91CF91FF9032
:10487000EF90DF90CF9008950E942223811108C00D
:1048800087E00E94312E8FEF0E94CB210C94E02E06
:104890000895882321F0813021F488E0089584E090
:1048A000089580E10895882321F0813021F480E487
:1048B000089580E8089580E20895882321F08130EA
:1048C00021F480E2089580E1089580E408954F92F4
:1048D0005F926F927F928F929F92AF92BF92CF9290
:1048E000DF92EF92FF920F931F93CF93DF9310917C
:1048F0004303111101C012E111500091410310173F
:1049000009F4EFC089E2189FE0011124CB5BDC4F72
:104910008D889E88AF88B88C69A17AA18BA19CA153
:104920009B01AC010E94FB342DA13EA14FA158A5D3
:104930000E9412386B017C019B01AC01B401C501DE
:104940000E94D43587FF02C064017501A601B7013A
:10495000498B5A8B6B8B7C8B111101C012E1772430
:104960007A94710E701619F029E2622E27C0809198
:104970004403081351C00E948B1A4EC0679C8001EB
:1049800011240B5B1C4F711002C092E1792E7A94B6
:1049900080914403781202C00E948B1AF801C588E6
:1049A000D688E788F08CA70196016189728983898E
:1049B00094890E94D435811106C0E8018091410399
:1049C0007812DCCF29C0F80161A172A183A194A162
:1049D0009B01AC010E94FB34F80125A136A147A13F
:1049E00050A50E94123829893A894B895C890E9416
:1049F000FB344B015C01A70196010E94D435F801FC
:104A000087FF05C0818A928AA38AB48AD6CFC18AD9
:104A1000D28AE38AF48AD1CF60904103F9E26F9E93
:104A2000800111240B5B1C4F77247394760C82E178
:104A3000781201C0712C5090430389E2482E7514FE
:104A400009F44DC0479CE0011124CB5BDC4FF80119
:104A500081889288A388B488C988DA88EB88FC8822
:104A6000A7019601C501B4010E94D43587FF23C078
:104A7000F80161A172A183A194A19B01AC010E94E4
:104A8000FB34F80125A136A147A150A50E94123898
:104A90009B01AC01C501B4010E94FB344B015C01D8
:104AA000A70196010E94D43587FF05C0898A9A8A9A
:104AB000AB8ABC8A672C2D893E894F89588D6989BC
:104AC0007A898B899C890E94D435811101C0672C19
:104AD0007394F2E17F1201C0712C8E01B0CF60920D
:104AE0004103DF91CF911F910F91FF90EF90DF90E5
:104AF000CF90BF90AF909F908F907F906F905F907E
:104B00004F9008958CE1E5E2F3E0DF011D928A9574
:104B1000E9F7109244031092430381E0809342032B
:104B200010924103089590914403809143038917A3
:104B300069F081E0890F823109F480E0209141031E
:104B4000921302C08093410380934403089580919F
:104B5000440390914303981739F029E2829FC001E2
:104B600011248B5B9C4F089580E090E00895E091C4
:104B70004403EF5FE23109F4E0E080914303E8177A
:104B800061F089E2E89FF0011124EB5BFC4F618941
:104B90007289838994890C949F3860E070E0CB011E
:104BA000089581E02091440390914203291380E00D
:104BB00008952F923F924F925F926F927F928F92C1
:104BC0009F92AF92BF92CF92DF92EF92FF920F939C
:104BD0001F93CF93DF93CDB7DEB7AD970FB6F894A1
:104BE000DEBF0FBECDBF142F052F6B8F7C8F822EA3
:104BF0002091430339E2239F10011124F101EB5B63
:104C0000FC4F1F01158616861786108A15A216A25C
:104C100017A210A6108249E956E766E97EE741A38C
:104C200052A363A374A35C014FE7E42E47E0F42E84
:104C30009E01235F3F4F38A32F8F85E293E09E8F25
:104C40008D8F6F01FE013196FAA3E9A3912CF50136
:104C500061917191819191915F01F7012081318181
:104C6000428153810E9412380E94E237EF8DF8A1F1
:104C70006193719381939193F8A3EF8FED8DFE8DE6
:104C80004190519061907190FE8FED8F641975097C
:104C9000860997092B013C0197FF07C0442455243E
:104CA0003201461A570A680A790AF601418252828D
:104CB00063827482F10125853685478550894216C5
:104CC00053066406750610F429013A01F101458680
:104CD00056866786708A0E947636F7012081318178
:104CE000428153810E94DB352B013C01E9A1FAA1ED
:104CF0006193719381939193FAA3E9A320E030E04B
:104D0000A9010E94D43587FF0AC0F1019081892D45
:104D10009DA70E9453249DA5892BF1018083A301A7
:104D20009201C301B2010E941238F10125A136A1FE
:104D300047A150A50E94FB34F10165A376A387A388
:104D400090A79394F4E0EF0EF11C24E0C20ED11C66
:104D500033E093127CCF0E949F386B017C01F101FC
:104D600065A376A387A390A785859685A785B08937
:104D7000892B8A2B8B2B09F4FCC120E030E0A901A0
:104D8000612F702F8B8D9C8D0E94D43587FD21C0A3
:104D9000882061F0A7019601612F702F8B8D9C8D6B
:104DA0000E941238162F072F8B8F9C8F20E030E047
:104DB00040E85FE3612F702F8B8D9C8D0E94D4356E
:104DC00087FF0DC010E000E030E83B8F8FE38C8F51
:104DD00006C019E906E7F6E9FB8F2EE72C8FA7013D
:104DE000960160E070E080E89FE30E94DB3569A7F0
:104DF0007AA78BA79CA7E1E3F3E0FAA3E9A32BE84A
:104E000037E038A32F8FCE010D969A8F898FFE0140
:104E10003196FE8FED8FC12CD12C7601ED8DFE8D5C
:104E200080809180A280B38020E030E0A901C5019C
:104E3000B4010E94D435882309F47FC029A53AA57E
:104E40004BA55CA5C501B4010E9412384B015C0161
:104E5000ED8DFE8D60837183828393839B01AC0112
:104E600060E070E080E89FE30E94DB352B013C01AD
:104E7000E89477F8EF8DF8A1208131814281538148
:104E8000C301B2010E9412386BA37CA38DA39EA321
:104E90009B01AC01612F702F8B8D9C8D0E94D435AE
:104EA00087FF06C01BA30CA3FB8DFDA32C8D2EA397
:104EB000F101F1A1FB8FF101F2A1FC8FF101F3A14E
:104EC000FFA3F101F4A1F8A7EF8DF8A124853585A2
:104ED00046855785C301B2010E9412383B018C01FF
:104EE0009B01AC016B8D7C8D8FA198A50E94D43560
:104EF00087FF04C06B8C7C8C0FA118A5C301D8015F
:104F0000F10181A392A3A3A3B4A3E9A1FAA12081F3
:104F1000318142815381C501B4010E9412389B0145
:104F2000AC01C701B6010E94FA346B017C011BA1E0
:104F30000CA1FDA1FB8F2EA12C8F8D8D9E8D049633
:104F40009E8F8D8FE9A1FAA13496FAA3E9A32F8D44
:104F500038A12C5F3F4F38A32F8FE98DFA8D8E1724
:104F60009F0709F05BCF909143038091440398130E
:104F700006C0F101118A128A138A148A0BC02FEE1F
:104F80003FEF4FE75FE3C701B6010E94D73718161E
:104F900034F4F101118E128E138E148E5BC02FEE3D
:104FA0003FEF4FE75FEBC701B6010E94D7371816F6
:104FB00044F03FEEC32EDD24DA943FE7E32E3FEBCF
:104FC000F32EA701960160E070E080E89FE30E9465
:104FD000FA3420E030E040E05FE30E9412380E94A3
:104FE0009F386B017C012091B4073091B507409147
:104FF000B6075091B707F10161A172A183A194A1F5
:105000000E941238A70196010E9412384B015C01E0
:10501000A701960160E070E080E89FE30E94FA3407
:105020009B01AC01C501B4010E94DB356B017C0121
:1050300020E030E0A9010E94D43587FF04C0C12CD4
:10504000D12CE12CF12CA601B701F101418F528F37
:10505000638F748F212F302F4B8D5C8D612F702FBC
:105060008B8D9C8D0E941238162F072FF82EE92E5B
:10507000862F902FAF2DBE2DF101858F968FA78F94
:10508000B0A3A18CB28CC38CD48C60903D03709083
:105090003E0380903F03909040039301A401612F51
:1050A000702F8F2D9E2D0E94D43587FD0BC093014C
:1050B000A401B501C6010E94D43587FD11C053017A
:1050C00064010EC0212F302F4F2D5E2DB501C6017A
:1050D0000E94D43587FD04C0A12EB02ECF2CDE2C2B
:1050E000C501D601F101858B968BA78BB08F8CE023
:1050F000FE013196A1E3B3E001900D928A95E1F7AC
:10510000812F902FAF2DBE2D80933D0390933E03B2
:10511000A0933F03B09340038CE0FE013D96A5E2CF
:10512000B3E001900D928A95E1F78091420380935C
:1051300043038F5F823109F480E080934203AD9690
:105140000FB6F894DEBF0FBECDBFDF91CF911F9198
:105150000F91FF90EF90DF90CF90BF90AF909F9016
:105160008F907F906F905F904F903F902F900C9416
:105170006724AD960FB6F894DEBF0FBECDBFDF91AA
:10518000CF911F910F91FF90EF90DF90CF90BF9044
:10519000AF909F908F907F906F905F904F903F90D7
:1051A0002F90089580912A0690912B06A0912C06AD
:1051B000B0912D068093250390932603A093270397
:1051C000B093280380912E0690912F06A09130066F
:1051D000B09131068093290390932A03A0932B0367
:1051E000B0932C038091320690913306A09134063F
:1051F000B091350680932D0390932E03A0932F0337
:10520000B09330030895809143039091440389172C
:1052100008F48E5E891B08950E948B1A80914403C6
:10522000809341030C9467246F927F928F929F9298
:10523000AF92BF92CF92DF92EF92FF920F931F93A4
:10524000CF93DF937C018B016A01FB018081F70121
:10525000E80FF11D2081EF012D3229F422962181E2
:105260006624639407C02B3211F0219602C0229667
:105270002181612CA12CB12C712C60E070E0CB015C
:10528000FE0130ED932E920E29E02915C8F0B3945B
:1052900028E02B1588F0A1107A94A5E0B0E09B01DE
:1052A000AC010E94FF38660F771F881F991F690D98
:1052B000711D811D911D0BC0A11009C0739407C001
:1052C0002EEF921207C0A11005C0AA24A394219624
:1052D0002081D6CFBB2009F449C00E9474364B010F
:1052E0005C0120E030E0A9010E94D435882361F1FF
:1052F0008FEF78166CF42AE037ED43E25CE3C501EA
:10530000B4010E9412384B015C0173947394F0CF86
:1053100078120BC02DEC3CEC4CEC5DE3C501B40104
:105320000E9412384B015C010FC0772069F020E029
:1053300030E040E251E4C501B4010E9412384B0153
:105340005C017A9417149CF3662021F0B7FAB094AC
:10535000B7F8B094F60180829182A282B382CE190E
:10536000DF09C150F801C08381E001C080E0DF9116
:10537000CF911F910F91FF90EF90DF90CF90BF9052
:10538000AF909F908F907F906F900895009741F01D
:10539000EFE9FFE03197F1F700C000000197F6CF89
:1053A00008958F929F92AF92BF92CF92DF92EF9229
:1053B000FF9269017A019B01AC010E9412384B01F6
:1053C0005C01A7019601C701B6010E9412389B013A
:1053D000AC01C501B4010E94FB34FF90EF90DF9057
:1053E000CF90BF90AF909F908F900C949F38EBE63A
:1053F000F0E080818F788083E8E6F0E080818E7F26
:105400008083089584B18F7884B985B1806785B928
:105410008091BC0783FF0BC080916B0080678093F5
:105420006B008091680081608093680008950C94FF
:10543000F729CF92DF92FF920F931F93CF93DF93C1
:105440001F92CDB7DEB793B190778091BC0786FDF0
:1054500002C080E798279923D9F0C12CD12CF12CD8
:1054600001E010E08C2D99830E945D2499818923AD
:1054700039F098010C2C01C0220F0A94EAF7F22AA5
:105480008FEFC81AD80AE3E0CE16D10459F701C04D
:10549000F12C8F2D0F90DF91CF911F910F91FF90E5
:1054A000DF90CF9008951F920F920FB60F921124A4
:1054B0000BB60F922F933F934F935F936F937F930E
:1054C0008F939F93AF93BF93EF93FF9380912806A1
:1054D000813071F08091460681110AC00E949F09B7
:1054E0009FB7F894809146068360809346069FBFDD
:1054F000FF91EF91BF91AF919F918F917F916F91AC
:105500005F914F913F912F910F900BBE0F900FBE67
:105510000F901F9018952F923F924F925F926F922B
:105520007F928F929F92AF92BF92CF92DF92EF9233
:10553000FF920F931F93CF93DF93CDB7DEB767979B
:105540000FB6F894DEBF0FBECDBF582E8091270650
:105550008111A1C123EAA22E27E0B22E9E01235F72
:105560003F4F190100E010E0C12CD12C7601652CD1
:10557000712C802F0E944924D1018D931D01C301FC
:10558000002E02C0959587950A94E2F780FF1AC015
:1055900020E030E040EC5FEBF501608171818281B9
:1055A00093810E941238688B472E4C01262F372F8B
:1055B000AC01C701B6010E94D73718161CF0C88885
:1055C000D42C74010F5F1F4FF4E0AF0EB11C0330F9
:1055D000110579F68090C2079090C307A090C40788
:1055E000B090C50724E0288B01E06AE276E0CE01A6
:1055F00001960E94E0342090BD07312CFE013196C7
:105600008AE296E09F8B8E8B80E090E0412C10E048
:10561000B701A60170589301082E02C03595279551
:105620000A94E2F720FF28C04394AE89BF891D92F7
:105630001D921D921C9213979101082E02C0359560
:1056400027950A94E2F720FF03C0002319F007C052
:10565000002329F0C082D182E282F38204C0408319
:105660005183628373832DE030E02C0F3D1F280FA0
:10567000391FD9012C91122B019634962E893F891E
:105680002C5F3F4F3F8B2E8B8330910521F6642D8D
:1056900070E080E090E00E9474360E949F389B0189
:1056A000AC01C501B4010E941238AB01BC011093DA
:1056B00043064A8B5B8B6C8B7D8B0E94D22820E04B
:1056C0004A895B896C897D89CE0101960E94D92522
:1056D0000E94AD1A0E9483170023E9F00E94192A44
:1056E000FE013D9620E030E090E06191462F41239D
:1056F00059F0AC01022E02C0559547950A94E2F785
:1057000040FF02C0609516232F5F3F4F23303105C5
:1057100061F7109343060E94AD1A8091440684738A
:10572000C1F080914406807329F00E949F090E9475
:10573000C515B1C00111AAC00E94192A8521A9F777
:105740009FB7F894809144068B7F809344069FBF57
:1057500004C0812F8C7109F0BFCF0E943D1A0E94B6
:1057600082258091C6079091C7070E94C62931E023
:105770000327C9F020E030E040EA50E46091C80718
:105780007091C9078091CA079091CB070E94123887
:105790006B017C018090BE079090BF07A090C0076E
:1057A000B090C10710C0C090C807D090C907E09062
:1057B000CA07F090CB078090C2079090C307A090D3
:1057C000C407B090C50788898150888B81110DCF9F
:1057D0008091BD07A82FB0E0B98BA88BC090C807F7
:1057E000D090C907E090CA07F090CB0716012701B7
:1057F00057FA509457F850948FE7A82E87E0B82EA8
:105800009AE2892E96E0992E00E010E0C301002E66
:1058100002C0959587950A94E2F780FF29C0888990
:105820009989002E02C0959587950A94E2F7F501B3
:1058300080FF0EC024A135A146A157A1C701B60122
:105840000E94FB34D5012D913D914D915C9106C094
:105850002081318142815381C201B1010E941238FD
:105860000E94E237D4016D937D938D939C9313979F
:105870000F5F1F4FB4E08B0E911CE4E0AE0EB11C25
:105880000330110519F60E94D22805C08091440604
:1058900082FF56CF4ACF67960FB6F894DEBF0FBE91
:1058A000CDBFDF91CF911F910F91FF90EF90DF90CF
:1058B000CF90BF90AF909F908F907F906F905F90B0
:1058C0004F903F902F900895CF92DF92EF92FF92EA
:1058D0000F931F93CF93DF938C01C3EAD7E0F801B6
:1058E000C190D190E190F1908F0120E030E0A901CA
:1058F000C701B6010E94D737181654F02991399183
:1059000049915991C701B6010E94D43587FF2BC038
:10591000809128068830A1F00E949F099FB7F894D3
:10592000809146068560809346069FBFDF91CF91A8
:105930001F910F91FF90EF90DF90CF900C94C515C1
:105940009FB7F894809144068860809344069FBF77
:105950000E94C5158091270681110AC080912806F2
:105960008111F6CFD9CFF7E0CF3ADF0709F0B7CFF3
:10597000DF91CF911F910F91FF90EF90DF90CF902B
:105980000895CF93DF93EC018991882319F00E9449
:105990000015FACFDF91CF910895CF93DF93FC01EB
:1059A0008491EF012196882321F00E940015FE01C9
:1059B000F7CFDF91CF910895EF92FF920F931F934E
:1059C000CF93DF931F92CDB7DEB7262FEDB6FEB68D
:1059D0006DB77EB7641B71090FB6F8947EBF0FBE1A
:1059E0006DBF0DB71EB70F5F1F4F302FF8019E2FF1
:1059F000931B941728F4622F0E940A399193F7CFD2
:105A0000442361F0F801E40FF11D31978081805D3E
:105A100049830E94001549814150F2CF0FB6F89496
:105A2000FEBE0FBEEDBE0F90DF91CF911F910F9183
:105A3000FF90EF90089548E062E00C94DC2C8A30EF
:105A400020F0843620F442E003C041E001C043E08E
:105A50006AE00C94DC2C8F929F92AF92BF92CF920F
:105A6000DF92EF92FF920F931F93CF93DF93CDB707
:105A7000DEB72A970FB6F894DEBF0FBECDBF6B011D
:105A80007C01142F20E030E0A9010E94D43587FF6B
:105A900007C08DE20E940015F7FAF094F7F8F09431
:105AA000012F023060F020E030E048EC52E4C70102
:105AB000B6010E9412386B017C010250F2CF10FF38
:105AC0000AC020E030E040E251E4C701B6010E9484
:105AD00012386B017C0120E030E040E05FE3C70159
